{
	"src/pools/PoolSoccer.sol": {
		"PoolSoccer": {
			"abi": [
				{
					"inputs": [],
					"stateMutability": "nonpayable",
					"type": "constructor"
				},
				{
					"inputs": [],
					"name": "deposit",
					"outputs": [],
					"stateMutability": "nonpayable",
					"type": "function"
				},
				{
					"inputs": [],
					"name": "get_id",
					"outputs": [
						{
							"internalType": "uint256",
							"name": "",
							"type": "uint256"
						}
					],
					"stateMutability": "view",
					"type": "function"
				},
				{
					"inputs": [],
					"name": "withdraw",
					"outputs": [],
					"stateMutability": "nonpayable",
					"type": "function"
				}
			],
			"devdoc": {
				"kind": "dev",
				"methods": {},
				"version": 1
			},
			"evm": {
				"assembly": "    /* \"src/pools/PoolSoccer.sol\":88:378  contract PoolSoccer {... */\n  mstore(0x40, 0x80)\n    /* \"src/pools/PoolSoccer.sol\":143:216  constructor() {... */\n  callvalue\n  dup1\n  iszero\n  tag_1\n  jumpi\n  0x00\n  dup1\n  revert\ntag_1:\n  pop\n    /* \"src/pools/PoolSoccer.sol\":177:209  Utils.generate_unique_id(\"pool\") */\n  tag_4\n  mload(0x40)\n  dup1\n  0x40\n  add\n  0x40\n  mstore\n  dup1\n  0x04\n  dup2\n  mstore\n  0x20\n  add\n  0x706f6f6c00000000000000000000000000000000000000000000000000000000\n  dup2\n  mstore\n  pop\n    /* \"src/pools/PoolSoccer.sol\":177:201  Utils.generate_unique_id */\n  shl(0x20, tag_5)\n    /* \"src/pools/PoolSoccer.sol\":177:209  Utils.generate_unique_id(\"pool\") */\n  0x20\n  shr\n  jump\t// in\ntag_4:\n    /* \"src/pools/PoolSoccer.sol\":167:174  pool_id */\n  0x00\n    /* \"src/pools/PoolSoccer.sol\":167:209  pool_id = Utils.generate_unique_id(\"pool\") */\n  dup2\n  swap1\n  sstore\n  pop\n    /* \"src/pools/PoolSoccer.sol\":88:378  contract PoolSoccer {... */\n  jump(tag_6)\n    /* \"src/Utils.sol\":89:369  function generate_unique_id(string memory type_contract) internal view returns (uint256) {... */\ntag_5:\n    /* \"src/Utils.sol\":169:176  uint256 */\n  0x00\n    /* \"src/Utils.sol\":189:201  bytes32 hash */\n  dup1\n    /* \"src/Utils.sol\":231:246  block.timestamp */\n  timestamp\n    /* \"src/Utils.sol\":248:260  block.number */\n  number\n    /* \"src/Utils.sol\":262:272  msg.sender */\n  caller\n    /* \"src/Utils.sol\":282:286  this */\n  address\n    /* \"src/Utils.sol\":289:302  type_contract */\n  dup7\n    /* \"src/Utils.sol\":214:303  abi.encodePacked(block.timestamp, block.number, msg.sender, address(this), type_contract) */\n  add(0x20, mload(0x40))\n  tag_8\n  swap6\n  swap5\n  swap4\n  swap3\n  swap2\n  swap1\n  tag_9\n  jump\t// in\ntag_8:\n  mload(0x40)\n  0x20\n  dup2\n  dup4\n  sub\n  sub\n  dup2\n  mstore\n  swap1\n  0x40\n  mstore\n    /* \"src/Utils.sol\":204:304  keccak256(abi.encodePacked(block.timestamp, block.number, msg.sender, address(this), type_contract)) */\n  dup1\n  mload\n  swap1\n  0x20\n  add\n  keccak256\n    /* \"src/Utils.sol\":189:304  bytes32 hash = keccak256(abi.encodePacked(block.timestamp, block.number, msg.sender, address(this), type_contract)) */\n  swap1\n  pop\n    /* \"src/Utils.sol\":315:325  uint256 id */\n  0x00\n    /* \"src/Utils.sol\":336:340  hash */\n  dup2\n    /* \"src/Utils.sol\":328:341  uint256(hash) */\n  0x00\n  shr\n    /* \"src/Utils.sol\":315:341  uint256 id = uint256(hash) */\n  swap1\n  pop\n    /* \"src/Utils.sol\":359:361  id */\n  dup1\n    /* \"src/Utils.sol\":352:361  return id */\n  swap3\n  pop\n  pop\n  pop\n    /* \"src/Utils.sol\":89:369  function generate_unique_id(string memory type_contract) internal view returns (uint256) {... */\n  swap2\n  swap1\n  pop\n  jump\t// out\n    /* \"#utility.yul\":7:84   */\ntag_10:\n    /* \"#utility.yul\":44:51   */\n  0x00\n    /* \"#utility.yul\":73:78   */\n  dup2\n    /* \"#utility.yul\":62:78   */\n  swap1\n  pop\n    /* \"#utility.yul\":7:84   */\n  swap2\n  swap1\n  pop\n  jump\t// out\n    /* \"#utility.yul\":90:169   */\ntag_11:\n    /* \"#utility.yul\":129:136   */\n  0x00\n    /* \"#utility.yul\":158:163   */\n  dup2\n    /* \"#utility.yul\":147:163   */\n  swap1\n  pop\n    /* \"#utility.yul\":90:169   */\n  swap2\n  swap1\n  pop\n  jump\t// out\n    /* \"#utility.yul\":175:332   */\ntag_12:\n    /* \"#utility.yul\":280:325   */\n  tag_27\n    /* \"#utility.yul\":300:324   */\n  tag_28\n    /* \"#utility.yul\":318:323   */\n  dup3\n    /* \"#utility.yul\":300:324   */\n  tag_10\n  jump\t// in\ntag_28:\n    /* \"#utility.yul\":280:325   */\n  tag_11\n  jump\t// in\ntag_27:\n    /* \"#utility.yul\":275:278   */\n  dup3\n    /* \"#utility.yul\":268:326   */\n  mstore\n    /* \"#utility.yul\":175:332   */\n  pop\n  pop\n  jump\t// out\n    /* \"#utility.yul\":338:464   */\ntag_13:\n    /* \"#utility.yul\":375:382   */\n  0x00\n    /* \"#utility.yul\":415:457   */\n  0xffffffffffffffffffffffffffffffffffffffff\n    /* \"#utility.yul\":408:413   */\n  dup3\n    /* \"#utility.yul\":404:458   */\n  and\n    /* \"#utility.yul\":393:458   */\n  swap1\n  pop\n    /* \"#utility.yul\":338:464   */\n  swap2\n  swap1\n  pop\n  jump\t// out\n    /* \"#utility.yul\":470:566   */\ntag_14:\n    /* \"#utility.yul\":507:514   */\n  0x00\n    /* \"#utility.yul\":536:560   */\n  tag_31\n    /* \"#utility.yul\":554:559   */\n  dup3\n    /* \"#utility.yul\":536:560   */\n  tag_13\n  jump\t// in\ntag_31:\n    /* \"#utility.yul\":525:560   */\n  swap1\n  pop\n    /* \"#utility.yul\":470:566   */\n  swap2\n  swap1\n  pop\n  jump\t// out\n    /* \"#utility.yul\":572:666   */\ntag_15:\n    /* \"#utility.yul\":605:613   */\n  0x00\n    /* \"#utility.yul\":653:658   */\n  dup2\n    /* \"#utility.yul\":649:651   */\n  0x60\n    /* \"#utility.yul\":645:659   */\n  shl\n    /* \"#utility.yul\":624:659   */\n  swap1\n  pop\n    /* \"#utility.yul\":572:666   */\n  swap2\n  swap1\n  pop\n  jump\t// out\n    /* \"#utility.yul\":672:766   */\ntag_16:\n    /* \"#utility.yul\":711:718   */\n  0x00\n    /* \"#utility.yul\":740:760   */\n  tag_34\n    /* \"#utility.yul\":754:759   */\n  dup3\n    /* \"#utility.yul\":740:760   */\n  tag_15\n  jump\t// in\ntag_34:\n    /* \"#utility.yul\":729:760   */\n  swap1\n  pop\n    /* \"#utility.yul\":672:766   */\n  swap2\n  swap1\n  pop\n  jump\t// out\n    /* \"#utility.yul\":772:872   */\ntag_17:\n    /* \"#utility.yul\":811:818   */\n  0x00\n    /* \"#utility.yul\":840:866   */\n  tag_36\n    /* \"#utility.yul\":860:865   */\n  dup3\n    /* \"#utility.yul\":840:866   */\n  tag_16\n  jump\t// in\ntag_36:\n    /* \"#utility.yul\":829:866   */\n  swap1\n  pop\n    /* \"#utility.yul\":772:872   */\n  swap2\n  swap1\n  pop\n  jump\t// out\n    /* \"#utility.yul\":878:1035   */\ntag_18:\n    /* \"#utility.yul\":983:1028   */\n  tag_38\n    /* \"#utility.yul\":1003:1027   */\n  tag_39\n    /* \"#utility.yul\":1021:1026   */\n  dup3\n    /* \"#utility.yul\":1003:1027   */\n  tag_14\n  jump\t// in\ntag_39:\n    /* \"#utility.yul\":983:1028   */\n  tag_17\n  jump\t// in\ntag_38:\n    /* \"#utility.yul\":978:981   */\n  dup3\n    /* \"#utility.yul\":971:1029   */\n  mstore\n    /* \"#utility.yul\":878:1035   */\n  pop\n  pop\n  jump\t// out\n    /* \"#utility.yul\":1041:1140   */\ntag_19:\n    /* \"#utility.yul\":1093:1099   */\n  0x00\n    /* \"#utility.yul\":1127:1132   */\n  dup2\n    /* \"#utility.yul\":1121:1133   */\n  mload\n    /* \"#utility.yul\":1111:1133   */\n  swap1\n  pop\n    /* \"#utility.yul\":1041:1140   */\n  swap2\n  swap1\n  pop\n  jump\t// out\n    /* \"#utility.yul\":1146:1294   */\ntag_20:\n    /* \"#utility.yul\":1248:1259   */\n  0x00\n    /* \"#utility.yul\":1285:1288   */\n  dup2\n    /* \"#utility.yul\":1270:1288   */\n  swap1\n  pop\n    /* \"#utility.yul\":1146:1294   */\n  swap3\n  swap2\n  pop\n  pop\n  jump\t// out\n    /* \"#utility.yul\":1300:1546   */\ntag_21:\n    /* \"#utility.yul\":1381:1382   */\n  0x00\n    /* \"#utility.yul\":1391:1504   */\ntag_43:\n    /* \"#utility.yul\":1405:1411   */\n  dup4\n    /* \"#utility.yul\":1402:1403   */\n  dup2\n    /* \"#utility.yul\":1399:1412   */\n  lt\n    /* \"#utility.yul\":1391:1504   */\n  iszero\n  tag_45\n  jumpi\n    /* \"#utility.yul\":1490:1491   */\n  dup1\n    /* \"#utility.yul\":1485:1488   */\n  dup3\n    /* \"#utility.yul\":1481:1492   */\n  add\n    /* \"#utility.yul\":1475:1493   */\n  mload\n    /* \"#utility.yul\":1471:1472   */\n  dup2\n    /* \"#utility.yul\":1466:1469   */\n  dup5\n    /* \"#utility.yul\":1462:1473   */\n  add\n    /* \"#utility.yul\":1455:1494   */\n  mstore\n    /* \"#utility.yul\":1427:1429   */\n  0x20\n    /* \"#utility.yul\":1424:1425   */\n  dup2\n    /* \"#utility.yul\":1420:1430   */\n  add\n    /* \"#utility.yul\":1415:1430   */\n  swap1\n  pop\n    /* \"#utility.yul\":1391:1504   */\n  jump(tag_43)\ntag_45:\n    /* \"#utility.yul\":1538:1539   */\n  0x00\n    /* \"#utility.yul\":1529:1535   */\n  dup5\n    /* \"#utility.yul\":1524:1527   */\n  dup5\n    /* \"#utility.yul\":1520:1536   */\n  add\n    /* \"#utility.yul\":1513:1540   */\n  mstore\n    /* \"#utility.yul\":1362:1546   */\n  pop\n    /* \"#utility.yul\":1300:1546   */\n  pop\n  pop\n  pop\n  jump\t// out\n    /* \"#utility.yul\":1552:1942   */\ntag_22:\n    /* \"#utility.yul\":1658:1661   */\n  0x00\n    /* \"#utility.yul\":1686:1725   */\n  tag_47\n    /* \"#utility.yul\":1719:1724   */\n  dup3\n    /* \"#utility.yul\":1686:1725   */\n  tag_19\n  jump\t// in\ntag_47:\n    /* \"#utility.yul\":1741:1830   */\n  tag_48\n    /* \"#utility.yul\":1823:1829   */\n  dup2\n    /* \"#utility.yul\":1818:1821   */\n  dup6\n    /* \"#utility.yul\":1741:1830   */\n  tag_20\n  jump\t// in\ntag_48:\n    /* \"#utility.yul\":1734:1830   */\n  swap4\n  pop\n    /* \"#utility.yul\":1839:1904   */\n  tag_49\n    /* \"#utility.yul\":1897:1903   */\n  dup2\n    /* \"#utility.yul\":1892:1895   */\n  dup6\n    /* \"#utility.yul\":1885:1889   */\n  0x20\n    /* \"#utility.yul\":1878:1883   */\n  dup7\n    /* \"#utility.yul\":1874:1890   */\n  add\n    /* \"#utility.yul\":1839:1904   */\n  tag_21\n  jump\t// in\ntag_49:\n    /* \"#utility.yul\":1929:1935   */\n  dup1\n    /* \"#utility.yul\":1924:1927   */\n  dup5\n    /* \"#utility.yul\":1920:1936   */\n  add\n    /* \"#utility.yul\":1913:1936   */\n  swap2\n  pop\n    /* \"#utility.yul\":1662:1942   */\n  pop\n    /* \"#utility.yul\":1552:1942   */\n  swap3\n  swap2\n  pop\n  pop\n  jump\t// out\n    /* \"#utility.yul\":1948:2787   */\ntag_9:\n    /* \"#utility.yul\":2192:2195   */\n  0x00\n    /* \"#utility.yul\":2207:2282   */\n  tag_51\n    /* \"#utility.yul\":2278:2281   */\n  dup3\n    /* \"#utility.yul\":2269:2275   */\n  dup9\n    /* \"#utility.yul\":2207:2282   */\n  tag_12\n  jump\t// in\ntag_51:\n    /* \"#utility.yul\":2307:2309   */\n  0x20\n    /* \"#utility.yul\":2302:2305   */\n  dup3\n    /* \"#utility.yul\":2298:2310   */\n  add\n    /* \"#utility.yul\":2291:2310   */\n  swap2\n  pop\n    /* \"#utility.yul\":2320:2395   */\n  tag_52\n    /* \"#utility.yul\":2391:2394   */\n  dup3\n    /* \"#utility.yul\":2382:2388   */\n  dup8\n    /* \"#utility.yul\":2320:2395   */\n  tag_12\n  jump\t// in\ntag_52:\n    /* \"#utility.yul\":2420:2422   */\n  0x20\n    /* \"#utility.yul\":2415:2418   */\n  dup3\n    /* \"#utility.yul\":2411:2423   */\n  add\n    /* \"#utility.yul\":2404:2423   */\n  swap2\n  pop\n    /* \"#utility.yul\":2433:2508   */\n  tag_53\n    /* \"#utility.yul\":2504:2507   */\n  dup3\n    /* \"#utility.yul\":2495:2501   */\n  dup7\n    /* \"#utility.yul\":2433:2508   */\n  tag_18\n  jump\t// in\ntag_53:\n    /* \"#utility.yul\":2533:2535   */\n  0x14\n    /* \"#utility.yul\":2528:2531   */\n  dup3\n    /* \"#utility.yul\":2524:2536   */\n  add\n    /* \"#utility.yul\":2517:2536   */\n  swap2\n  pop\n    /* \"#utility.yul\":2546:2621   */\n  tag_54\n    /* \"#utility.yul\":2617:2620   */\n  dup3\n    /* \"#utility.yul\":2608:2614   */\n  dup6\n    /* \"#utility.yul\":2546:2621   */\n  tag_18\n  jump\t// in\ntag_54:\n    /* \"#utility.yul\":2646:2648   */\n  0x14\n    /* \"#utility.yul\":2641:2644   */\n  dup3\n    /* \"#utility.yul\":2637:2649   */\n  add\n    /* \"#utility.yul\":2630:2649   */\n  swap2\n  pop\n    /* \"#utility.yul\":2666:2761   */\n  tag_55\n    /* \"#utility.yul\":2757:2760   */\n  dup3\n    /* \"#utility.yul\":2748:2754   */\n  dup5\n    /* \"#utility.yul\":2666:2761   */\n  tag_22\n  jump\t// in\ntag_55:\n    /* \"#utility.yul\":2659:2761   */\n  swap2\n  pop\n    /* \"#utility.yul\":2778:2781   */\n  dup2\n    /* \"#utility.yul\":2771:2781   */\n  swap1\n  pop\n    /* \"#utility.yul\":1948:2787   */\n  swap7\n  swap6\n  pop\n  pop\n  pop\n  pop\n  pop\n  pop\n  jump\t// out\n    /* \"src/pools/PoolSoccer.sol\":88:378  contract PoolSoccer {... */\ntag_6:\n  dataSize(sub_0)\n  dup1\n  dataOffset(sub_0)\n  0x00\n  codecopy\n  0x00\n  return\nstop\n\nsub_0: assembly {\n        /* \"src/pools/PoolSoccer.sol\":88:378  contract PoolSoccer {... */\n      mstore(0x40, 0x80)\n      callvalue\n      dup1\n      iszero\n      tag_1\n      jumpi\n      0x00\n      dup1\n      revert\n    tag_1:\n      pop\n      jumpi(tag_2, lt(calldatasize, 0x04))\n      shr(0xe0, calldataload(0x00))\n      dup1\n      0x3ccfd60b\n      eq\n      tag_3\n      jumpi\n      dup1\n      0xd0e30db0\n      eq\n      tag_4\n      jumpi\n      dup1\n      0xf43fa805\n      eq\n      tag_5\n      jumpi\n    tag_2:\n      0x00\n      dup1\n      revert\n        /* \"src/pools/PoolSoccer.sol\":345:376  function withdraw() external {} */\n    tag_3:\n      tag_6\n      tag_7\n      jump\t// in\n    tag_6:\n      stop\n        /* \"src/pools/PoolSoccer.sol\":309:339  function deposit() external {} */\n    tag_4:\n      tag_8\n      tag_9\n      jump\t// in\n    tag_8:\n      stop\n        /* \"src/pools/PoolSoccer.sol\":222:303  function get_id() external view returns (uint256) {... */\n    tag_5:\n      tag_10\n      tag_11\n      jump\t// in\n    tag_10:\n      mload(0x40)\n      tag_12\n      swap2\n      swap1\n      tag_13\n      jump\t// in\n    tag_12:\n      mload(0x40)\n      dup1\n      swap2\n      sub\n      swap1\n      return\n        /* \"src/pools/PoolSoccer.sol\":345:376  function withdraw() external {} */\n    tag_7:\n      jump\t// out\n        /* \"src/pools/PoolSoccer.sol\":309:339  function deposit() external {} */\n    tag_9:\n      jump\t// out\n        /* \"src/pools/PoolSoccer.sol\":222:303  function get_id() external view returns (uint256) {... */\n    tag_11:\n        /* \"src/pools/PoolSoccer.sol\":263:270  uint256 */\n      0x00\n        /* \"src/pools/PoolSoccer.sol\":289:296  pool_id */\n      dup1\n      sload\n        /* \"src/pools/PoolSoccer.sol\":282:296  return pool_id */\n      swap1\n      pop\n        /* \"src/pools/PoolSoccer.sol\":222:303  function get_id() external view returns (uint256) {... */\n      swap1\n      jump\t// out\n        /* \"#utility.yul\":7:84   */\n    tag_17:\n        /* \"#utility.yul\":44:51   */\n      0x00\n        /* \"#utility.yul\":73:78   */\n      dup2\n        /* \"#utility.yul\":62:78   */\n      swap1\n      pop\n        /* \"#utility.yul\":7:84   */\n      swap2\n      swap1\n      pop\n      jump\t// out\n        /* \"#utility.yul\":90:208   */\n    tag_18:\n        /* \"#utility.yul\":177:201   */\n      tag_22\n        /* \"#utility.yul\":195:200   */\n      dup2\n        /* \"#utility.yul\":177:201   */\n      tag_17\n      jump\t// in\n    tag_22:\n        /* \"#utility.yul\":172:175   */\n      dup3\n        /* \"#utility.yul\":165:202   */\n      mstore\n        /* \"#utility.yul\":90:208   */\n      pop\n      pop\n      jump\t// out\n        /* \"#utility.yul\":214:436   */\n    tag_13:\n        /* \"#utility.yul\":307:311   */\n      0x00\n        /* \"#utility.yul\":345:347   */\n      0x20\n        /* \"#utility.yul\":334:343   */\n      dup3\n        /* \"#utility.yul\":330:348   */\n      add\n        /* \"#utility.yul\":322:348   */\n      swap1\n      pop\n        /* \"#utility.yul\":358:429   */\n      tag_24\n        /* \"#utility.yul\":426:427   */\n      0x00\n        /* \"#utility.yul\":415:424   */\n      dup4\n        /* \"#utility.yul\":411:428   */\n      add\n        /* \"#utility.yul\":402:408   */\n      dup5\n        /* \"#utility.yul\":358:429   */\n      tag_18\n      jump\t// in\n    tag_24:\n        /* \"#utility.yul\":214:436   */\n      swap3\n      swap2\n      pop\n      pop\n      jump\t// out\n\n    auxdata: 0xa2646970667358221220306b69f28ca56f56277718a4eff3eab13220bbca7694908b55263223193146a564736f6c63430008180033\n}\n",
				"bytecode": {
					"linkReferences": {},
					"object": "608060405234801561000f575f80fd5b506100546040518060400160405280600481526020017f706f6f6c0000000000000000000000000000000000000000000000000000000081525061005e60201b60201c565b5f81905550610205565b5f8042433330866040516020016100799594939291906101ab565b6040516020818303038152906040528051906020012090505f815f1c90508092505050919050565b5f819050919050565b5f819050919050565b6100c46100bf826100a1565b6100aa565b82525050565b5f73ffffffffffffffffffffffffffffffffffffffff82169050919050565b5f6100f3826100ca565b9050919050565b5f8160601b9050919050565b5f610110826100fa565b9050919050565b5f61012182610106565b9050919050565b610139610134826100e9565b610117565b82525050565b5f81519050919050565b5f81905092915050565b5f5b83811015610170578082015181840152602081019050610155565b5f8484015250505050565b5f6101858261013f565b61018f8185610149565b935061019f818560208601610153565b80840191505092915050565b5f6101b682886100b3565b6020820191506101c682876100b3565b6020820191506101d68286610128565b6014820191506101e68285610128565b6014820191506101f6828461017b565b91508190509695505050505050565b60d7806102115f395ff3fe6080604052348015600e575f80fd5b5060043610603a575f3560e01c80633ccfd60b14603e578063d0e30db0146046578063f43fa80514604e575b5f80fd5b60446068565b005b604c606a565b005b6054606c565b604051605f9190608a565b60405180910390f35b565b565b5f8054905090565b5f819050919050565b6084816074565b82525050565b5f602082019050609b5f830184607d565b9291505056fea2646970667358221220306b69f28ca56f56277718a4eff3eab13220bbca7694908b55263223193146a564736f6c63430008180033",
					"opcodes": "PUSH1 0x80 PUSH1 0x40 MSTORE CALLVALUE DUP1 ISZERO PUSH2 0xF JUMPI PUSH0 DUP1 REVERT JUMPDEST POP PUSH2 0x54 PUSH1 0x40 MLOAD DUP1 PUSH1 0x40 ADD PUSH1 0x40 MSTORE DUP1 PUSH1 0x4 DUP2 MSTORE PUSH1 0x20 ADD PUSH32 0x706F6F6C00000000000000000000000000000000000000000000000000000000 DUP2 MSTORE POP PUSH2 0x5E PUSH1 0x20 SHL PUSH1 0x20 SHR JUMP JUMPDEST PUSH0 DUP2 SWAP1 SSTORE POP PUSH2 0x205 JUMP JUMPDEST PUSH0 DUP1 TIMESTAMP NUMBER CALLER ADDRESS DUP7 PUSH1 0x40 MLOAD PUSH1 0x20 ADD PUSH2 0x79 SWAP6 SWAP5 SWAP4 SWAP3 SWAP2 SWAP1 PUSH2 0x1AB JUMP JUMPDEST PUSH1 0x40 MLOAD PUSH1 0x20 DUP2 DUP4 SUB SUB DUP2 MSTORE SWAP1 PUSH1 0x40 MSTORE DUP1 MLOAD SWAP1 PUSH1 0x20 ADD KECCAK256 SWAP1 POP PUSH0 DUP2 PUSH0 SHR SWAP1 POP DUP1 SWAP3 POP POP POP SWAP2 SWAP1 POP JUMP JUMPDEST PUSH0 DUP2 SWAP1 POP SWAP2 SWAP1 POP JUMP JUMPDEST PUSH0 DUP2 SWAP1 POP SWAP2 SWAP1 POP JUMP JUMPDEST PUSH2 0xC4 PUSH2 0xBF DUP3 PUSH2 0xA1 JUMP JUMPDEST PUSH2 0xAA JUMP JUMPDEST DUP3 MSTORE POP POP JUMP JUMPDEST PUSH0 PUSH20 0xFFFFFFFFFFFFFFFFFFFFFFFFFFFFFFFFFFFFFFFF DUP3 AND SWAP1 POP SWAP2 SWAP1 POP JUMP JUMPDEST PUSH0 PUSH2 0xF3 DUP3 PUSH2 0xCA JUMP JUMPDEST SWAP1 POP SWAP2 SWAP1 POP JUMP JUMPDEST PUSH0 DUP2 PUSH1 0x60 SHL SWAP1 POP SWAP2 SWAP1 POP JUMP JUMPDEST PUSH0 PUSH2 0x110 DUP3 PUSH2 0xFA JUMP JUMPDEST SWAP1 POP SWAP2 SWAP1 POP JUMP JUMPDEST PUSH0 PUSH2 0x121 DUP3 PUSH2 0x106 JUMP JUMPDEST SWAP1 POP SWAP2 SWAP1 POP JUMP JUMPDEST PUSH2 0x139 PUSH2 0x134 DUP3 PUSH2 0xE9 JUMP JUMPDEST PUSH2 0x117 JUMP JUMPDEST DUP3 MSTORE POP POP JUMP JUMPDEST PUSH0 DUP2 MLOAD SWAP1 POP SWAP2 SWAP1 POP JUMP JUMPDEST PUSH0 DUP2 SWAP1 POP SWAP3 SWAP2 POP POP JUMP JUMPDEST PUSH0 JUMPDEST DUP4 DUP2 LT ISZERO PUSH2 0x170 JUMPI DUP1 DUP3 ADD MLOAD DUP2 DUP5 ADD MSTORE PUSH1 0x20 DUP2 ADD SWAP1 POP PUSH2 0x155 JUMP JUMPDEST PUSH0 DUP5 DUP5 ADD MSTORE POP POP POP POP JUMP JUMPDEST PUSH0 PUSH2 0x185 DUP3 PUSH2 0x13F JUMP JUMPDEST PUSH2 0x18F DUP2 DUP6 PUSH2 0x149 JUMP JUMPDEST SWAP4 POP PUSH2 0x19F DUP2 DUP6 PUSH1 0x20 DUP7 ADD PUSH2 0x153 JUMP JUMPDEST DUP1 DUP5 ADD SWAP2 POP POP SWAP3 SWAP2 POP POP JUMP JUMPDEST PUSH0 PUSH2 0x1B6 DUP3 DUP9 PUSH2 0xB3 JUMP JUMPDEST PUSH1 0x20 DUP3 ADD SWAP2 POP PUSH2 0x1C6 DUP3 DUP8 PUSH2 0xB3 JUMP JUMPDEST PUSH1 0x20 DUP3 ADD SWAP2 POP PUSH2 0x1D6 DUP3 DUP7 PUSH2 0x128 JUMP JUMPDEST PUSH1 0x14 DUP3 ADD SWAP2 POP PUSH2 0x1E6 DUP3 DUP6 PUSH2 0x128 JUMP JUMPDEST PUSH1 0x14 DUP3 ADD SWAP2 POP PUSH2 0x1F6 DUP3 DUP5 PUSH2 0x17B JUMP JUMPDEST SWAP2 POP DUP2 SWAP1 POP SWAP7 SWAP6 POP POP POP POP POP POP JUMP JUMPDEST PUSH1 0xD7 DUP1 PUSH2 0x211 PUSH0 CODECOPY PUSH0 RETURN INVALID PUSH1 0x80 PUSH1 0x40 MSTORE CALLVALUE DUP1 ISZERO PUSH1 0xE JUMPI PUSH0 DUP1 REVERT JUMPDEST POP PUSH1 0x4 CALLDATASIZE LT PUSH1 0x3A JUMPI PUSH0 CALLDATALOAD PUSH1 0xE0 SHR DUP1 PUSH4 0x3CCFD60B EQ PUSH1 0x3E JUMPI DUP1 PUSH4 0xD0E30DB0 EQ PUSH1 0x46 JUMPI DUP1 PUSH4 0xF43FA805 EQ PUSH1 0x4E JUMPI JUMPDEST PUSH0 DUP1 REVERT JUMPDEST PUSH1 0x44 PUSH1 0x68 JUMP JUMPDEST STOP JUMPDEST PUSH1 0x4C PUSH1 0x6A JUMP JUMPDEST STOP JUMPDEST PUSH1 0x54 PUSH1 0x6C JUMP JUMPDEST PUSH1 0x40 MLOAD PUSH1 0x5F SWAP2 SWAP1 PUSH1 0x8A JUMP JUMPDEST PUSH1 0x40 MLOAD DUP1 SWAP2 SUB SWAP1 RETURN JUMPDEST JUMP JUMPDEST JUMP JUMPDEST PUSH0 DUP1 SLOAD SWAP1 POP SWAP1 JUMP JUMPDEST PUSH0 DUP2 SWAP1 POP SWAP2 SWAP1 POP JUMP JUMPDEST PUSH1 0x84 DUP2 PUSH1 0x74 JUMP JUMPDEST DUP3 MSTORE POP POP JUMP JUMPDEST PUSH0 PUSH1 0x20 DUP3 ADD SWAP1 POP PUSH1 0x9B PUSH0 DUP4 ADD DUP5 PUSH1 0x7D JUMP JUMPDEST SWAP3 SWAP2 POP POP JUMP INVALID LOG2 PUSH5 0x6970667358 0x22 SLT KECCAK256 ADDRESS PUSH12 0x69F28CA56F56277718A4EFF3 0xEA 0xB1 ORIGIN KECCAK256 0xBB 0xCA PUSH23 0x94908B55263223193146A564736F6C6343000818003300 "
				},
				"gasEstimates": {
					"creation": {
						"codeDepositCost": "43000",
						"executionCost": "infinite",
						"totalCost": "infinite"
					},
					"external": {
						"deposit()": "143",
						"get_id()": "2454",
						"withdraw()": "121"
					}
				},
				"methodIdentifiers": {
					"deposit()": "d0e30db0",
					"get_id()": "f43fa805",
					"withdraw()": "3ccfd60b"
				}
			},
			"storageLayout": {
				"storage": [
					{
						"astId": 237,
						"contract": "src/pools/PoolSoccer.sol:PoolSoccer",
						"label": "pool_id",
						"offset": 0,
						"slot": "0",
						"type": "t_uint256"
					}
				],
				"types": {
					"t_uint256": {
						"encoding": "inplace",
						"label": "uint256",
						"numberOfBytes": "32"
					}
				}
			},
			"userdoc": {
				"kind": "user",
				"methods": {},
				"version": 1
			}
		}
	}
}