{
	"data": {
		"bytecode": {
			"linkReferences": {},
			"object": "608060405234801561000f575f80fd5b50335f806101000a81548173ffffffffffffffffffffffffffffffffffffffff021916908373ffffffffffffffffffffffffffffffffffffffff1602179055506114eb8061005c5f395ff3fe6080604052600436106200005b575f3560e01c80635dd3c46e146200005f5780637029144c146200006b5780638da5cb5b146200008b578063abc72c1c14620000ba578063b033ea7d14620000c6578063d90dae1914620000d2575b5f80fd5b6200006962000101565b005b6200008960048036038101906200008391906200077e565b620001ef565b005b34801562000097575f80fd5b50620000a26200037b565b604051620000b1919062000844565b60405180910390f35b620000c46200039e565b005b620000d06200048c565b005b348015620000de575f80fd5b50620000e96200057a565b604051620000f8919062000926565b60405180910390f35b6040518060400160405280601581526020017f4372656174652073746f726520636f6e747261637400000000000000000000008152505f8054906101000a900473ffffffffffffffffffffffffffffffffffffffff1673ffffffffffffffffffffffffffffffffffffffff163373ffffffffffffffffffffffffffffffffffffffff16148160405160200162000198919062000a0a565b60405160208183030381529060405290620001eb576040517f08c379a0000000000000000000000000000000000000000000000000000000008152600401620001e2919062000a7f565b60405180910390fd5b5050565b6040518060400160405280600481526020017f496e6974000000000000000000000000000000000000000000000000000000008152505f8054906101000a900473ffffffffffffffffffffffffffffffffffffffff1673ffffffffffffffffffffffffffffffffffffffff163373ffffffffffffffffffffffffffffffffffffffff16148160405160200162000286919062000a0a565b60405160208183030381529060405290620002d9576040517f08c379a0000000000000000000000000000000000000000000000000000000008152600401620002d0919062000a7f565b60405180910390fd5b505f8383604051620002eb9062000607565b620002f892919062000aa1565b604051809103905ff08015801562000312573d5f803e3d5ffd5b509050600181908060018154018082558091505060019003905f5260205f20015f9091909190916101000a81548173ffffffffffffffffffffffffffffffffffffffff021916908373ffffffffffffffffffffffffffffffffffffffff16021790555050505050565b5f8054906101000a900473ffffffffffffffffffffffffffffffffffffffff1681565b6040518060400160405280601581526020017f43726561746520537461746520636f6e747261637400000000000000000000008152505f8054906101000a900473ffffffffffffffffffffffffffffffffffffffff1673ffffffffffffffffffffffffffffffffffffffff163373ffffffffffffffffffffffffffffffffffffffff16148160405160200162000435919062000a0a565b6040516020818303038152906040529062000488576040517f08c379a00000000000000000000000000000000000000000000000000000000081526004016200047f919062000a7f565b60405180910390fd5b5050565b6040518060400160405280601481526020017f43726561746520506f6f6c20636f6e74726163740000000000000000000000008152505f8054906101000a900473ffffffffffffffffffffffffffffffffffffffff1673ffffffffffffffffffffffffffffffffffffffff163373ffffffffffffffffffffffffffffffffffffffff16148160405160200162000523919062000a0a565b6040516020818303038152906040529062000576576040517f08c379a00000000000000000000000000000000000000000000000000000000081526004016200056d919062000a7f565b60405180910390fd5b5050565b60606001805480602002602001604051908101604052809291908181526020018280548015620005fd57602002820191905f5260205f20905b815f9054906101000a900473ffffffffffffffffffffffffffffffffffffffff1673ffffffffffffffffffffffffffffffffffffffff1681526020019060010190808311620005b3575b5050505050905090565b6109db8062000adb83390190565b5f604051905090565b5f80fd5b5f80fd5b5f80fd5b5f80fd5b5f601f19601f8301169050919050565b7f4e487b71000000000000000000000000000000000000000000000000000000005f52604160045260245ffd5b62000676826200062e565b810181811067ffffffffffffffff821117156200069857620006976200063e565b5b80604052505050565b5f620006ac62000615565b9050620006ba82826200066b565b919050565b5f67ffffffffffffffff821115620006dc57620006db6200063e565b5b620006e7826200062e565b9050602081019050919050565b828183375f83830152505050565b5f620007186200071284620006bf565b620006a1565b9050828152602081018484840111156200073757620007366200062a565b5b62000744848285620006f4565b509392505050565b5f82601f83011262000763576200076262000626565b5b81356200077584826020860162000702565b91505092915050565b5f80604083850312156200079757620007966200061e565b5b5f83013567ffffffffffffffff811115620007b757620007b662000622565b5b620007c5858286016200074c565b925050602083013567ffffffffffffffff811115620007e957620007e862000622565b5b620007f7858286016200074c565b9150509250929050565b5f73ffffffffffffffffffffffffffffffffffffffff82169050919050565b5f6200082c8262000801565b9050919050565b6200083e8162000820565b82525050565b5f602082019050620008595f83018462000833565b92915050565b5f81519050919050565b5f82825260208201905092915050565b5f819050602082019050919050565b620008938162000820565b82525050565b5f620008a6838362000888565b60208301905092915050565b5f602082019050919050565b5f620008ca826200085f565b620008d6818562000869565b9350620008e38362000879565b805f5b8381101562000919578151620008fd888262000899565b97506200090a83620008b2565b925050600181019050620008e6565b5085935050505092915050565b5f6020820190508181035f830152620009408184620008be565b905092915050565b5f81905092915050565b7f4f6e6c7920636f6e7472616374206f776e65722063616e0000000000000000005f82015250565b5f6200098860178362000948565b9150620009958262000952565b601782019050919050565b5f81519050919050565b5f5b83811015620009c9578082015181840152602081019050620009ac565b5f8484015250505050565b5f620009e082620009a0565b620009ec818562000948565b9350620009fe818560208601620009aa565b80840191505092915050565b5f62000a16826200097a565b915062000a248284620009d4565b915081905092915050565b5f82825260208201905092915050565b5f62000a4b82620009a0565b62000a57818562000a2f565b935062000a69818560208601620009aa565b62000a74816200062e565b840191505092915050565b5f6020820190508181035f83015262000a99818462000a3f565b905092915050565b5f6040820190508181035f83015262000abb818562000a3f565b9050818103602083015262000ad1818462000a3f565b9050939250505056fe608060405234801562000010575f80fd5b50604051620009db380380620009db8339818101604052810190620000369190620001e6565b815f9081620000469190620004a0565b508060019081620000589190620004a0565b50505062000584565b5f604051905090565b5f80fd5b5f80fd5b5f80fd5b5f80fd5b5f601f19601f8301169050919050565b7f4e487b71000000000000000000000000000000000000000000000000000000005f52604160045260245ffd5b620000c2826200007a565b810181811067ffffffffffffffff82111715620000e457620000e36200008a565b5b80604052505050565b5f620000f862000061565b9050620001068282620000b7565b919050565b5f67ffffffffffffffff8211156200012857620001276200008a565b5b62000133826200007a565b9050602081019050919050565b5f5b838110156200015f57808201518184015260208101905062000142565b5f8484015250505050565b5f620001806200017a846200010b565b620000ed565b9050828152602081018484840111156200019f576200019e62000076565b5b620001ac84828562000140565b509392505050565b5f82601f830112620001cb57620001ca62000072565b5b8151620001dd8482602086016200016a565b91505092915050565b5f8060408385031215620001ff57620001fe6200006a565b5b5f83015167ffffffffffffffff8111156200021f576200021e6200006e565b5b6200022d85828601620001b4565b925050602083015167ffffffffffffffff8111156200025157620002506200006e565b5b6200025f85828601620001b4565b9150509250929050565b5f81519050919050565b7f4e487b71000000000000000000000000000000000000000000000000000000005f52602260045260245ffd5b5f6002820490506001821680620002b857607f821691505b602082108103620002ce57620002cd62000273565b5b50919050565b5f819050815f5260205f209050919050565b5f6020601f8301049050919050565b5f82821b905092915050565b5f60088302620003327fffffffffffffffffffffffffffffffffffffffffffffffffffffffffffffffff82620002f5565b6200033e8683620002f5565b95508019841693508086168417925050509392505050565b5f819050919050565b5f819050919050565b5f62000388620003826200037c8462000356565b6200035f565b62000356565b9050919050565b5f819050919050565b620003a38362000368565b620003bb620003b2826200038f565b84845462000301565b825550505050565b5f90565b620003d1620003c3565b620003de81848462000398565b505050565b5b818110156200040557620003f95f82620003c7565b600181019050620003e4565b5050565b601f82111562000454576200041e81620002d4565b6200042984620002e6565b8101602085101562000439578190505b620004516200044885620002e6565b830182620003e3565b50505b505050565b5f82821c905092915050565b5f620004765f198460080262000459565b1980831691505092915050565b5f62000490838362000465565b9150826002028217905092915050565b620004ab8262000269565b67ffffffffffffffff811115620004c757620004c66200008a565b5b620004d38254620002a0565b620004e082828562000409565b5f60209050601f83116001811462000516575f841562000501578287015190505b6200050d858262000483565b8655506200057c565b601f1984166200052686620002d4565b5f5b828110156200054f5784890151825560018201915060208501945060208101905062000528565b868310156200056f57848901516200056b601f89168262000465565b8355505b6001600288020188555050505b505050505050565b61044980620005925f395ff3fe608060405234801561000f575f80fd5b506004361061003f575f3560e01c80632402c982146100435780638c8d2ede14610062578063e612c0ad14610080575b5f80fd5b61004b61009e565b604051610059929190610361565b60405180910390f35b61006a6101c0565b6040516100779190610396565b60405180910390f35b61008861024b565b6040516100959190610396565b60405180910390f35b6060805f60018180546100b0906103e3565b80601f01602080910402602001604051908101604052809291908181526020018280546100dc906103e3565b80156101275780601f106100fe57610100808354040283529160200191610127565b820191905f5260205f20905b81548152906001019060200180831161010a57829003601f168201915b5050505050915080805461013a906103e3565b80601f0160208091040260200160405190810160405280929190818152602001828054610166906103e3565b80156101b15780601f10610188576101008083540402835291602001916101b1565b820191905f5260205f20905b81548152906001019060200180831161019457829003601f168201915b50505050509050915091509091565b5f80546101cc906103e3565b80601f01602080910402602001604051908101604052809291908181526020018280546101f8906103e3565b80156102435780601f1061021a57610100808354040283529160200191610243565b820191905f5260205f20905b81548152906001019060200180831161022657829003601f168201915b505050505081565b60018054610258906103e3565b80601f0160208091040260200160405190810160405280929190818152602001828054610284906103e3565b80156102cf5780601f106102a6576101008083540402835291602001916102cf565b820191905f5260205f20905b8154815290600101906020018083116102b257829003601f168201915b505050505081565b5f81519050919050565b5f82825260208201905092915050565b5f5b8381101561030e5780820151818401526020810190506102f3565b5f8484015250505050565b5f601f19601f8301169050919050565b5f610333826102d7565b61033d81856102e1565b935061034d8185602086016102f1565b61035681610319565b840191505092915050565b5f6040820190508181035f8301526103798185610329565b9050818103602083015261038d8184610329565b90509392505050565b5f6020820190508181035f8301526103ae8184610329565b905092915050565b7f4e487b71000000000000000000000000000000000000000000000000000000005f52602260045260245ffd5b5f60028204905060018216806103fa57607f821691505b60208210810361040d5761040c6103b6565b5b5091905056fea26469706673582212204c1028806ead9b02aa5a872961093085b925a39cb76dd9a9b08be5316d20098964736f6c63430008180033a2646970667358221220595685f0be3940a3ff2db6830a2371e19ff3134e94f1e4aa49426021ec4e259964736f6c63430008180033",
			"opcodes": "PUSH1 0x80 PUSH1 0x40 MSTORE CALLVALUE DUP1 ISZERO PUSH2 0xF JUMPI PUSH0 DUP1 REVERT JUMPDEST POP CALLER PUSH0 DUP1 PUSH2 0x100 EXP DUP2 SLOAD DUP2 PUSH20 0xFFFFFFFFFFFFFFFFFFFFFFFFFFFFFFFFFFFFFFFF MUL NOT AND SWAP1 DUP4 PUSH20 0xFFFFFFFFFFFFFFFFFFFFFFFFFFFFFFFFFFFFFFFF AND MUL OR SWAP1 SSTORE POP PUSH2 0x14EB DUP1 PUSH2 0x5C PUSH0 CODECOPY PUSH0 RETURN INVALID PUSH1 0x80 PUSH1 0x40 MSTORE PUSH1 0x4 CALLDATASIZE LT PUSH3 0x5B JUMPI PUSH0 CALLDATALOAD PUSH1 0xE0 SHR DUP1 PUSH4 0x5DD3C46E EQ PUSH3 0x5F JUMPI DUP1 PUSH4 0x7029144C EQ PUSH3 0x6B JUMPI DUP1 PUSH4 0x8DA5CB5B EQ PUSH3 0x8B JUMPI DUP1 PUSH4 0xABC72C1C EQ PUSH3 0xBA JUMPI DUP1 PUSH4 0xB033EA7D EQ PUSH3 0xC6 JUMPI DUP1 PUSH4 0xD90DAE19 EQ PUSH3 0xD2 JUMPI JUMPDEST PUSH0 DUP1 REVERT JUMPDEST PUSH3 0x69 PUSH3 0x101 JUMP JUMPDEST STOP JUMPDEST PUSH3 0x89 PUSH1 0x4 DUP1 CALLDATASIZE SUB DUP2 ADD SWAP1 PUSH3 0x83 SWAP2 SWAP1 PUSH3 0x77E JUMP JUMPDEST PUSH3 0x1EF JUMP JUMPDEST STOP JUMPDEST CALLVALUE DUP1 ISZERO PUSH3 0x97 JUMPI PUSH0 DUP1 REVERT JUMPDEST POP PUSH3 0xA2 PUSH3 0x37B JUMP JUMPDEST PUSH1 0x40 MLOAD PUSH3 0xB1 SWAP2 SWAP1 PUSH3 0x844 JUMP JUMPDEST PUSH1 0x40 MLOAD DUP1 SWAP2 SUB SWAP1 RETURN JUMPDEST PUSH3 0xC4 PUSH3 0x39E JUMP JUMPDEST STOP JUMPDEST PUSH3 0xD0 PUSH3 0x48C JUMP JUMPDEST STOP JUMPDEST CALLVALUE DUP1 ISZERO PUSH3 0xDE JUMPI PUSH0 DUP1 REVERT JUMPDEST POP PUSH3 0xE9 PUSH3 0x57A JUMP JUMPDEST PUSH1 0x40 MLOAD PUSH3 0xF8 SWAP2 SWAP1 PUSH3 0x926 JUMP JUMPDEST PUSH1 0x40 MLOAD DUP1 SWAP2 SUB SWAP1 RETURN JUMPDEST PUSH1 0x40 MLOAD DUP1 PUSH1 0x40 ADD PUSH1 0x40 MSTORE DUP1 PUSH1 0x15 DUP2 MSTORE PUSH1 0x20 ADD PUSH32 0x4372656174652073746F726520636F6E74726163740000000000000000000000 DUP2 MSTORE POP PUSH0 DUP1 SLOAD SWAP1 PUSH2 0x100 EXP SWAP1 DIV PUSH20 0xFFFFFFFFFFFFFFFFFFFFFFFFFFFFFFFFFFFFFFFF AND PUSH20 0xFFFFFFFFFFFFFFFFFFFFFFFFFFFFFFFFFFFFFFFF AND CALLER PUSH20 0xFFFFFFFFFFFFFFFFFFFFFFFFFFFFFFFFFFFFFFFF AND EQ DUP2 PUSH1 0x40 MLOAD PUSH1 0x20 ADD PUSH3 0x198 SWAP2 SWAP1 PUSH3 0xA0A JUMP JUMPDEST PUSH1 0x40 MLOAD PUSH1 0x20 DUP2 DUP4 SUB SUB DUP2 MSTORE SWAP1 PUSH1 0x40 MSTORE SWAP1 PUSH3 0x1EB JUMPI PUSH1 0x40 MLOAD PUSH32 0x8C379A000000000000000000000000000000000000000000000000000000000 DUP2 MSTORE PUSH1 0x4 ADD PUSH3 0x1E2 SWAP2 SWAP1 PUSH3 0xA7F JUMP JUMPDEST PUSH1 0x40 MLOAD DUP1 SWAP2 SUB SWAP1 REVERT JUMPDEST POP POP JUMP JUMPDEST PUSH1 0x40 MLOAD DUP1 PUSH1 0x40 ADD PUSH1 0x40 MSTORE DUP1 PUSH1 0x4 DUP2 MSTORE PUSH1 0x20 ADD PUSH32 0x496E697400000000000000000000000000000000000000000000000000000000 DUP2 MSTORE POP PUSH0 DUP1 SLOAD SWAP1 PUSH2 0x100 EXP SWAP1 DIV PUSH20 0xFFFFFFFFFFFFFFFFFFFFFFFFFFFFFFFFFFFFFFFF AND PUSH20 0xFFFFFFFFFFFFFFFFFFFFFFFFFFFFFFFFFFFFFFFF AND CALLER PUSH20 0xFFFFFFFFFFFFFFFFFFFFFFFFFFFFFFFFFFFFFFFF AND EQ DUP2 PUSH1 0x40 MLOAD PUSH1 0x20 ADD PUSH3 0x286 SWAP2 SWAP1 PUSH3 0xA0A JUMP JUMPDEST PUSH1 0x40 MLOAD PUSH1 0x20 DUP2 DUP4 SUB SUB DUP2 MSTORE SWAP1 PUSH1 0x40 MSTORE SWAP1 PUSH3 0x2D9 JUMPI PUSH1 0x40 MLOAD PUSH32 0x8C379A000000000000000000000000000000000000000000000000000000000 DUP2 MSTORE PUSH1 0x4 ADD PUSH3 0x2D0 SWAP2 SWAP1 PUSH3 0xA7F JUMP JUMPDEST PUSH1 0x40 MLOAD DUP1 SWAP2 SUB SWAP1 REVERT JUMPDEST POP PUSH0 DUP4 DUP4 PUSH1 0x40 MLOAD PUSH3 0x2EB SWAP1 PUSH3 0x607 JUMP JUMPDEST PUSH3 0x2F8 SWAP3 SWAP2 SWAP1 PUSH3 0xAA1 JUMP JUMPDEST PUSH1 0x40 MLOAD DUP1 SWAP2 SUB SWAP1 PUSH0 CREATE DUP1 ISZERO DUP1 ISZERO PUSH3 0x312 JUMPI RETURNDATASIZE PUSH0 DUP1 RETURNDATACOPY RETURNDATASIZE PUSH0 REVERT JUMPDEST POP SWAP1 POP PUSH1 0x1 DUP2 SWAP1 DUP1 PUSH1 0x1 DUP2 SLOAD ADD DUP1 DUP3 SSTORE DUP1 SWAP2 POP POP PUSH1 0x1 SWAP1 SUB SWAP1 PUSH0 MSTORE PUSH1 0x20 PUSH0 KECCAK256 ADD PUSH0 SWAP1 SWAP2 SWAP1 SWAP2 SWAP1 SWAP2 PUSH2 0x100 EXP DUP2 SLOAD DUP2 PUSH20 0xFFFFFFFFFFFFFFFFFFFFFFFFFFFFFFFFFFFFFFFF MUL NOT AND SWAP1 DUP4 PUSH20 0xFFFFFFFFFFFFFFFFFFFFFFFFFFFFFFFFFFFFFFFF AND MUL OR SWAP1 SSTORE POP POP POP POP POP JUMP JUMPDEST PUSH0 DUP1 SLOAD SWAP1 PUSH2 0x100 EXP SWAP1 DIV PUSH20 0xFFFFFFFFFFFFFFFFFFFFFFFFFFFFFFFFFFFFFFFF AND DUP2 JUMP JUMPDEST PUSH1 0x40 MLOAD DUP1 PUSH1 0x40 ADD PUSH1 0x40 MSTORE DUP1 PUSH1 0x15 DUP2 MSTORE PUSH1 0x20 ADD PUSH32 0x43726561746520537461746520636F6E74726163740000000000000000000000 DUP2 MSTORE POP PUSH0 DUP1 SLOAD SWAP1 PUSH2 0x100 EXP SWAP1 DIV PUSH20 0xFFFFFFFFFFFFFFFFFFFFFFFFFFFFFFFFFFFFFFFF AND PUSH20 0xFFFFFFFFFFFFFFFFFFFFFFFFFFFFFFFFFFFFFFFF AND CALLER PUSH20 0xFFFFFFFFFFFFFFFFFFFFFFFFFFFFFFFFFFFFFFFF AND EQ DUP2 PUSH1 0x40 MLOAD PUSH1 0x20 ADD PUSH3 0x435 SWAP2 SWAP1 PUSH3 0xA0A JUMP JUMPDEST PUSH1 0x40 MLOAD PUSH1 0x20 DUP2 DUP4 SUB SUB DUP2 MSTORE SWAP1 PUSH1 0x40 MSTORE SWAP1 PUSH3 0x488 JUMPI PUSH1 0x40 MLOAD PUSH32 0x8C379A000000000000000000000000000000000000000000000000000000000 DUP2 MSTORE PUSH1 0x4 ADD PUSH3 0x47F SWAP2 SWAP1 PUSH3 0xA7F JUMP JUMPDEST PUSH1 0x40 MLOAD DUP1 SWAP2 SUB SWAP1 REVERT JUMPDEST POP POP JUMP JUMPDEST PUSH1 0x40 MLOAD DUP1 PUSH1 0x40 ADD PUSH1 0x40 MSTORE DUP1 PUSH1 0x14 DUP2 MSTORE PUSH1 0x20 ADD PUSH32 0x43726561746520506F6F6C20636F6E7472616374000000000000000000000000 DUP2 MSTORE POP PUSH0 DUP1 SLOAD SWAP1 PUSH2 0x100 EXP SWAP1 DIV PUSH20 0xFFFFFFFFFFFFFFFFFFFFFFFFFFFFFFFFFFFFFFFF AND PUSH20 0xFFFFFFFFFFFFFFFFFFFFFFFFFFFFFFFFFFFFFFFF AND CALLER PUSH20 0xFFFFFFFFFFFFFFFFFFFFFFFFFFFFFFFFFFFFFFFF AND EQ DUP2 PUSH1 0x40 MLOAD PUSH1 0x20 ADD PUSH3 0x523 SWAP2 SWAP1 PUSH3 0xA0A JUMP JUMPDEST PUSH1 0x40 MLOAD PUSH1 0x20 DUP2 DUP4 SUB SUB DUP2 MSTORE SWAP1 PUSH1 0x40 MSTORE SWAP1 PUSH3 0x576 JUMPI PUSH1 0x40 MLOAD PUSH32 0x8C379A000000000000000000000000000000000000000000000000000000000 DUP2 MSTORE PUSH1 0x4 ADD PUSH3 0x56D SWAP2 SWAP1 PUSH3 0xA7F JUMP JUMPDEST PUSH1 0x40 MLOAD DUP1 SWAP2 SUB SWAP1 REVERT JUMPDEST POP POP JUMP JUMPDEST PUSH1 0x60 PUSH1 0x1 DUP1 SLOAD DUP1 PUSH1 0x20 MUL PUSH1 0x20 ADD PUSH1 0x40 MLOAD SWAP1 DUP2 ADD PUSH1 0x40 MSTORE DUP1 SWAP3 SWAP2 SWAP1 DUP2 DUP2 MSTORE PUSH1 0x20 ADD DUP3 DUP1 SLOAD DUP1 ISZERO PUSH3 0x5FD JUMPI PUSH1 0x20 MUL DUP3 ADD SWAP2 SWAP1 PUSH0 MSTORE PUSH1 0x20 PUSH0 KECCAK256 SWAP1 JUMPDEST DUP2 PUSH0 SWAP1 SLOAD SWAP1 PUSH2 0x100 EXP SWAP1 DIV PUSH20 0xFFFFFFFFFFFFFFFFFFFFFFFFFFFFFFFFFFFFFFFF AND PUSH20 0xFFFFFFFFFFFFFFFFFFFFFFFFFFFFFFFFFFFFFFFF AND DUP2 MSTORE PUSH1 0x20 ADD SWAP1 PUSH1 0x1 ADD SWAP1 DUP1 DUP4 GT PUSH3 0x5B3 JUMPI JUMPDEST POP POP POP POP POP SWAP1 POP SWAP1 JUMP JUMPDEST PUSH2 0x9DB DUP1 PUSH3 0xADB DUP4 CODECOPY ADD SWAP1 JUMP JUMPDEST PUSH0 PUSH1 0x40 MLOAD SWAP1 POP SWAP1 JUMP JUMPDEST PUSH0 DUP1 REVERT JUMPDEST PUSH0 DUP1 REVERT JUMPDEST PUSH0 DUP1 REVERT JUMPDEST PUSH0 DUP1 REVERT JUMPDEST PUSH0 PUSH1 0x1F NOT PUSH1 0x1F DUP4 ADD AND SWAP1 POP SWAP2 SWAP1 POP JUMP JUMPDEST PUSH32 0x4E487B7100000000000000000000000000000000000000000000000000000000 PUSH0 MSTORE PUSH1 0x41 PUSH1 0x4 MSTORE PUSH1 0x24 PUSH0 REVERT JUMPDEST PUSH3 0x676 DUP3 PUSH3 0x62E JUMP JUMPDEST DUP2 ADD DUP2 DUP2 LT PUSH8 0xFFFFFFFFFFFFFFFF DUP3 GT OR ISZERO PUSH3 0x698 JUMPI PUSH3 0x697 PUSH3 0x63E JUMP JUMPDEST JUMPDEST DUP1 PUSH1 0x40 MSTORE POP POP POP JUMP JUMPDEST PUSH0 PUSH3 0x6AC PUSH3 0x615 JUMP JUMPDEST SWAP1 POP PUSH3 0x6BA DUP3 DUP3 PUSH3 0x66B JUMP JUMPDEST SWAP2 SWAP1 POP JUMP JUMPDEST PUSH0 PUSH8 0xFFFFFFFFFFFFFFFF DUP3 GT ISZERO PUSH3 0x6DC JUMPI PUSH3 0x6DB PUSH3 0x63E JUMP JUMPDEST JUMPDEST PUSH3 0x6E7 DUP3 PUSH3 0x62E JUMP JUMPDEST SWAP1 POP PUSH1 0x20 DUP2 ADD SWAP1 POP SWAP2 SWAP1 POP JUMP JUMPDEST DUP3 DUP2 DUP4 CALLDATACOPY PUSH0 DUP4 DUP4 ADD MSTORE POP POP POP JUMP JUMPDEST PUSH0 PUSH3 0x718 PUSH3 0x712 DUP5 PUSH3 0x6BF JUMP JUMPDEST PUSH3 0x6A1 JUMP JUMPDEST SWAP1 POP DUP3 DUP2 MSTORE PUSH1 0x20 DUP2 ADD DUP5 DUP5 DUP5 ADD GT ISZERO PUSH3 0x737 JUMPI PUSH3 0x736 PUSH3 0x62A JUMP JUMPDEST JUMPDEST PUSH3 0x744 DUP5 DUP3 DUP6 PUSH3 0x6F4 JUMP JUMPDEST POP SWAP4 SWAP3 POP POP POP JUMP JUMPDEST PUSH0 DUP3 PUSH1 0x1F DUP4 ADD SLT PUSH3 0x763 JUMPI PUSH3 0x762 PUSH3 0x626 JUMP JUMPDEST JUMPDEST DUP2 CALLDATALOAD PUSH3 0x775 DUP5 DUP3 PUSH1 0x20 DUP7 ADD PUSH3 0x702 JUMP JUMPDEST SWAP2 POP POP SWAP3 SWAP2 POP POP JUMP JUMPDEST PUSH0 DUP1 PUSH1 0x40 DUP4 DUP6 SUB SLT ISZERO PUSH3 0x797 JUMPI PUSH3 0x796 PUSH3 0x61E JUMP JUMPDEST JUMPDEST PUSH0 DUP4 ADD CALLDATALOAD PUSH8 0xFFFFFFFFFFFFFFFF DUP2 GT ISZERO PUSH3 0x7B7 JUMPI PUSH3 0x7B6 PUSH3 0x622 JUMP JUMPDEST JUMPDEST PUSH3 0x7C5 DUP6 DUP3 DUP7 ADD PUSH3 0x74C JUMP JUMPDEST SWAP3 POP POP PUSH1 0x20 DUP4 ADD CALLDATALOAD PUSH8 0xFFFFFFFFFFFFFFFF DUP2 GT ISZERO PUSH3 0x7E9 JUMPI PUSH3 0x7E8 PUSH3 0x622 JUMP JUMPDEST JUMPDEST PUSH3 0x7F7 DUP6 DUP3 DUP7 ADD PUSH3 0x74C JUMP JUMPDEST SWAP2 POP POP SWAP3 POP SWAP3 SWAP1 POP JUMP JUMPDEST PUSH0 PUSH20 0xFFFFFFFFFFFFFFFFFFFFFFFFFFFFFFFFFFFFFFFF DUP3 AND SWAP1 POP SWAP2 SWAP1 POP JUMP JUMPDEST PUSH0 PUSH3 0x82C DUP3 PUSH3 0x801 JUMP JUMPDEST SWAP1 POP SWAP2 SWAP1 POP JUMP JUMPDEST PUSH3 0x83E DUP2 PUSH3 0x820 JUMP JUMPDEST DUP3 MSTORE POP POP JUMP JUMPDEST PUSH0 PUSH1 0x20 DUP3 ADD SWAP1 POP PUSH3 0x859 PUSH0 DUP4 ADD DUP5 PUSH3 0x833 JUMP JUMPDEST SWAP3 SWAP2 POP POP JUMP JUMPDEST PUSH0 DUP2 MLOAD SWAP1 POP SWAP2 SWAP1 POP JUMP JUMPDEST PUSH0 DUP3 DUP3 MSTORE PUSH1 0x20 DUP3 ADD SWAP1 POP SWAP3 SWAP2 POP POP JUMP JUMPDEST PUSH0 DUP2 SWAP1 POP PUSH1 0x20 DUP3 ADD SWAP1 POP SWAP2 SWAP1 POP JUMP JUMPDEST PUSH3 0x893 DUP2 PUSH3 0x820 JUMP JUMPDEST DUP3 MSTORE POP POP JUMP JUMPDEST PUSH0 PUSH3 0x8A6 DUP4 DUP4 PUSH3 0x888 JUMP JUMPDEST PUSH1 0x20 DUP4 ADD SWAP1 POP SWAP3 SWAP2 POP POP JUMP JUMPDEST PUSH0 PUSH1 0x20 DUP3 ADD SWAP1 POP SWAP2 SWAP1 POP JUMP JUMPDEST PUSH0 PUSH3 0x8CA DUP3 PUSH3 0x85F JUMP JUMPDEST PUSH3 0x8D6 DUP2 DUP6 PUSH3 0x869 JUMP JUMPDEST SWAP4 POP PUSH3 0x8E3 DUP4 PUSH3 0x879 JUMP JUMPDEST DUP1 PUSH0 JUMPDEST DUP4 DUP2 LT ISZERO PUSH3 0x919 JUMPI DUP2 MLOAD PUSH3 0x8FD DUP9 DUP3 PUSH3 0x899 JUMP JUMPDEST SWAP8 POP PUSH3 0x90A DUP4 PUSH3 0x8B2 JUMP JUMPDEST SWAP3 POP POP PUSH1 0x1 DUP2 ADD SWAP1 POP PUSH3 0x8E6 JUMP JUMPDEST POP DUP6 SWAP4 POP POP POP POP SWAP3 SWAP2 POP POP JUMP JUMPDEST PUSH0 PUSH1 0x20 DUP3 ADD SWAP1 POP DUP2 DUP2 SUB PUSH0 DUP4 ADD MSTORE PUSH3 0x940 DUP2 DUP5 PUSH3 0x8BE JUMP JUMPDEST SWAP1 POP SWAP3 SWAP2 POP POP JUMP JUMPDEST PUSH0 DUP2 SWAP1 POP SWAP3 SWAP2 POP POP JUMP JUMPDEST PUSH32 0x4F6E6C7920636F6E7472616374206F776E65722063616E000000000000000000 PUSH0 DUP3 ADD MSTORE POP JUMP JUMPDEST PUSH0 PUSH3 0x988 PUSH1 0x17 DUP4 PUSH3 0x948 JUMP JUMPDEST SWAP2 POP PUSH3 0x995 DUP3 PUSH3 0x952 JUMP JUMPDEST PUSH1 0x17 DUP3 ADD SWAP1 POP SWAP2 SWAP1 POP JUMP JUMPDEST PUSH0 DUP2 MLOAD SWAP1 POP SWAP2 SWAP1 POP JUMP JUMPDEST PUSH0 JUMPDEST DUP4 DUP2 LT ISZERO PUSH3 0x9C9 JUMPI DUP1 DUP3 ADD MLOAD DUP2 DUP5 ADD MSTORE PUSH1 0x20 DUP2 ADD SWAP1 POP PUSH3 0x9AC JUMP JUMPDEST PUSH0 DUP5 DUP5 ADD MSTORE POP POP POP POP JUMP JUMPDEST PUSH0 PUSH3 0x9E0 DUP3 PUSH3 0x9A0 JUMP JUMPDEST PUSH3 0x9EC DUP2 DUP6 PUSH3 0x948 JUMP JUMPDEST SWAP4 POP PUSH3 0x9FE DUP2 DUP6 PUSH1 0x20 DUP7 ADD PUSH3 0x9AA JUMP JUMPDEST DUP1 DUP5 ADD SWAP2 POP POP SWAP3 SWAP2 POP POP JUMP JUMPDEST PUSH0 PUSH3 0xA16 DUP3 PUSH3 0x97A JUMP JUMPDEST SWAP2 POP PUSH3 0xA24 DUP3 DUP5 PUSH3 0x9D4 JUMP JUMPDEST SWAP2 POP DUP2 SWAP1 POP SWAP3 SWAP2 POP POP JUMP JUMPDEST PUSH0 DUP3 DUP3 MSTORE PUSH1 0x20 DUP3 ADD SWAP1 POP SWAP3 SWAP2 POP POP JUMP JUMPDEST PUSH0 PUSH3 0xA4B DUP3 PUSH3 0x9A0 JUMP JUMPDEST PUSH3 0xA57 DUP2 DUP6 PUSH3 0xA2F JUMP JUMPDEST SWAP4 POP PUSH3 0xA69 DUP2 DUP6 PUSH1 0x20 DUP7 ADD PUSH3 0x9AA JUMP JUMPDEST PUSH3 0xA74 DUP2 PUSH3 0x62E JUMP JUMPDEST DUP5 ADD SWAP2 POP POP SWAP3 SWAP2 POP POP JUMP JUMPDEST PUSH0 PUSH1 0x20 DUP3 ADD SWAP1 POP DUP2 DUP2 SUB PUSH0 DUP4 ADD MSTORE PUSH3 0xA99 DUP2 DUP5 PUSH3 0xA3F JUMP JUMPDEST SWAP1 POP SWAP3 SWAP2 POP POP JUMP JUMPDEST PUSH0 PUSH1 0x40 DUP3 ADD SWAP1 POP DUP2 DUP2 SUB PUSH0 DUP4 ADD MSTORE PUSH3 0xABB DUP2 DUP6 PUSH3 0xA3F JUMP JUMPDEST SWAP1 POP DUP2 DUP2 SUB PUSH1 0x20 DUP4 ADD MSTORE PUSH3 0xAD1 DUP2 DUP5 PUSH3 0xA3F JUMP JUMPDEST SWAP1 POP SWAP4 SWAP3 POP POP POP JUMP INVALID PUSH1 0x80 PUSH1 0x40 MSTORE CALLVALUE DUP1 ISZERO PUSH3 0x10 JUMPI PUSH0 DUP1 REVERT JUMPDEST POP PUSH1 0x40 MLOAD PUSH3 0x9DB CODESIZE SUB DUP1 PUSH3 0x9DB DUP4 CODECOPY DUP2 DUP2 ADD PUSH1 0x40 MSTORE DUP2 ADD SWAP1 PUSH3 0x36 SWAP2 SWAP1 PUSH3 0x1E6 JUMP JUMPDEST DUP2 PUSH0 SWAP1 DUP2 PUSH3 0x46 SWAP2 SWAP1 PUSH3 0x4A0 JUMP JUMPDEST POP DUP1 PUSH1 0x1 SWAP1 DUP2 PUSH3 0x58 SWAP2 SWAP1 PUSH3 0x4A0 JUMP JUMPDEST POP POP POP PUSH3 0x584 JUMP JUMPDEST PUSH0 PUSH1 0x40 MLOAD SWAP1 POP SWAP1 JUMP JUMPDEST PUSH0 DUP1 REVERT JUMPDEST PUSH0 DUP1 REVERT JUMPDEST PUSH0 DUP1 REVERT JUMPDEST PUSH0 DUP1 REVERT JUMPDEST PUSH0 PUSH1 0x1F NOT PUSH1 0x1F DUP4 ADD AND SWAP1 POP SWAP2 SWAP1 POP JUMP JUMPDEST PUSH32 0x4E487B7100000000000000000000000000000000000000000000000000000000 PUSH0 MSTORE PUSH1 0x41 PUSH1 0x4 MSTORE PUSH1 0x24 PUSH0 REVERT JUMPDEST PUSH3 0xC2 DUP3 PUSH3 0x7A JUMP JUMPDEST DUP2 ADD DUP2 DUP2 LT PUSH8 0xFFFFFFFFFFFFFFFF DUP3 GT OR ISZERO PUSH3 0xE4 JUMPI PUSH3 0xE3 PUSH3 0x8A JUMP JUMPDEST JUMPDEST DUP1 PUSH1 0x40 MSTORE POP POP POP JUMP JUMPDEST PUSH0 PUSH3 0xF8 PUSH3 0x61 JUMP JUMPDEST SWAP1 POP PUSH3 0x106 DUP3 DUP3 PUSH3 0xB7 JUMP JUMPDEST SWAP2 SWAP1 POP JUMP JUMPDEST PUSH0 PUSH8 0xFFFFFFFFFFFFFFFF DUP3 GT ISZERO PUSH3 0x128 JUMPI PUSH3 0x127 PUSH3 0x8A JUMP JUMPDEST JUMPDEST PUSH3 0x133 DUP3 PUSH3 0x7A JUMP JUMPDEST SWAP1 POP PUSH1 0x20 DUP2 ADD SWAP1 POP SWAP2 SWAP1 POP JUMP JUMPDEST PUSH0 JUMPDEST DUP4 DUP2 LT ISZERO PUSH3 0x15F JUMPI DUP1 DUP3 ADD MLOAD DUP2 DUP5 ADD MSTORE PUSH1 0x20 DUP2 ADD SWAP1 POP PUSH3 0x142 JUMP JUMPDEST PUSH0 DUP5 DUP5 ADD MSTORE POP POP POP POP JUMP JUMPDEST PUSH0 PUSH3 0x180 PUSH3 0x17A DUP5 PUSH3 0x10B JUMP JUMPDEST PUSH3 0xED JUMP JUMPDEST SWAP1 POP DUP3 DUP2 MSTORE PUSH1 0x20 DUP2 ADD DUP5 DUP5 DUP5 ADD GT ISZERO PUSH3 0x19F JUMPI PUSH3 0x19E PUSH3 0x76 JUMP JUMPDEST JUMPDEST PUSH3 0x1AC DUP5 DUP3 DUP6 PUSH3 0x140 JUMP JUMPDEST POP SWAP4 SWAP3 POP POP POP JUMP JUMPDEST PUSH0 DUP3 PUSH1 0x1F DUP4 ADD SLT PUSH3 0x1CB JUMPI PUSH3 0x1CA PUSH3 0x72 JUMP JUMPDEST JUMPDEST DUP2 MLOAD PUSH3 0x1DD DUP5 DUP3 PUSH1 0x20 DUP7 ADD PUSH3 0x16A JUMP JUMPDEST SWAP2 POP POP SWAP3 SWAP2 POP POP JUMP JUMPDEST PUSH0 DUP1 PUSH1 0x40 DUP4 DUP6 SUB SLT ISZERO PUSH3 0x1FF JUMPI PUSH3 0x1FE PUSH3 0x6A JUMP JUMPDEST JUMPDEST PUSH0 DUP4 ADD MLOAD PUSH8 0xFFFFFFFFFFFFFFFF DUP2 GT ISZERO PUSH3 0x21F JUMPI PUSH3 0x21E PUSH3 0x6E JUMP JUMPDEST JUMPDEST PUSH3 0x22D DUP6 DUP3 DUP7 ADD PUSH3 0x1B4 JUMP JUMPDEST SWAP3 POP POP PUSH1 0x20 DUP4 ADD MLOAD PUSH8 0xFFFFFFFFFFFFFFFF DUP2 GT ISZERO PUSH3 0x251 JUMPI PUSH3 0x250 PUSH3 0x6E JUMP JUMPDEST JUMPDEST PUSH3 0x25F DUP6 DUP3 DUP7 ADD PUSH3 0x1B4 JUMP JUMPDEST SWAP2 POP POP SWAP3 POP SWAP3 SWAP1 POP JUMP JUMPDEST PUSH0 DUP2 MLOAD SWAP1 POP SWAP2 SWAP1 POP JUMP JUMPDEST PUSH32 0x4E487B7100000000000000000000000000000000000000000000000000000000 PUSH0 MSTORE PUSH1 0x22 PUSH1 0x4 MSTORE PUSH1 0x24 PUSH0 REVERT JUMPDEST PUSH0 PUSH1 0x2 DUP3 DIV SWAP1 POP PUSH1 0x1 DUP3 AND DUP1 PUSH3 0x2B8 JUMPI PUSH1 0x7F DUP3 AND SWAP2 POP JUMPDEST PUSH1 0x20 DUP3 LT DUP2 SUB PUSH3 0x2CE JUMPI PUSH3 0x2CD PUSH3 0x273 JUMP JUMPDEST JUMPDEST POP SWAP2 SWAP1 POP JUMP JUMPDEST PUSH0 DUP2 SWAP1 POP DUP2 PUSH0 MSTORE PUSH1 0x20 PUSH0 KECCAK256 SWAP1 POP SWAP2 SWAP1 POP JUMP JUMPDEST PUSH0 PUSH1 0x20 PUSH1 0x1F DUP4 ADD DIV SWAP1 POP SWAP2 SWAP1 POP JUMP JUMPDEST PUSH0 DUP3 DUP3 SHL SWAP1 POP SWAP3 SWAP2 POP POP JUMP JUMPDEST PUSH0 PUSH1 0x8 DUP4 MUL PUSH3 0x332 PUSH32 0xFFFFFFFFFFFFFFFFFFFFFFFFFFFFFFFFFFFFFFFFFFFFFFFFFFFFFFFFFFFFFFFF DUP3 PUSH3 0x2F5 JUMP JUMPDEST PUSH3 0x33E DUP7 DUP4 PUSH3 0x2F5 JUMP JUMPDEST SWAP6 POP DUP1 NOT DUP5 AND SWAP4 POP DUP1 DUP7 AND DUP5 OR SWAP3 POP POP POP SWAP4 SWAP3 POP POP POP JUMP JUMPDEST PUSH0 DUP2 SWAP1 POP SWAP2 SWAP1 POP JUMP JUMPDEST PUSH0 DUP2 SWAP1 POP SWAP2 SWAP1 POP JUMP JUMPDEST PUSH0 PUSH3 0x388 PUSH3 0x382 PUSH3 0x37C DUP5 PUSH3 0x356 JUMP JUMPDEST PUSH3 0x35F JUMP JUMPDEST PUSH3 0x356 JUMP JUMPDEST SWAP1 POP SWAP2 SWAP1 POP JUMP JUMPDEST PUSH0 DUP2 SWAP1 POP SWAP2 SWAP1 POP JUMP JUMPDEST PUSH3 0x3A3 DUP4 PUSH3 0x368 JUMP JUMPDEST PUSH3 0x3BB PUSH3 0x3B2 DUP3 PUSH3 0x38F JUMP JUMPDEST DUP5 DUP5 SLOAD PUSH3 0x301 JUMP JUMPDEST DUP3 SSTORE POP POP POP POP JUMP JUMPDEST PUSH0 SWAP1 JUMP JUMPDEST PUSH3 0x3D1 PUSH3 0x3C3 JUMP JUMPDEST PUSH3 0x3DE DUP2 DUP5 DUP5 PUSH3 0x398 JUMP JUMPDEST POP POP POP JUMP JUMPDEST JUMPDEST DUP2 DUP2 LT ISZERO PUSH3 0x405 JUMPI PUSH3 0x3F9 PUSH0 DUP3 PUSH3 0x3C7 JUMP JUMPDEST PUSH1 0x1 DUP2 ADD SWAP1 POP PUSH3 0x3E4 JUMP JUMPDEST POP POP JUMP JUMPDEST PUSH1 0x1F DUP3 GT ISZERO PUSH3 0x454 JUMPI PUSH3 0x41E DUP2 PUSH3 0x2D4 JUMP JUMPDEST PUSH3 0x429 DUP5 PUSH3 0x2E6 JUMP JUMPDEST DUP2 ADD PUSH1 0x20 DUP6 LT ISZERO PUSH3 0x439 JUMPI DUP2 SWAP1 POP JUMPDEST PUSH3 0x451 PUSH3 0x448 DUP6 PUSH3 0x2E6 JUMP JUMPDEST DUP4 ADD DUP3 PUSH3 0x3E3 JUMP JUMPDEST POP POP JUMPDEST POP POP POP JUMP JUMPDEST PUSH0 DUP3 DUP3 SHR SWAP1 POP SWAP3 SWAP2 POP POP JUMP JUMPDEST PUSH0 PUSH3 0x476 PUSH0 NOT DUP5 PUSH1 0x8 MUL PUSH3 0x459 JUMP JUMPDEST NOT DUP1 DUP4 AND SWAP2 POP POP SWAP3 SWAP2 POP POP JUMP JUMPDEST PUSH0 PUSH3 0x490 DUP4 DUP4 PUSH3 0x465 JUMP JUMPDEST SWAP2 POP DUP3 PUSH1 0x2 MUL DUP3 OR SWAP1 POP SWAP3 SWAP2 POP POP JUMP JUMPDEST PUSH3 0x4AB DUP3 PUSH3 0x269 JUMP JUMPDEST PUSH8 0xFFFFFFFFFFFFFFFF DUP2 GT ISZERO PUSH3 0x4C7 JUMPI PUSH3 0x4C6 PUSH3 0x8A JUMP JUMPDEST JUMPDEST PUSH3 0x4D3 DUP3 SLOAD PUSH3 0x2A0 JUMP JUMPDEST PUSH3 0x4E0 DUP3 DUP3 DUP6 PUSH3 0x409 JUMP JUMPDEST PUSH0 PUSH1 0x20 SWAP1 POP PUSH1 0x1F DUP4 GT PUSH1 0x1 DUP2 EQ PUSH3 0x516 JUMPI PUSH0 DUP5 ISZERO PUSH3 0x501 JUMPI DUP3 DUP8 ADD MLOAD SWAP1 POP JUMPDEST PUSH3 0x50D DUP6 DUP3 PUSH3 0x483 JUMP JUMPDEST DUP7 SSTORE POP PUSH3 0x57C JUMP JUMPDEST PUSH1 0x1F NOT DUP5 AND PUSH3 0x526 DUP7 PUSH3 0x2D4 JUMP JUMPDEST PUSH0 JUMPDEST DUP3 DUP2 LT ISZERO PUSH3 0x54F JUMPI DUP5 DUP10 ADD MLOAD DUP3 SSTORE PUSH1 0x1 DUP3 ADD SWAP2 POP PUSH1 0x20 DUP6 ADD SWAP5 POP PUSH1 0x20 DUP2 ADD SWAP1 POP PUSH3 0x528 JUMP JUMPDEST DUP7 DUP4 LT ISZERO PUSH3 0x56F JUMPI DUP5 DUP10 ADD MLOAD PUSH3 0x56B PUSH1 0x1F DUP10 AND DUP3 PUSH3 0x465 JUMP JUMPDEST DUP4 SSTORE POP JUMPDEST PUSH1 0x1 PUSH1 0x2 DUP9 MUL ADD DUP9 SSTORE POP POP POP JUMPDEST POP POP POP POP POP POP JUMP JUMPDEST PUSH2 0x449 DUP1 PUSH3 0x592 PUSH0 CODECOPY PUSH0 RETURN INVALID PUSH1 0x80 PUSH1 0x40 MSTORE CALLVALUE DUP1 ISZERO PUSH2 0xF JUMPI PUSH0 DUP1 REVERT JUMPDEST POP PUSH1 0x4 CALLDATASIZE LT PUSH2 0x3F JUMPI PUSH0 CALLDATALOAD PUSH1 0xE0 SHR DUP1 PUSH4 0x2402C982 EQ PUSH2 0x43 JUMPI DUP1 PUSH4 0x8C8D2EDE EQ PUSH2 0x62 JUMPI DUP1 PUSH4 0xE612C0AD EQ PUSH2 0x80 JUMPI JUMPDEST PUSH0 DUP1 REVERT JUMPDEST PUSH2 0x4B PUSH2 0x9E JUMP JUMPDEST PUSH1 0x40 MLOAD PUSH2 0x59 SWAP3 SWAP2 SWAP1 PUSH2 0x361 JUMP JUMPDEST PUSH1 0x40 MLOAD DUP1 SWAP2 SUB SWAP1 RETURN JUMPDEST PUSH2 0x6A PUSH2 0x1C0 JUMP JUMPDEST PUSH1 0x40 MLOAD PUSH2 0x77 SWAP2 SWAP1 PUSH2 0x396 JUMP JUMPDEST PUSH1 0x40 MLOAD DUP1 SWAP2 SUB SWAP1 RETURN JUMPDEST PUSH2 0x88 PUSH2 0x24B JUMP JUMPDEST PUSH1 0x40 MLOAD PUSH2 0x95 SWAP2 SWAP1 PUSH2 0x396 JUMP JUMPDEST PUSH1 0x40 MLOAD DUP1 SWAP2 SUB SWAP1 RETURN JUMPDEST PUSH1 0x60 DUP1 PUSH0 PUSH1 0x1 DUP2 DUP1 SLOAD PUSH2 0xB0 SWAP1 PUSH2 0x3E3 JUMP JUMPDEST DUP1 PUSH1 0x1F ADD PUSH1 0x20 DUP1 SWAP2 DIV MUL PUSH1 0x20 ADD PUSH1 0x40 MLOAD SWAP1 DUP2 ADD PUSH1 0x40 MSTORE DUP1 SWAP3 SWAP2 SWAP1 DUP2 DUP2 MSTORE PUSH1 0x20 ADD DUP3 DUP1 SLOAD PUSH2 0xDC SWAP1 PUSH2 0x3E3 JUMP JUMPDEST DUP1 ISZERO PUSH2 0x127 JUMPI DUP1 PUSH1 0x1F LT PUSH2 0xFE JUMPI PUSH2 0x100 DUP1 DUP4 SLOAD DIV MUL DUP4 MSTORE SWAP2 PUSH1 0x20 ADD SWAP2 PUSH2 0x127 JUMP JUMPDEST DUP3 ADD SWAP2 SWAP1 PUSH0 MSTORE PUSH1 0x20 PUSH0 KECCAK256 SWAP1 JUMPDEST DUP2 SLOAD DUP2 MSTORE SWAP1 PUSH1 0x1 ADD SWAP1 PUSH1 0x20 ADD DUP1 DUP4 GT PUSH2 0x10A JUMPI DUP3 SWAP1 SUB PUSH1 0x1F AND DUP3 ADD SWAP2 JUMPDEST POP POP POP POP POP SWAP2 POP DUP1 DUP1 SLOAD PUSH2 0x13A SWAP1 PUSH2 0x3E3 JUMP JUMPDEST DUP1 PUSH1 0x1F ADD PUSH1 0x20 DUP1 SWAP2 DIV MUL PUSH1 0x20 ADD PUSH1 0x40 MLOAD SWAP1 DUP2 ADD PUSH1 0x40 MSTORE DUP1 SWAP3 SWAP2 SWAP1 DUP2 DUP2 MSTORE PUSH1 0x20 ADD DUP3 DUP1 SLOAD PUSH2 0x166 SWAP1 PUSH2 0x3E3 JUMP JUMPDEST DUP1 ISZERO PUSH2 0x1B1 JUMPI DUP1 PUSH1 0x1F LT PUSH2 0x188 JUMPI PUSH2 0x100 DUP1 DUP4 SLOAD DIV MUL DUP4 MSTORE SWAP2 PUSH1 0x20 ADD SWAP2 PUSH2 0x1B1 JUMP JUMPDEST DUP3 ADD SWAP2 SWAP1 PUSH0 MSTORE PUSH1 0x20 PUSH0 KECCAK256 SWAP1 JUMPDEST DUP2 SLOAD DUP2 MSTORE SWAP1 PUSH1 0x1 ADD SWAP1 PUSH1 0x20 ADD DUP1 DUP4 GT PUSH2 0x194 JUMPI DUP3 SWAP1 SUB PUSH1 0x1F AND DUP3 ADD SWAP2 JUMPDEST POP POP POP POP POP SWAP1 POP SWAP2 POP SWAP2 POP SWAP1 SWAP2 JUMP JUMPDEST PUSH0 DUP1 SLOAD PUSH2 0x1CC SWAP1 PUSH2 0x3E3 JUMP JUMPDEST DUP1 PUSH1 0x1F ADD PUSH1 0x20 DUP1 SWAP2 DIV MUL PUSH1 0x20 ADD PUSH1 0x40 MLOAD SWAP1 DUP2 ADD PUSH1 0x40 MSTORE DUP1 SWAP3 SWAP2 SWAP1 DUP2 DUP2 MSTORE PUSH1 0x20 ADD DUP3 DUP1 SLOAD PUSH2 0x1F8 SWAP1 PUSH2 0x3E3 JUMP JUMPDEST DUP1 ISZERO PUSH2 0x243 JUMPI DUP1 PUSH1 0x1F LT PUSH2 0x21A JUMPI PUSH2 0x100 DUP1 DUP4 SLOAD DIV MUL DUP4 MSTORE SWAP2 PUSH1 0x20 ADD SWAP2 PUSH2 0x243 JUMP JUMPDEST DUP3 ADD SWAP2 SWAP1 PUSH0 MSTORE PUSH1 0x20 PUSH0 KECCAK256 SWAP1 JUMPDEST DUP2 SLOAD DUP2 MSTORE SWAP1 PUSH1 0x1 ADD SWAP1 PUSH1 0x20 ADD DUP1 DUP4 GT PUSH2 0x226 JUMPI DUP3 SWAP1 SUB PUSH1 0x1F AND DUP3 ADD SWAP2 JUMPDEST POP POP POP POP POP DUP2 JUMP JUMPDEST PUSH1 0x1 DUP1 SLOAD PUSH2 0x258 SWAP1 PUSH2 0x3E3 JUMP JUMPDEST DUP1 PUSH1 0x1F ADD PUSH1 0x20 DUP1 SWAP2 DIV MUL PUSH1 0x20 ADD PUSH1 0x40 MLOAD SWAP1 DUP2 ADD PUSH1 0x40 MSTORE DUP1 SWAP3 SWAP2 SWAP1 DUP2 DUP2 MSTORE PUSH1 0x20 ADD DUP3 DUP1 SLOAD PUSH2 0x284 SWAP1 PUSH2 0x3E3 JUMP JUMPDEST DUP1 ISZERO PUSH2 0x2CF JUMPI DUP1 PUSH1 0x1F LT PUSH2 0x2A6 JUMPI PUSH2 0x100 DUP1 DUP4 SLOAD DIV MUL DUP4 MSTORE SWAP2 PUSH1 0x20 ADD SWAP2 PUSH2 0x2CF JUMP JUMPDEST DUP3 ADD SWAP2 SWAP1 PUSH0 MSTORE PUSH1 0x20 PUSH0 KECCAK256 SWAP1 JUMPDEST DUP2 SLOAD DUP2 MSTORE SWAP1 PUSH1 0x1 ADD SWAP1 PUSH1 0x20 ADD DUP1 DUP4 GT PUSH2 0x2B2 JUMPI DUP3 SWAP1 SUB PUSH1 0x1F AND DUP3 ADD SWAP2 JUMPDEST POP POP POP POP POP DUP2 JUMP JUMPDEST PUSH0 DUP2 MLOAD SWAP1 POP SWAP2 SWAP1 POP JUMP JUMPDEST PUSH0 DUP3 DUP3 MSTORE PUSH1 0x20 DUP3 ADD SWAP1 POP SWAP3 SWAP2 POP POP JUMP JUMPDEST PUSH0 JUMPDEST DUP4 DUP2 LT ISZERO PUSH2 0x30E JUMPI DUP1 DUP3 ADD MLOAD DUP2 DUP5 ADD MSTORE PUSH1 0x20 DUP2 ADD SWAP1 POP PUSH2 0x2F3 JUMP JUMPDEST PUSH0 DUP5 DUP5 ADD MSTORE POP POP POP POP JUMP JUMPDEST PUSH0 PUSH1 0x1F NOT PUSH1 0x1F DUP4 ADD AND SWAP1 POP SWAP2 SWAP1 POP JUMP JUMPDEST PUSH0 PUSH2 0x333 DUP3 PUSH2 0x2D7 JUMP JUMPDEST PUSH2 0x33D DUP2 DUP6 PUSH2 0x2E1 JUMP JUMPDEST SWAP4 POP PUSH2 0x34D DUP2 DUP6 PUSH1 0x20 DUP7 ADD PUSH2 0x2F1 JUMP JUMPDEST PUSH2 0x356 DUP2 PUSH2 0x319 JUMP JUMPDEST DUP5 ADD SWAP2 POP POP SWAP3 SWAP2 POP POP JUMP JUMPDEST PUSH0 PUSH1 0x40 DUP3 ADD SWAP1 POP DUP2 DUP2 SUB PUSH0 DUP4 ADD MSTORE PUSH2 0x379 DUP2 DUP6 PUSH2 0x329 JUMP JUMPDEST SWAP1 POP DUP2 DUP2 SUB PUSH1 0x20 DUP4 ADD MSTORE PUSH2 0x38D DUP2 DUP5 PUSH2 0x329 JUMP JUMPDEST SWAP1 POP SWAP4 SWAP3 POP POP POP JUMP JUMPDEST PUSH0 PUSH1 0x20 DUP3 ADD SWAP1 POP DUP2 DUP2 SUB PUSH0 DUP4 ADD MSTORE PUSH2 0x3AE DUP2 DUP5 PUSH2 0x329 JUMP JUMPDEST SWAP1 POP SWAP3 SWAP2 POP POP JUMP JUMPDEST PUSH32 0x4E487B7100000000000000000000000000000000000000000000000000000000 PUSH0 MSTORE PUSH1 0x22 PUSH1 0x4 MSTORE PUSH1 0x24 PUSH0 REVERT JUMPDEST PUSH0 PUSH1 0x2 DUP3 DIV SWAP1 POP PUSH1 0x1 DUP3 AND DUP1 PUSH2 0x3FA JUMPI PUSH1 0x7F DUP3 AND SWAP2 POP JUMPDEST PUSH1 0x20 DUP3 LT DUP2 SUB PUSH2 0x40D JUMPI PUSH2 0x40C PUSH2 0x3B6 JUMP JUMPDEST JUMPDEST POP SWAP2 SWAP1 POP JUMP INVALID LOG2 PUSH5 0x6970667358 0x22 SLT KECCAK256 0x4C LT 0x28 DUP1 PUSH15 0xAD9B02AA5A872961093085B925A39C 0xB7 PUSH14 0xD9A9B08BE5316D20098964736F6C PUSH4 0x43000818 STOP CALLER LOG2 PUSH5 0x6970667358 0x22 SLT KECCAK256 MSIZE JUMP DUP6 CREATE 0xBE CODECOPY BLOCKHASH LOG3 SELFDESTRUCT 0x2D 0xB6 DUP4 EXP 0x23 PUSH18 0xE19FF3134E94F1E4AA49426021EC4E259964 PUSH20 0x6F6C634300081800330000000000000000000000 "
		},
		"gasEstimates": {
			"creation": {
				"codeDepositCost": "1071000",
				"executionCost": "25377",
				"totalCost": "1096377"
			},
			"external": {
				"create_fool()": "infinite",
				"create_state()": "infinite",
				"create_store()": "infinite",
				"get_states_address()": "infinite",
				"init(string,string)": "infinite",
				"owner()": "2527"
			}
		},
		"methodIdentifiers": {
			"create_fool()": "b033ea7d",
			"create_state()": "abc72c1c",
			"create_store()": "5dd3c46e",
			"get_states_address()": "d90dae19",
			"init(string,string)": "7029144c",
			"owner()": "8da5cb5b"
		}
	},
	"abi": [
		{
			"inputs": [],
			"stateMutability": "nonpayable",
			"type": "constructor"
		},
		{
			"inputs": [],
			"name": "create_fool",
			"outputs": [],
			"stateMutability": "payable",
			"type": "function"
		},
		{
			"inputs": [],
			"name": "create_state",
			"outputs": [],
			"stateMutability": "payable",
			"type": "function"
		},
		{
			"inputs": [],
			"name": "create_store",
			"outputs": [],
			"stateMutability": "payable",
			"type": "function"
		},
		{
			"inputs": [],
			"name": "get_states_address",
			"outputs": [
				{
					"internalType": "address[]",
					"name": "",
					"type": "address[]"
				}
			],
			"stateMutability": "view",
			"type": "function"
		},
		{
			"inputs": [
				{
					"internalType": "string",
					"name": "_team_name_1",
					"type": "string"
				},
				{
					"internalType": "string",
					"name": "_team_name_2",
					"type": "string"
				}
			],
			"name": "init",
			"outputs": [],
			"stateMutability": "payable",
			"type": "function"
		},
		{
			"inputs": [],
			"name": "owner",
			"outputs": [
				{
					"internalType": "address",
					"name": "",
					"type": "address"
				}
			],
			"stateMutability": "view",
			"type": "function"
		}
	]
}