{
	"src/state/StateSoccer.sol": {
		"StateSoccer": {
			"abi": [
				{
					"inputs": [
						{
							"internalType": "string",
							"name": "_team1",
							"type": "string"
						},
						{
							"internalType": "string",
							"name": "_team2",
							"type": "string"
						},
						{
							"internalType": "address[]",
							"name": "_composes",
							"type": "address[]"
						}
					],
					"stateMutability": "nonpayable",
					"type": "constructor"
				},
				{
					"inputs": [],
					"name": "get_compose",
					"outputs": [
						{
							"internalType": "address[]",
							"name": "",
							"type": "address[]"
						}
					],
					"stateMutability": "view",
					"type": "function"
				},
				{
					"inputs": [],
					"name": "get_names",
					"outputs": [
						{
							"internalType": "string",
							"name": "",
							"type": "string"
						},
						{
							"internalType": "string",
							"name": "",
							"type": "string"
						}
					],
					"stateMutability": "view",
					"type": "function"
				}
			],
			"devdoc": {
				"kind": "dev",
				"methods": {},
				"version": 1
			},
			"evm": {
				"assembly": "    /* \"src/state/StateSoccer.sol\":65:528  contract StateSoccer {... */\n  mstore(0x40, 0x80)\n    /* \"src/state/StateSoccer.sol\":171:326  constructor(string memory _team1, string memory _team2, address[] memory _composes) {... */\n  callvalue\n  dup1\n  iszero\n  tag_1\n  jumpi\n  0x00\n  dup1\n  revert\ntag_1:\n  pop\n  mload(0x40)\n  sub(codesize, bytecodeSize)\n  dup1\n  bytecodeSize\n  dup4\n  codecopy\n  dup2\n  dup2\n  add\n  0x40\n  mstore\n  dup2\n  add\n  swap1\n  tag_2\n  swap2\n  swap1\n  tag_3\n  jump\t// in\ntag_2:\n    /* \"src/state/StateSoccer.sol\":269:275  _team1 */\n  dup3\n    /* \"src/state/StateSoccer.sol\":261:266  team1 */\n  0x00\n    /* \"src/state/StateSoccer.sol\":261:275  team1 = _team1 */\n  swap1\n  dup2\n  tag_6\n  swap2\n  swap1\n  tag_7\n  jump\t// in\ntag_6:\n  pop\n    /* \"src/state/StateSoccer.sol\":289:295  _team2 */\n  dup2\n    /* \"src/state/StateSoccer.sol\":281:286  team2 */\n  0x01\n    /* \"src/state/StateSoccer.sol\":281:295  team2 = _team2 */\n  swap1\n  dup2\n  tag_8\n  swap2\n  swap1\n  tag_7\n  jump\t// in\ntag_8:\n  pop\n    /* \"src/state/StateSoccer.sol\":312:321  _composes */\n  dup1\n    /* \"src/state/StateSoccer.sol\":301:309  composes */\n  0x02\n    /* \"src/state/StateSoccer.sol\":301:321  composes = _composes */\n  swap1\n  dup1\n  mload\n  swap1\n  0x20\n  add\n  swap1\n  tag_9\n  swap3\n  swap2\n  swap1\n  tag_10\n  jump\t// in\ntag_9:\n  pop\n    /* \"src/state/StateSoccer.sol\":171:326  constructor(string memory _team1, string memory _team2, address[] memory _composes) {... */\n  pop\n  pop\n  pop\n    /* \"src/state/StateSoccer.sol\":65:528  contract StateSoccer {... */\n  jump(tag_11)\ntag_10:\n  dup3\n  dup1\n  sload\n  dup3\n  dup3\n  sstore\n  swap1\n  0x00\n  mstore\n  keccak256(0x00, 0x20)\n  swap1\n  dup2\n  add\n  swap3\n  dup3\n  iszero\n  tag_12\n  jumpi\n  swap2\n  0x20\n  mul\n  dup3\n  add\ntag_13:\n  dup3\n  dup2\n  gt\n  iszero\n  tag_14\n  jumpi\n  dup3\n  mload\n  dup3\n  exp(0x0100, 0x00)\n  dup2\n  sload\n  dup2\n  0xffffffffffffffffffffffffffffffffffffffff\n  mul\n  not\n  and\n  swap1\n  dup4\n  0xffffffffffffffffffffffffffffffffffffffff\n  and\n  mul\n  or\n  swap1\n  sstore\n  pop\n  swap2\n  0x20\n  add\n  swap2\n  swap1\n  0x01\n  add\n  swap1\n  jump(tag_13)\ntag_14:\ntag_12:\n  pop\n  swap1\n  pop\n  tag_15\n  swap2\n  swap1\n  tag_16\n  jump\t// in\ntag_15:\n  pop\n  swap1\n  jump\t// out\ntag_16:\ntag_17:\n  dup1\n  dup3\n  gt\n  iszero\n  tag_18\n  jumpi\n  0x00\n  dup2\n  0x00\n  swap1\n  sstore\n  pop\n  0x01\n  add\n  jump(tag_17)\ntag_18:\n  pop\n  swap1\n  jump\t// out\n    /* \"#utility.yul\":7:82   */\ntag_19:\n    /* \"#utility.yul\":40:46   */\n  0x00\n    /* \"#utility.yul\":73:75   */\n  0x40\n    /* \"#utility.yul\":67:76   */\n  mload\n    /* \"#utility.yul\":57:76   */\n  swap1\n  pop\n    /* \"#utility.yul\":7:82   */\n  swap1\n  jump\t// out\n    /* \"#utility.yul\":88:205   */\ntag_20:\n    /* \"#utility.yul\":197:198   */\n  0x00\n    /* \"#utility.yul\":194:195   */\n  dup1\n    /* \"#utility.yul\":187:199   */\n  revert\n    /* \"#utility.yul\":211:328   */\ntag_21:\n    /* \"#utility.yul\":320:321   */\n  0x00\n    /* \"#utility.yul\":317:318   */\n  dup1\n    /* \"#utility.yul\":310:322   */\n  revert\n    /* \"#utility.yul\":334:451   */\ntag_22:\n    /* \"#utility.yul\":443:444   */\n  0x00\n    /* \"#utility.yul\":440:441   */\n  dup1\n    /* \"#utility.yul\":433:445   */\n  revert\n    /* \"#utility.yul\":457:574   */\ntag_23:\n    /* \"#utility.yul\":566:567   */\n  0x00\n    /* \"#utility.yul\":563:564   */\n  dup1\n    /* \"#utility.yul\":556:568   */\n  revert\n    /* \"#utility.yul\":580:682   */\ntag_24:\n    /* \"#utility.yul\":621:627   */\n  0x00\n    /* \"#utility.yul\":672:674   */\n  0x1f\n    /* \"#utility.yul\":668:675   */\n  not\n    /* \"#utility.yul\":663:665   */\n  0x1f\n    /* \"#utility.yul\":656:661   */\n  dup4\n    /* \"#utility.yul\":652:666   */\n  add\n    /* \"#utility.yul\":648:676   */\n  and\n    /* \"#utility.yul\":638:676   */\n  swap1\n  pop\n    /* \"#utility.yul\":580:682   */\n  swap2\n  swap1\n  pop\n  jump\t// out\n    /* \"#utility.yul\":688:868   */\ntag_25:\n    /* \"#utility.yul\":736:813   */\n  0x4e487b7100000000000000000000000000000000000000000000000000000000\n    /* \"#utility.yul\":733:734   */\n  0x00\n    /* \"#utility.yul\":726:814   */\n  mstore\n    /* \"#utility.yul\":833:837   */\n  0x41\n    /* \"#utility.yul\":830:831   */\n  0x04\n    /* \"#utility.yul\":823:838   */\n  mstore\n    /* \"#utility.yul\":857:861   */\n  0x24\n    /* \"#utility.yul\":854:855   */\n  0x00\n    /* \"#utility.yul\":847:862   */\n  revert\n    /* \"#utility.yul\":874:1155   */\ntag_26:\n    /* \"#utility.yul\":957:984   */\n  tag_68\n    /* \"#utility.yul\":979:983   */\n  dup3\n    /* \"#utility.yul\":957:984   */\n  tag_24\n  jump\t// in\ntag_68:\n    /* \"#utility.yul\":949:955   */\n  dup2\n    /* \"#utility.yul\":945:985   */\n  add\n    /* \"#utility.yul\":1087:1093   */\n  dup2\n    /* \"#utility.yul\":1075:1085   */\n  dup2\n    /* \"#utility.yul\":1072:1094   */\n  lt\n    /* \"#utility.yul\":1051:1069   */\n  0xffffffffffffffff\n    /* \"#utility.yul\":1039:1049   */\n  dup3\n    /* \"#utility.yul\":1036:1070   */\n  gt\n    /* \"#utility.yul\":1033:1095   */\n  or\n    /* \"#utility.yul\":1030:1118   */\n  iszero\n  tag_69\n  jumpi\n    /* \"#utility.yul\":1098:1116   */\n  tag_70\n  tag_25\n  jump\t// in\ntag_70:\n    /* \"#utility.yul\":1030:1118   */\ntag_69:\n    /* \"#utility.yul\":1138:1148   */\n  dup1\n    /* \"#utility.yul\":1134:1136   */\n  0x40\n    /* \"#utility.yul\":1127:1149   */\n  mstore\n    /* \"#utility.yul\":917:1155   */\n  pop\n    /* \"#utility.yul\":874:1155   */\n  pop\n  pop\n  jump\t// out\n    /* \"#utility.yul\":1161:1290   */\ntag_27:\n    /* \"#utility.yul\":1195:1201   */\n  0x00\n    /* \"#utility.yul\":1222:1242   */\n  tag_72\n  tag_19\n  jump\t// in\ntag_72:\n    /* \"#utility.yul\":1212:1242   */\n  swap1\n  pop\n    /* \"#utility.yul\":1251:1284   */\n  tag_73\n    /* \"#utility.yul\":1279:1283   */\n  dup3\n    /* \"#utility.yul\":1271:1277   */\n  dup3\n    /* \"#utility.yul\":1251:1284   */\n  tag_26\n  jump\t// in\ntag_73:\n    /* \"#utility.yul\":1161:1290   */\n  swap2\n  swap1\n  pop\n  jump\t// out\n    /* \"#utility.yul\":1296:1604   */\ntag_28:\n    /* \"#utility.yul\":1358:1362   */\n  0x00\n    /* \"#utility.yul\":1448:1466   */\n  0xffffffffffffffff\n    /* \"#utility.yul\":1440:1446   */\n  dup3\n    /* \"#utility.yul\":1437:1467   */\n  gt\n    /* \"#utility.yul\":1434:1490   */\n  iszero\n  tag_75\n  jumpi\n    /* \"#utility.yul\":1470:1488   */\n  tag_76\n  tag_25\n  jump\t// in\ntag_76:\n    /* \"#utility.yul\":1434:1490   */\ntag_75:\n    /* \"#utility.yul\":1508:1537   */\n  tag_77\n    /* \"#utility.yul\":1530:1536   */\n  dup3\n    /* \"#utility.yul\":1508:1537   */\n  tag_24\n  jump\t// in\ntag_77:\n    /* \"#utility.yul\":1500:1537   */\n  swap1\n  pop\n    /* \"#utility.yul\":1592:1596   */\n  0x20\n    /* \"#utility.yul\":1586:1590   */\n  dup2\n    /* \"#utility.yul\":1582:1597   */\n  add\n    /* \"#utility.yul\":1574:1597   */\n  swap1\n  pop\n    /* \"#utility.yul\":1296:1604   */\n  swap2\n  swap1\n  pop\n  jump\t// out\n    /* \"#utility.yul\":1610:1856   */\ntag_29:\n    /* \"#utility.yul\":1691:1692   */\n  0x00\n    /* \"#utility.yul\":1701:1814   */\ntag_79:\n    /* \"#utility.yul\":1715:1721   */\n  dup4\n    /* \"#utility.yul\":1712:1713   */\n  dup2\n    /* \"#utility.yul\":1709:1722   */\n  lt\n    /* \"#utility.yul\":1701:1814   */\n  iszero\n  tag_81\n  jumpi\n    /* \"#utility.yul\":1800:1801   */\n  dup1\n    /* \"#utility.yul\":1795:1798   */\n  dup3\n    /* \"#utility.yul\":1791:1802   */\n  add\n    /* \"#utility.yul\":1785:1803   */\n  mload\n    /* \"#utility.yul\":1781:1782   */\n  dup2\n    /* \"#utility.yul\":1776:1779   */\n  dup5\n    /* \"#utility.yul\":1772:1783   */\n  add\n    /* \"#utility.yul\":1765:1804   */\n  mstore\n    /* \"#utility.yul\":1737:1739   */\n  0x20\n    /* \"#utility.yul\":1734:1735   */\n  dup2\n    /* \"#utility.yul\":1730:1740   */\n  add\n    /* \"#utility.yul\":1725:1740   */\n  swap1\n  pop\n    /* \"#utility.yul\":1701:1814   */\n  jump(tag_79)\ntag_81:\n    /* \"#utility.yul\":1848:1849   */\n  0x00\n    /* \"#utility.yul\":1839:1845   */\n  dup5\n    /* \"#utility.yul\":1834:1837   */\n  dup5\n    /* \"#utility.yul\":1830:1846   */\n  add\n    /* \"#utility.yul\":1823:1850   */\n  mstore\n    /* \"#utility.yul\":1672:1856   */\n  pop\n    /* \"#utility.yul\":1610:1856   */\n  pop\n  pop\n  pop\n  jump\t// out\n    /* \"#utility.yul\":1862:2296   */\ntag_30:\n    /* \"#utility.yul\":1951:1956   */\n  0x00\n    /* \"#utility.yul\":1976:2042   */\n  tag_83\n    /* \"#utility.yul\":1992:2041   */\n  tag_84\n    /* \"#utility.yul\":2034:2040   */\n  dup5\n    /* \"#utility.yul\":1992:2041   */\n  tag_28\n  jump\t// in\ntag_84:\n    /* \"#utility.yul\":1976:2042   */\n  tag_27\n  jump\t// in\ntag_83:\n    /* \"#utility.yul\":1967:2042   */\n  swap1\n  pop\n    /* \"#utility.yul\":2065:2071   */\n  dup3\n    /* \"#utility.yul\":2058:2063   */\n  dup2\n    /* \"#utility.yul\":2051:2072   */\n  mstore\n    /* \"#utility.yul\":2103:2107   */\n  0x20\n    /* \"#utility.yul\":2096:2101   */\n  dup2\n    /* \"#utility.yul\":2092:2108   */\n  add\n    /* \"#utility.yul\":2141:2144   */\n  dup5\n    /* \"#utility.yul\":2132:2138   */\n  dup5\n    /* \"#utility.yul\":2127:2130   */\n  dup5\n    /* \"#utility.yul\":2123:2139   */\n  add\n    /* \"#utility.yul\":2120:2145   */\n  gt\n    /* \"#utility.yul\":2117:2229   */\n  iszero\n  tag_85\n  jumpi\n    /* \"#utility.yul\":2148:2227   */\n  tag_86\n  tag_23\n  jump\t// in\ntag_86:\n    /* \"#utility.yul\":2117:2229   */\ntag_85:\n    /* \"#utility.yul\":2238:2290   */\n  tag_87\n    /* \"#utility.yul\":2283:2289   */\n  dup5\n    /* \"#utility.yul\":2278:2281   */\n  dup3\n    /* \"#utility.yul\":2273:2276   */\n  dup6\n    /* \"#utility.yul\":2238:2290   */\n  tag_29\n  jump\t// in\ntag_87:\n    /* \"#utility.yul\":1957:2296   */\n  pop\n    /* \"#utility.yul\":1862:2296   */\n  swap4\n  swap3\n  pop\n  pop\n  pop\n  jump\t// out\n    /* \"#utility.yul\":2316:2671   */\ntag_31:\n    /* \"#utility.yul\":2383:2388   */\n  0x00\n    /* \"#utility.yul\":2432:2435   */\n  dup3\n    /* \"#utility.yul\":2425:2429   */\n  0x1f\n    /* \"#utility.yul\":2417:2423   */\n  dup4\n    /* \"#utility.yul\":2413:2430   */\n  add\n    /* \"#utility.yul\":2409:2436   */\n  slt\n    /* \"#utility.yul\":2399:2521   */\n  tag_89\n  jumpi\n    /* \"#utility.yul\":2440:2519   */\n  tag_90\n  tag_22\n  jump\t// in\ntag_90:\n    /* \"#utility.yul\":2399:2521   */\ntag_89:\n    /* \"#utility.yul\":2550:2556   */\n  dup2\n    /* \"#utility.yul\":2544:2557   */\n  mload\n    /* \"#utility.yul\":2575:2665   */\n  tag_91\n    /* \"#utility.yul\":2661:2664   */\n  dup5\n    /* \"#utility.yul\":2653:2659   */\n  dup3\n    /* \"#utility.yul\":2646:2650   */\n  0x20\n    /* \"#utility.yul\":2638:2644   */\n  dup7\n    /* \"#utility.yul\":2634:2651   */\n  add\n    /* \"#utility.yul\":2575:2665   */\n  tag_30\n  jump\t// in\ntag_91:\n    /* \"#utility.yul\":2566:2665   */\n  swap2\n  pop\n    /* \"#utility.yul\":2389:2671   */\n  pop\n    /* \"#utility.yul\":2316:2671   */\n  swap3\n  swap2\n  pop\n  pop\n  jump\t// out\n    /* \"#utility.yul\":2677:2988   */\ntag_32:\n    /* \"#utility.yul\":2754:2758   */\n  0x00\n    /* \"#utility.yul\":2844:2862   */\n  0xffffffffffffffff\n    /* \"#utility.yul\":2836:2842   */\n  dup3\n    /* \"#utility.yul\":2833:2863   */\n  gt\n    /* \"#utility.yul\":2830:2886   */\n  iszero\n  tag_93\n  jumpi\n    /* \"#utility.yul\":2866:2884   */\n  tag_94\n  tag_25\n  jump\t// in\ntag_94:\n    /* \"#utility.yul\":2830:2886   */\ntag_93:\n    /* \"#utility.yul\":2916:2920   */\n  0x20\n    /* \"#utility.yul\":2908:2914   */\n  dup3\n    /* \"#utility.yul\":2904:2921   */\n  mul\n    /* \"#utility.yul\":2896:2921   */\n  swap1\n  pop\n    /* \"#utility.yul\":2976:2980   */\n  0x20\n    /* \"#utility.yul\":2970:2974   */\n  dup2\n    /* \"#utility.yul\":2966:2981   */\n  add\n    /* \"#utility.yul\":2958:2981   */\n  swap1\n  pop\n    /* \"#utility.yul\":2677:2988   */\n  swap2\n  swap1\n  pop\n  jump\t// out\n    /* \"#utility.yul\":2994:3111   */\ntag_33:\n    /* \"#utility.yul\":3103:3104   */\n  0x00\n    /* \"#utility.yul\":3100:3101   */\n  dup1\n    /* \"#utility.yul\":3093:3105   */\n  revert\n    /* \"#utility.yul\":3117:3243   */\ntag_34:\n    /* \"#utility.yul\":3154:3161   */\n  0x00\n    /* \"#utility.yul\":3194:3236   */\n  0xffffffffffffffffffffffffffffffffffffffff\n    /* \"#utility.yul\":3187:3192   */\n  dup3\n    /* \"#utility.yul\":3183:3237   */\n  and\n    /* \"#utility.yul\":3172:3237   */\n  swap1\n  pop\n    /* \"#utility.yul\":3117:3243   */\n  swap2\n  swap1\n  pop\n  jump\t// out\n    /* \"#utility.yul\":3249:3345   */\ntag_35:\n    /* \"#utility.yul\":3286:3293   */\n  0x00\n    /* \"#utility.yul\":3315:3339   */\n  tag_98\n    /* \"#utility.yul\":3333:3338   */\n  dup3\n    /* \"#utility.yul\":3315:3339   */\n  tag_34\n  jump\t// in\ntag_98:\n    /* \"#utility.yul\":3304:3339   */\n  swap1\n  pop\n    /* \"#utility.yul\":3249:3345   */\n  swap2\n  swap1\n  pop\n  jump\t// out\n    /* \"#utility.yul\":3351:3473   */\ntag_36:\n    /* \"#utility.yul\":3424:3448   */\n  tag_100\n    /* \"#utility.yul\":3442:3447   */\n  dup2\n    /* \"#utility.yul\":3424:3448   */\n  tag_35\n  jump\t// in\ntag_100:\n    /* \"#utility.yul\":3417:3422   */\n  dup2\n    /* \"#utility.yul\":3414:3449   */\n  eq\n    /* \"#utility.yul\":3404:3467   */\n  tag_101\n  jumpi\n    /* \"#utility.yul\":3463:3464   */\n  0x00\n    /* \"#utility.yul\":3460:3461   */\n  dup1\n    /* \"#utility.yul\":3453:3465   */\n  revert\n    /* \"#utility.yul\":3404:3467   */\ntag_101:\n    /* \"#utility.yul\":3351:3473   */\n  pop\n  jump\t// out\n    /* \"#utility.yul\":3479:3622   */\ntag_37:\n    /* \"#utility.yul\":3536:3541   */\n  0x00\n    /* \"#utility.yul\":3567:3573   */\n  dup2\n    /* \"#utility.yul\":3561:3574   */\n  mload\n    /* \"#utility.yul\":3552:3574   */\n  swap1\n  pop\n    /* \"#utility.yul\":3583:3616   */\n  tag_103\n    /* \"#utility.yul\":3610:3615   */\n  dup2\n    /* \"#utility.yul\":3583:3616   */\n  tag_36\n  jump\t// in\ntag_103:\n    /* \"#utility.yul\":3479:3622   */\n  swap3\n  swap2\n  pop\n  pop\n  jump\t// out\n    /* \"#utility.yul\":3645:4377   */\ntag_38:\n    /* \"#utility.yul\":3752:3757   */\n  0x00\n    /* \"#utility.yul\":3777:3858   */\n  tag_105\n    /* \"#utility.yul\":3793:3857   */\n  tag_106\n    /* \"#utility.yul\":3850:3856   */\n  dup5\n    /* \"#utility.yul\":3793:3857   */\n  tag_32\n  jump\t// in\ntag_106:\n    /* \"#utility.yul\":3777:3858   */\n  tag_27\n  jump\t// in\ntag_105:\n    /* \"#utility.yul\":3768:3858   */\n  swap1\n  pop\n    /* \"#utility.yul\":3878:3883   */\n  dup1\n    /* \"#utility.yul\":3907:3913   */\n  dup4\n    /* \"#utility.yul\":3900:3905   */\n  dup3\n    /* \"#utility.yul\":3893:3914   */\n  mstore\n    /* \"#utility.yul\":3941:3945   */\n  0x20\n    /* \"#utility.yul\":3934:3939   */\n  dup3\n    /* \"#utility.yul\":3930:3946   */\n  add\n    /* \"#utility.yul\":3923:3946   */\n  swap1\n  pop\n    /* \"#utility.yul\":3994:3998   */\n  0x20\n    /* \"#utility.yul\":3986:3992   */\n  dup5\n    /* \"#utility.yul\":3982:3999   */\n  mul\n    /* \"#utility.yul\":3974:3980   */\n  dup4\n    /* \"#utility.yul\":3970:4000   */\n  add\n    /* \"#utility.yul\":4023:4026   */\n  dup6\n    /* \"#utility.yul\":4015:4021   */\n  dup2\n    /* \"#utility.yul\":4012:4027   */\n  gt\n    /* \"#utility.yul\":4009:4131   */\n  iszero\n  tag_107\n  jumpi\n    /* \"#utility.yul\":4042:4121   */\n  tag_108\n  tag_33\n  jump\t// in\ntag_108:\n    /* \"#utility.yul\":4009:4131   */\ntag_107:\n    /* \"#utility.yul\":4157:4163   */\n  dup4\n    /* \"#utility.yul\":4140:4371   */\ntag_109:\n    /* \"#utility.yul\":4174:4180   */\n  dup2\n    /* \"#utility.yul\":4169:4172   */\n  dup2\n    /* \"#utility.yul\":4166:4181   */\n  lt\n    /* \"#utility.yul\":4140:4371   */\n  iszero\n  tag_111\n  jumpi\n    /* \"#utility.yul\":4249:4252   */\n  dup1\n    /* \"#utility.yul\":4278:4326   */\n  tag_112\n    /* \"#utility.yul\":4322:4325   */\n  dup9\n    /* \"#utility.yul\":4310:4320   */\n  dup3\n    /* \"#utility.yul\":4278:4326   */\n  tag_37\n  jump\t// in\ntag_112:\n    /* \"#utility.yul\":4273:4276   */\n  dup5\n    /* \"#utility.yul\":4266:4327   */\n  mstore\n    /* \"#utility.yul\":4356:4360   */\n  0x20\n    /* \"#utility.yul\":4351:4354   */\n  dup5\n    /* \"#utility.yul\":4347:4361   */\n  add\n    /* \"#utility.yul\":4340:4361   */\n  swap4\n  pop\n    /* \"#utility.yul\":4216:4371   */\n  pop\n    /* \"#utility.yul\":4200:4204   */\n  0x20\n    /* \"#utility.yul\":4195:4198   */\n  dup2\n    /* \"#utility.yul\":4191:4205   */\n  add\n    /* \"#utility.yul\":4184:4205   */\n  swap1\n  pop\n    /* \"#utility.yul\":4140:4371   */\n  jump(tag_109)\ntag_111:\n    /* \"#utility.yul\":4144:4165   */\n  pop\n    /* \"#utility.yul\":3758:4377   */\n  pop\n  pop\n    /* \"#utility.yul\":3645:4377   */\n  swap4\n  swap3\n  pop\n  pop\n  pop\n  jump\t// out\n    /* \"#utility.yul\":4400:4785   */\ntag_39:\n    /* \"#utility.yul\":4482:4487   */\n  0x00\n    /* \"#utility.yul\":4531:4534   */\n  dup3\n    /* \"#utility.yul\":4524:4528   */\n  0x1f\n    /* \"#utility.yul\":4516:4522   */\n  dup4\n    /* \"#utility.yul\":4512:4529   */\n  add\n    /* \"#utility.yul\":4508:4535   */\n  slt\n    /* \"#utility.yul\":4498:4620   */\n  tag_114\n  jumpi\n    /* \"#utility.yul\":4539:4618   */\n  tag_115\n  tag_22\n  jump\t// in\ntag_115:\n    /* \"#utility.yul\":4498:4620   */\ntag_114:\n    /* \"#utility.yul\":4649:4655   */\n  dup2\n    /* \"#utility.yul\":4643:4656   */\n  mload\n    /* \"#utility.yul\":4674:4779   */\n  tag_116\n    /* \"#utility.yul\":4775:4778   */\n  dup5\n    /* \"#utility.yul\":4767:4773   */\n  dup3\n    /* \"#utility.yul\":4760:4764   */\n  0x20\n    /* \"#utility.yul\":4752:4758   */\n  dup7\n    /* \"#utility.yul\":4748:4765   */\n  add\n    /* \"#utility.yul\":4674:4779   */\n  tag_38\n  jump\t// in\ntag_116:\n    /* \"#utility.yul\":4665:4779   */\n  swap2\n  pop\n    /* \"#utility.yul\":4488:4785   */\n  pop\n    /* \"#utility.yul\":4400:4785   */\n  swap3\n  swap2\n  pop\n  pop\n  jump\t// out\n    /* \"#utility.yul\":4791:6003   */\ntag_3:\n    /* \"#utility.yul\":4924:4930   */\n  0x00\n    /* \"#utility.yul\":4932:4938   */\n  dup1\n    /* \"#utility.yul\":4940:4946   */\n  0x00\n    /* \"#utility.yul\":4989:4991   */\n  0x60\n    /* \"#utility.yul\":4977:4986   */\n  dup5\n    /* \"#utility.yul\":4968:4975   */\n  dup7\n    /* \"#utility.yul\":4964:4987   */\n  sub\n    /* \"#utility.yul\":4960:4992   */\n  slt\n    /* \"#utility.yul\":4957:5076   */\n  iszero\n  tag_118\n  jumpi\n    /* \"#utility.yul\":4995:5074   */\n  tag_119\n  tag_20\n  jump\t// in\ntag_119:\n    /* \"#utility.yul\":4957:5076   */\ntag_118:\n    /* \"#utility.yul\":5136:5137   */\n  0x00\n    /* \"#utility.yul\":5125:5134   */\n  dup5\n    /* \"#utility.yul\":5121:5138   */\n  add\n    /* \"#utility.yul\":5115:5139   */\n  mload\n    /* \"#utility.yul\":5166:5184   */\n  0xffffffffffffffff\n    /* \"#utility.yul\":5158:5164   */\n  dup2\n    /* \"#utility.yul\":5155:5185   */\n  gt\n    /* \"#utility.yul\":5152:5269   */\n  iszero\n  tag_120\n  jumpi\n    /* \"#utility.yul\":5188:5267   */\n  tag_121\n  tag_21\n  jump\t// in\ntag_121:\n    /* \"#utility.yul\":5152:5269   */\ntag_120:\n    /* \"#utility.yul\":5293:5367   */\n  tag_122\n    /* \"#utility.yul\":5359:5366   */\n  dup7\n    /* \"#utility.yul\":5350:5356   */\n  dup3\n    /* \"#utility.yul\":5339:5348   */\n  dup8\n    /* \"#utility.yul\":5335:5357   */\n  add\n    /* \"#utility.yul\":5293:5367   */\n  tag_31\n  jump\t// in\ntag_122:\n    /* \"#utility.yul\":5283:5367   */\n  swap4\n  pop\n    /* \"#utility.yul\":5086:5377   */\n  pop\n    /* \"#utility.yul\":5437:5439   */\n  0x20\n    /* \"#utility.yul\":5426:5435   */\n  dup5\n    /* \"#utility.yul\":5422:5440   */\n  add\n    /* \"#utility.yul\":5416:5441   */\n  mload\n    /* \"#utility.yul\":5468:5486   */\n  0xffffffffffffffff\n    /* \"#utility.yul\":5460:5466   */\n  dup2\n    /* \"#utility.yul\":5457:5487   */\n  gt\n    /* \"#utility.yul\":5454:5571   */\n  iszero\n  tag_123\n  jumpi\n    /* \"#utility.yul\":5490:5569   */\n  tag_124\n  tag_21\n  jump\t// in\ntag_124:\n    /* \"#utility.yul\":5454:5571   */\ntag_123:\n    /* \"#utility.yul\":5595:5669   */\n  tag_125\n    /* \"#utility.yul\":5661:5668   */\n  dup7\n    /* \"#utility.yul\":5652:5658   */\n  dup3\n    /* \"#utility.yul\":5641:5650   */\n  dup8\n    /* \"#utility.yul\":5637:5659   */\n  add\n    /* \"#utility.yul\":5595:5669   */\n  tag_31\n  jump\t// in\ntag_125:\n    /* \"#utility.yul\":5585:5669   */\n  swap3\n  pop\n    /* \"#utility.yul\":5387:5679   */\n  pop\n    /* \"#utility.yul\":5739:5741   */\n  0x40\n    /* \"#utility.yul\":5728:5737   */\n  dup5\n    /* \"#utility.yul\":5724:5742   */\n  add\n    /* \"#utility.yul\":5718:5743   */\n  mload\n    /* \"#utility.yul\":5770:5788   */\n  0xffffffffffffffff\n    /* \"#utility.yul\":5762:5768   */\n  dup2\n    /* \"#utility.yul\":5759:5789   */\n  gt\n    /* \"#utility.yul\":5756:5873   */\n  iszero\n  tag_126\n  jumpi\n    /* \"#utility.yul\":5792:5871   */\n  tag_127\n  tag_21\n  jump\t// in\ntag_127:\n    /* \"#utility.yul\":5756:5873   */\ntag_126:\n    /* \"#utility.yul\":5897:5986   */\n  tag_128\n    /* \"#utility.yul\":5978:5985   */\n  dup7\n    /* \"#utility.yul\":5969:5975   */\n  dup3\n    /* \"#utility.yul\":5958:5967   */\n  dup8\n    /* \"#utility.yul\":5954:5976   */\n  add\n    /* \"#utility.yul\":5897:5986   */\n  tag_39\n  jump\t// in\ntag_128:\n    /* \"#utility.yul\":5887:5986   */\n  swap2\n  pop\n    /* \"#utility.yul\":5689:5996   */\n  pop\n    /* \"#utility.yul\":4791:6003   */\n  swap3\n  pop\n  swap3\n  pop\n  swap3\n  jump\t// out\n    /* \"#utility.yul\":6009:6108   */\ntag_40:\n    /* \"#utility.yul\":6061:6067   */\n  0x00\n    /* \"#utility.yul\":6095:6100   */\n  dup2\n    /* \"#utility.yul\":6089:6101   */\n  mload\n    /* \"#utility.yul\":6079:6101   */\n  swap1\n  pop\n    /* \"#utility.yul\":6009:6108   */\n  swap2\n  swap1\n  pop\n  jump\t// out\n    /* \"#utility.yul\":6114:6294   */\ntag_41:\n    /* \"#utility.yul\":6162:6239   */\n  0x4e487b7100000000000000000000000000000000000000000000000000000000\n    /* \"#utility.yul\":6159:6160   */\n  0x00\n    /* \"#utility.yul\":6152:6240   */\n  mstore\n    /* \"#utility.yul\":6259:6263   */\n  0x22\n    /* \"#utility.yul\":6256:6257   */\n  0x04\n    /* \"#utility.yul\":6249:6264   */\n  mstore\n    /* \"#utility.yul\":6283:6287   */\n  0x24\n    /* \"#utility.yul\":6280:6281   */\n  0x00\n    /* \"#utility.yul\":6273:6288   */\n  revert\n    /* \"#utility.yul\":6300:6620   */\ntag_42:\n    /* \"#utility.yul\":6344:6350   */\n  0x00\n    /* \"#utility.yul\":6381:6382   */\n  0x02\n    /* \"#utility.yul\":6375:6379   */\n  dup3\n    /* \"#utility.yul\":6371:6383   */\n  div\n    /* \"#utility.yul\":6361:6383   */\n  swap1\n  pop\n    /* \"#utility.yul\":6428:6429   */\n  0x01\n    /* \"#utility.yul\":6422:6426   */\n  dup3\n    /* \"#utility.yul\":6418:6430   */\n  and\n    /* \"#utility.yul\":6449:6467   */\n  dup1\n    /* \"#utility.yul\":6439:6520   */\n  tag_132\n  jumpi\n    /* \"#utility.yul\":6505:6509   */\n  0x7f\n    /* \"#utility.yul\":6497:6503   */\n  dup3\n    /* \"#utility.yul\":6493:6510   */\n  and\n    /* \"#utility.yul\":6483:6510   */\n  swap2\n  pop\n    /* \"#utility.yul\":6439:6520   */\ntag_132:\n    /* \"#utility.yul\":6567:6569   */\n  0x20\n    /* \"#utility.yul\":6559:6565   */\n  dup3\n    /* \"#utility.yul\":6556:6570   */\n  lt\n    /* \"#utility.yul\":6536:6554   */\n  dup2\n    /* \"#utility.yul\":6533:6571   */\n  sub\n    /* \"#utility.yul\":6530:6614   */\n  tag_133\n  jumpi\n    /* \"#utility.yul\":6586:6604   */\n  tag_134\n  tag_41\n  jump\t// in\ntag_134:\n    /* \"#utility.yul\":6530:6614   */\ntag_133:\n    /* \"#utility.yul\":6351:6620   */\n  pop\n    /* \"#utility.yul\":6300:6620   */\n  swap2\n  swap1\n  pop\n  jump\t// out\n    /* \"#utility.yul\":6626:6767   */\ntag_43:\n    /* \"#utility.yul\":6675:6679   */\n  0x00\n    /* \"#utility.yul\":6698:6701   */\n  dup2\n    /* \"#utility.yul\":6690:6701   */\n  swap1\n  pop\n    /* \"#utility.yul\":6721:6724   */\n  dup2\n    /* \"#utility.yul\":6718:6719   */\n  0x00\n    /* \"#utility.yul\":6711:6725   */\n  mstore\n    /* \"#utility.yul\":6755:6759   */\n  0x20\n    /* \"#utility.yul\":6752:6753   */\n  0x00\n    /* \"#utility.yul\":6742:6760   */\n  keccak256\n    /* \"#utility.yul\":6734:6760   */\n  swap1\n  pop\n    /* \"#utility.yul\":6626:6767   */\n  swap2\n  swap1\n  pop\n  jump\t// out\n    /* \"#utility.yul\":6773:6866   */\ntag_44:\n    /* \"#utility.yul\":6810:6816   */\n  0x00\n    /* \"#utility.yul\":6857:6859   */\n  0x20\n    /* \"#utility.yul\":6852:6854   */\n  0x1f\n    /* \"#utility.yul\":6845:6850   */\n  dup4\n    /* \"#utility.yul\":6841:6855   */\n  add\n    /* \"#utility.yul\":6837:6860   */\n  div\n    /* \"#utility.yul\":6827:6860   */\n  swap1\n  pop\n    /* \"#utility.yul\":6773:6866   */\n  swap2\n  swap1\n  pop\n  jump\t// out\n    /* \"#utility.yul\":6872:6979   */\ntag_45:\n    /* \"#utility.yul\":6916:6924   */\n  0x00\n    /* \"#utility.yul\":6966:6971   */\n  dup3\n    /* \"#utility.yul\":6960:6964   */\n  dup3\n    /* \"#utility.yul\":6956:6972   */\n  shl\n    /* \"#utility.yul\":6935:6972   */\n  swap1\n  pop\n    /* \"#utility.yul\":6872:6979   */\n  swap3\n  swap2\n  pop\n  pop\n  jump\t// out\n    /* \"#utility.yul\":6985:7378   */\ntag_46:\n    /* \"#utility.yul\":7054:7060   */\n  0x00\n    /* \"#utility.yul\":7104:7105   */\n  0x08\n    /* \"#utility.yul\":7092:7102   */\n  dup4\n    /* \"#utility.yul\":7088:7106   */\n  mul\n    /* \"#utility.yul\":7127:7224   */\n  tag_139\n    /* \"#utility.yul\":7157:7223   */\n  0xffffffffffffffffffffffffffffffffffffffffffffffffffffffffffffffff\n    /* \"#utility.yul\":7146:7155   */\n  dup3\n    /* \"#utility.yul\":7127:7224   */\n  tag_45\n  jump\t// in\ntag_139:\n    /* \"#utility.yul\":7245:7284   */\n  tag_140\n    /* \"#utility.yul\":7275:7283   */\n  dup7\n    /* \"#utility.yul\":7264:7273   */\n  dup4\n    /* \"#utility.yul\":7245:7284   */\n  tag_45\n  jump\t// in\ntag_140:\n    /* \"#utility.yul\":7233:7284   */\n  swap6\n  pop\n    /* \"#utility.yul\":7317:7321   */\n  dup1\n    /* \"#utility.yul\":7313:7322   */\n  not\n    /* \"#utility.yul\":7306:7311   */\n  dup5\n    /* \"#utility.yul\":7302:7323   */\n  and\n    /* \"#utility.yul\":7293:7323   */\n  swap4\n  pop\n    /* \"#utility.yul\":7366:7370   */\n  dup1\n    /* \"#utility.yul\":7356:7364   */\n  dup7\n    /* \"#utility.yul\":7352:7371   */\n  and\n    /* \"#utility.yul\":7345:7350   */\n  dup5\n    /* \"#utility.yul\":7342:7372   */\n  or\n    /* \"#utility.yul\":7332:7372   */\n  swap3\n  pop\n    /* \"#utility.yul\":7061:7378   */\n  pop\n  pop\n    /* \"#utility.yul\":6985:7378   */\n  swap4\n  swap3\n  pop\n  pop\n  pop\n  jump\t// out\n    /* \"#utility.yul\":7384:7461   */\ntag_47:\n    /* \"#utility.yul\":7421:7428   */\n  0x00\n    /* \"#utility.yul\":7450:7455   */\n  dup2\n    /* \"#utility.yul\":7439:7455   */\n  swap1\n  pop\n    /* \"#utility.yul\":7384:7461   */\n  swap2\n  swap1\n  pop\n  jump\t// out\n    /* \"#utility.yul\":7467:7527   */\ntag_48:\n    /* \"#utility.yul\":7495:7498   */\n  0x00\n    /* \"#utility.yul\":7516:7521   */\n  dup2\n    /* \"#utility.yul\":7509:7521   */\n  swap1\n  pop\n    /* \"#utility.yul\":7467:7527   */\n  swap2\n  swap1\n  pop\n  jump\t// out\n    /* \"#utility.yul\":7533:7675   */\ntag_49:\n    /* \"#utility.yul\":7583:7592   */\n  0x00\n    /* \"#utility.yul\":7616:7669   */\n  tag_144\n    /* \"#utility.yul\":7634:7668   */\n  tag_145\n    /* \"#utility.yul\":7643:7667   */\n  tag_146\n    /* \"#utility.yul\":7661:7666   */\n  dup5\n    /* \"#utility.yul\":7643:7667   */\n  tag_47\n  jump\t// in\ntag_146:\n    /* \"#utility.yul\":7634:7668   */\n  tag_48\n  jump\t// in\ntag_145:\n    /* \"#utility.yul\":7616:7669   */\n  tag_47\n  jump\t// in\ntag_144:\n    /* \"#utility.yul\":7603:7669   */\n  swap1\n  pop\n    /* \"#utility.yul\":7533:7675   */\n  swap2\n  swap1\n  pop\n  jump\t// out\n    /* \"#utility.yul\":7681:7756   */\ntag_50:\n    /* \"#utility.yul\":7724:7727   */\n  0x00\n    /* \"#utility.yul\":7745:7750   */\n  dup2\n    /* \"#utility.yul\":7738:7750   */\n  swap1\n  pop\n    /* \"#utility.yul\":7681:7756   */\n  swap2\n  swap1\n  pop\n  jump\t// out\n    /* \"#utility.yul\":7762:8031   */\ntag_51:\n    /* \"#utility.yul\":7872:7911   */\n  tag_149\n    /* \"#utility.yul\":7903:7910   */\n  dup4\n    /* \"#utility.yul\":7872:7911   */\n  tag_49\n  jump\t// in\ntag_149:\n    /* \"#utility.yul\":7933:8024   */\n  tag_150\n    /* \"#utility.yul\":7982:8023   */\n  tag_151\n    /* \"#utility.yul\":8006:8022   */\n  dup3\n    /* \"#utility.yul\":7982:8023   */\n  tag_50\n  jump\t// in\ntag_151:\n    /* \"#utility.yul\":7974:7980   */\n  dup5\n    /* \"#utility.yul\":7967:7971   */\n  dup5\n    /* \"#utility.yul\":7961:7972   */\n  sload\n    /* \"#utility.yul\":7933:8024   */\n  tag_46\n  jump\t// in\ntag_150:\n    /* \"#utility.yul\":7927:7931   */\n  dup3\n    /* \"#utility.yul\":7920:8025   */\n  sstore\n    /* \"#utility.yul\":7838:8031   */\n  pop\n    /* \"#utility.yul\":7762:8031   */\n  pop\n  pop\n  pop\n  jump\t// out\n    /* \"#utility.yul\":8037:8110   */\ntag_52:\n    /* \"#utility.yul\":8082:8085   */\n  0x00\n    /* \"#utility.yul\":8037:8110   */\n  swap1\n  jump\t// out\n    /* \"#utility.yul\":8116:8305   */\ntag_53:\n    /* \"#utility.yul\":8193:8225   */\n  tag_154\n  tag_52\n  jump\t// in\ntag_154:\n    /* \"#utility.yul\":8234:8299   */\n  tag_155\n    /* \"#utility.yul\":8292:8298   */\n  dup2\n    /* \"#utility.yul\":8284:8290   */\n  dup5\n    /* \"#utility.yul\":8278:8282   */\n  dup5\n    /* \"#utility.yul\":8234:8299   */\n  tag_51\n  jump\t// in\ntag_155:\n    /* \"#utility.yul\":8169:8305   */\n  pop\n    /* \"#utility.yul\":8116:8305   */\n  pop\n  pop\n  jump\t// out\n    /* \"#utility.yul\":8311:8497   */\ntag_54:\n    /* \"#utility.yul\":8371:8491   */\ntag_157:\n    /* \"#utility.yul\":8388:8391   */\n  dup2\n    /* \"#utility.yul\":8381:8386   */\n  dup2\n    /* \"#utility.yul\":8378:8392   */\n  lt\n    /* \"#utility.yul\":8371:8491   */\n  iszero\n  tag_159\n  jumpi\n    /* \"#utility.yul\":8442:8481   */\n  tag_160\n    /* \"#utility.yul\":8479:8480   */\n  0x00\n    /* \"#utility.yul\":8472:8477   */\n  dup3\n    /* \"#utility.yul\":8442:8481   */\n  tag_53\n  jump\t// in\ntag_160:\n    /* \"#utility.yul\":8415:8416   */\n  0x01\n    /* \"#utility.yul\":8408:8413   */\n  dup2\n    /* \"#utility.yul\":8404:8417   */\n  add\n    /* \"#utility.yul\":8395:8417   */\n  swap1\n  pop\n    /* \"#utility.yul\":8371:8491   */\n  jump(tag_157)\ntag_159:\n    /* \"#utility.yul\":8311:8497   */\n  pop\n  pop\n  jump\t// out\n    /* \"#utility.yul\":8503:9046   */\ntag_55:\n    /* \"#utility.yul\":8604:8606   */\n  0x1f\n    /* \"#utility.yul\":8599:8602   */\n  dup3\n    /* \"#utility.yul\":8596:8607   */\n  gt\n    /* \"#utility.yul\":8593:9039   */\n  iszero\n  tag_162\n  jumpi\n    /* \"#utility.yul\":8638:8676   */\n  tag_163\n    /* \"#utility.yul\":8670:8675   */\n  dup2\n    /* \"#utility.yul\":8638:8676   */\n  tag_43\n  jump\t// in\ntag_163:\n    /* \"#utility.yul\":8722:8751   */\n  tag_164\n    /* \"#utility.yul\":8740:8750   */\n  dup5\n    /* \"#utility.yul\":8722:8751   */\n  tag_44\n  jump\t// in\ntag_164:\n    /* \"#utility.yul\":8712:8720   */\n  dup2\n    /* \"#utility.yul\":8708:8752   */\n  add\n    /* \"#utility.yul\":8905:8907   */\n  0x20\n    /* \"#utility.yul\":8893:8903   */\n  dup6\n    /* \"#utility.yul\":8890:8908   */\n  lt\n    /* \"#utility.yul\":8887:8936   */\n  iszero\n  tag_165\n  jumpi\n    /* \"#utility.yul\":8926:8934   */\n  dup2\n    /* \"#utility.yul\":8911:8934   */\n  swap1\n  pop\n    /* \"#utility.yul\":8887:8936   */\ntag_165:\n    /* \"#utility.yul\":8949:9029   */\n  tag_166\n    /* \"#utility.yul\":9005:9027   */\n  tag_167\n    /* \"#utility.yul\":9023:9026   */\n  dup6\n    /* \"#utility.yul\":9005:9027   */\n  tag_44\n  jump\t// in\ntag_167:\n    /* \"#utility.yul\":8995:9003   */\n  dup4\n    /* \"#utility.yul\":8991:9028   */\n  add\n    /* \"#utility.yul\":8978:8989   */\n  dup3\n    /* \"#utility.yul\":8949:9029   */\n  tag_54\n  jump\t// in\ntag_166:\n    /* \"#utility.yul\":8608:9039   */\n  pop\n  pop\n    /* \"#utility.yul\":8593:9039   */\ntag_162:\n    /* \"#utility.yul\":8503:9046   */\n  pop\n  pop\n  pop\n  jump\t// out\n    /* \"#utility.yul\":9052:9169   */\ntag_56:\n    /* \"#utility.yul\":9106:9114   */\n  0x00\n    /* \"#utility.yul\":9156:9161   */\n  dup3\n    /* \"#utility.yul\":9150:9154   */\n  dup3\n    /* \"#utility.yul\":9146:9162   */\n  shr\n    /* \"#utility.yul\":9125:9162   */\n  swap1\n  pop\n    /* \"#utility.yul\":9052:9169   */\n  swap3\n  swap2\n  pop\n  pop\n  jump\t// out\n    /* \"#utility.yul\":9175:9344   */\ntag_57:\n    /* \"#utility.yul\":9219:9225   */\n  0x00\n    /* \"#utility.yul\":9252:9303   */\n  tag_170\n    /* \"#utility.yul\":9300:9301   */\n  0x00\n    /* \"#utility.yul\":9296:9302   */\n  not\n    /* \"#utility.yul\":9288:9293   */\n  dup5\n    /* \"#utility.yul\":9285:9286   */\n  0x08\n    /* \"#utility.yul\":9281:9294   */\n  mul\n    /* \"#utility.yul\":9252:9303   */\n  tag_56\n  jump\t// in\ntag_170:\n    /* \"#utility.yul\":9248:9304   */\n  not\n    /* \"#utility.yul\":9333:9337   */\n  dup1\n    /* \"#utility.yul\":9327:9331   */\n  dup4\n    /* \"#utility.yul\":9323:9338   */\n  and\n    /* \"#utility.yul\":9313:9338   */\n  swap2\n  pop\n    /* \"#utility.yul\":9226:9344   */\n  pop\n    /* \"#utility.yul\":9175:9344   */\n  swap3\n  swap2\n  pop\n  pop\n  jump\t// out\n    /* \"#utility.yul\":9349:9644   */\ntag_58:\n    /* \"#utility.yul\":9425:9429   */\n  0x00\n    /* \"#utility.yul\":9571:9600   */\n  tag_172\n    /* \"#utility.yul\":9596:9599   */\n  dup4\n    /* \"#utility.yul\":9590:9594   */\n  dup4\n    /* \"#utility.yul\":9571:9600   */\n  tag_57\n  jump\t// in\ntag_172:\n    /* \"#utility.yul\":9563:9600   */\n  swap2\n  pop\n    /* \"#utility.yul\":9633:9636   */\n  dup3\n    /* \"#utility.yul\":9630:9631   */\n  0x02\n    /* \"#utility.yul\":9626:9637   */\n  mul\n    /* \"#utility.yul\":9620:9624   */\n  dup3\n    /* \"#utility.yul\":9617:9638   */\n  or\n    /* \"#utility.yul\":9609:9638   */\n  swap1\n  pop\n    /* \"#utility.yul\":9349:9644   */\n  swap3\n  swap2\n  pop\n  pop\n  jump\t// out\n    /* \"#utility.yul\":9649:11044   */\ntag_7:\n    /* \"#utility.yul\":9766:9803   */\n  tag_174\n    /* \"#utility.yul\":9799:9802   */\n  dup3\n    /* \"#utility.yul\":9766:9803   */\n  tag_40\n  jump\t// in\ntag_174:\n    /* \"#utility.yul\":9868:9886   */\n  0xffffffffffffffff\n    /* \"#utility.yul\":9860:9866   */\n  dup2\n    /* \"#utility.yul\":9857:9887   */\n  gt\n    /* \"#utility.yul\":9854:9910   */\n  iszero\n  tag_175\n  jumpi\n    /* \"#utility.yul\":9890:9908   */\n  tag_176\n  tag_25\n  jump\t// in\ntag_176:\n    /* \"#utility.yul\":9854:9910   */\ntag_175:\n    /* \"#utility.yul\":9934:9972   */\n  tag_177\n    /* \"#utility.yul\":9966:9970   */\n  dup3\n    /* \"#utility.yul\":9960:9971   */\n  sload\n    /* \"#utility.yul\":9934:9972   */\n  tag_42\n  jump\t// in\ntag_177:\n    /* \"#utility.yul\":10019:10086   */\n  tag_178\n    /* \"#utility.yul\":10079:10085   */\n  dup3\n    /* \"#utility.yul\":10071:10077   */\n  dup3\n    /* \"#utility.yul\":10065:10069   */\n  dup6\n    /* \"#utility.yul\":10019:10086   */\n  tag_55\n  jump\t// in\ntag_178:\n    /* \"#utility.yul\":10113:10114   */\n  0x00\n    /* \"#utility.yul\":10137:10141   */\n  0x20\n    /* \"#utility.yul\":10124:10141   */\n  swap1\n  pop\n    /* \"#utility.yul\":10169:10171   */\n  0x1f\n    /* \"#utility.yul\":10161:10167   */\n  dup4\n    /* \"#utility.yul\":10158:10172   */\n  gt\n    /* \"#utility.yul\":10186:10187   */\n  0x01\n    /* \"#utility.yul\":10181:10799   */\n  dup2\n  eq\n  tag_180\n  jumpi\n    /* \"#utility.yul\":10843:10844   */\n  0x00\n    /* \"#utility.yul\":10860:10866   */\n  dup5\n    /* \"#utility.yul\":10857:10934   */\n  iszero\n  tag_181\n  jumpi\n    /* \"#utility.yul\":10909:10918   */\n  dup3\n    /* \"#utility.yul\":10904:10907   */\n  dup8\n    /* \"#utility.yul\":10900:10919   */\n  add\n    /* \"#utility.yul\":10894:10920   */\n  mload\n    /* \"#utility.yul\":10885:10920   */\n  swap1\n  pop\n    /* \"#utility.yul\":10857:10934   */\ntag_181:\n    /* \"#utility.yul\":10960:11027   */\n  tag_182\n    /* \"#utility.yul\":11020:11026   */\n  dup6\n    /* \"#utility.yul\":11013:11018   */\n  dup3\n    /* \"#utility.yul\":10960:11027   */\n  tag_58\n  jump\t// in\ntag_182:\n    /* \"#utility.yul\":10954:10958   */\n  dup7\n    /* \"#utility.yul\":10947:11028   */\n  sstore\n    /* \"#utility.yul\":10816:11038   */\n  pop\n    /* \"#utility.yul\":10151:11038   */\n  jump(tag_179)\n    /* \"#utility.yul\":10181:10799   */\ntag_180:\n    /* \"#utility.yul\":10233:10237   */\n  0x1f\n    /* \"#utility.yul\":10229:10238   */\n  not\n    /* \"#utility.yul\":10221:10227   */\n  dup5\n    /* \"#utility.yul\":10217:10239   */\n  and\n    /* \"#utility.yul\":10267:10304   */\n  tag_183\n    /* \"#utility.yul\":10299:10303   */\n  dup7\n    /* \"#utility.yul\":10267:10304   */\n  tag_43\n  jump\t// in\ntag_183:\n    /* \"#utility.yul\":10326:10327   */\n  0x00\n    /* \"#utility.yul\":10340:10548   */\ntag_184:\n    /* \"#utility.yul\":10354:10361   */\n  dup3\n    /* \"#utility.yul\":10351:10352   */\n  dup2\n    /* \"#utility.yul\":10348:10362   */\n  lt\n    /* \"#utility.yul\":10340:10548   */\n  iszero\n  tag_186\n  jumpi\n    /* \"#utility.yul\":10433:10442   */\n  dup5\n    /* \"#utility.yul\":10428:10431   */\n  dup10\n    /* \"#utility.yul\":10424:10443   */\n  add\n    /* \"#utility.yul\":10418:10444   */\n  mload\n    /* \"#utility.yul\":10410:10416   */\n  dup3\n    /* \"#utility.yul\":10403:10445   */\n  sstore\n    /* \"#utility.yul\":10484:10485   */\n  0x01\n    /* \"#utility.yul\":10476:10482   */\n  dup3\n    /* \"#utility.yul\":10472:10486   */\n  add\n    /* \"#utility.yul\":10462:10486   */\n  swap2\n  pop\n    /* \"#utility.yul\":10531:10533   */\n  0x20\n    /* \"#utility.yul\":10520:10529   */\n  dup6\n    /* \"#utility.yul\":10516:10534   */\n  add\n    /* \"#utility.yul\":10503:10534   */\n  swap5\n  pop\n    /* \"#utility.yul\":10377:10381   */\n  0x20\n    /* \"#utility.yul\":10374:10375   */\n  dup2\n    /* \"#utility.yul\":10370:10382   */\n  add\n    /* \"#utility.yul\":10365:10382   */\n  swap1\n  pop\n    /* \"#utility.yul\":10340:10548   */\n  jump(tag_184)\ntag_186:\n    /* \"#utility.yul\":10576:10582   */\n  dup7\n    /* \"#utility.yul\":10567:10574   */\n  dup4\n    /* \"#utility.yul\":10564:10583   */\n  lt\n    /* \"#utility.yul\":10561:10740   */\n  iszero\n  tag_187\n  jumpi\n    /* \"#utility.yul\":10634:10643   */\n  dup5\n    /* \"#utility.yul\":10629:10632   */\n  dup10\n    /* \"#utility.yul\":10625:10644   */\n  add\n    /* \"#utility.yul\":10619:10645   */\n  mload\n    /* \"#utility.yul\":10677:10725   */\n  tag_188\n    /* \"#utility.yul\":10719:10723   */\n  0x1f\n    /* \"#utility.yul\":10711:10717   */\n  dup10\n    /* \"#utility.yul\":10707:10724   */\n  and\n    /* \"#utility.yul\":10696:10705   */\n  dup3\n    /* \"#utility.yul\":10677:10725   */\n  tag_57\n  jump\t// in\ntag_188:\n    /* \"#utility.yul\":10669:10675   */\n  dup4\n    /* \"#utility.yul\":10662:10726   */\n  sstore\n    /* \"#utility.yul\":10584:10740   */\n  pop\n    /* \"#utility.yul\":10561:10740   */\ntag_187:\n    /* \"#utility.yul\":10786:10787   */\n  0x01\n    /* \"#utility.yul\":10782:10783   */\n  0x02\n    /* \"#utility.yul\":10774:10780   */\n  dup9\n    /* \"#utility.yul\":10770:10784   */\n  mul\n    /* \"#utility.yul\":10766:10788   */\n  add\n    /* \"#utility.yul\":10760:10764   */\n  dup9\n    /* \"#utility.yul\":10753:10789   */\n  sstore\n    /* \"#utility.yul\":10188:10799   */\n  pop\n  pop\n  pop\n    /* \"#utility.yul\":10151:11038   */\ntag_179:\n  pop\n    /* \"#utility.yul\":9741:11044   */\n  pop\n  pop\n  pop\n    /* \"#utility.yul\":9649:11044   */\n  pop\n  pop\n  jump\t// out\n    /* \"src/state/StateSoccer.sol\":65:528  contract StateSoccer {... */\ntag_11:\n  dataSize(sub_0)\n  dup1\n  dataOffset(sub_0)\n  0x00\n  codecopy\n  0x00\n  return\nstop\n\nsub_0: assembly {\n        /* \"src/state/StateSoccer.sol\":65:528  contract StateSoccer {... */\n      mstore(0x40, 0x80)\n      callvalue\n      dup1\n      iszero\n      tag_1\n      jumpi\n      0x00\n      dup1\n      revert\n    tag_1:\n      pop\n      jumpi(tag_2, lt(calldatasize, 0x04))\n      shr(0xe0, calldataload(0x00))\n      dup1\n      0x2402c982\n      eq\n      tag_3\n      jumpi\n      dup1\n      0x40d15254\n      eq\n      tag_4\n      jumpi\n    tag_2:\n      0x00\n      dup1\n      revert\n        /* \"src/state/StateSoccer.sol\":330:434  function get_names() public view returns (string memory, string memory) {... */\n    tag_3:\n      tag_5\n      tag_6\n      jump\t// in\n    tag_5:\n      mload(0x40)\n      tag_7\n      swap3\n      swap2\n      swap1\n      tag_8\n      jump\t// in\n    tag_7:\n      mload(0x40)\n      dup1\n      swap2\n      sub\n      swap1\n      return\n        /* \"src/state/StateSoccer.sol\":438:526  function get_compose() public view returns (address[] memory) {... */\n    tag_4:\n      tag_9\n      tag_10\n      jump\t// in\n    tag_9:\n      mload(0x40)\n      tag_11\n      swap2\n      swap1\n      tag_12\n      jump\t// in\n    tag_11:\n      mload(0x40)\n      dup1\n      swap2\n      sub\n      swap1\n      return\n        /* \"src/state/StateSoccer.sol\":330:434  function get_names() public view returns (string memory, string memory) {... */\n    tag_6:\n        /* \"src/state/StateSoccer.sol\":372:385  string memory */\n      0x60\n        /* \"src/state/StateSoccer.sol\":387:400  string memory */\n      dup1\n        /* \"src/state/StateSoccer.sol\":416:421  team1 */\n      0x00\n        /* \"src/state/StateSoccer.sol\":423:428  team2 */\n      0x01\n        /* \"src/state/StateSoccer.sol\":408:429  return (team1, team2) */\n      dup2\n      dup1\n      sload\n      tag_14\n      swap1\n      tag_15\n      jump\t// in\n    tag_14:\n      dup1\n      0x1f\n      add\n      0x20\n      dup1\n      swap2\n      div\n      mul\n      0x20\n      add\n      mload(0x40)\n      swap1\n      dup2\n      add\n      0x40\n      mstore\n      dup1\n      swap3\n      swap2\n      swap1\n      dup2\n      dup2\n      mstore\n      0x20\n      add\n      dup3\n      dup1\n      sload\n      tag_16\n      swap1\n      tag_15\n      jump\t// in\n    tag_16:\n      dup1\n      iszero\n      tag_17\n      jumpi\n      dup1\n      0x1f\n      lt\n      tag_18\n      jumpi\n      0x0100\n      dup1\n      dup4\n      sload\n      div\n      mul\n      dup4\n      mstore\n      swap2\n      0x20\n      add\n      swap2\n      jump(tag_17)\n    tag_18:\n      dup3\n      add\n      swap2\n      swap1\n      0x00\n      mstore\n      keccak256(0x00, 0x20)\n      swap1\n    tag_19:\n      dup2\n      sload\n      dup2\n      mstore\n      swap1\n      0x01\n      add\n      swap1\n      0x20\n      add\n      dup1\n      dup4\n      gt\n      tag_19\n      jumpi\n      dup3\n      swap1\n      sub\n      0x1f\n      and\n      dup3\n      add\n      swap2\n    tag_17:\n      pop\n      pop\n      pop\n      pop\n      pop\n      swap2\n      pop\n      dup1\n      dup1\n      sload\n      tag_20\n      swap1\n      tag_15\n      jump\t// in\n    tag_20:\n      dup1\n      0x1f\n      add\n      0x20\n      dup1\n      swap2\n      div\n      mul\n      0x20\n      add\n      mload(0x40)\n      swap1\n      dup2\n      add\n      0x40\n      mstore\n      dup1\n      swap3\n      swap2\n      swap1\n      dup2\n      dup2\n      mstore\n      0x20\n      add\n      dup3\n      dup1\n      sload\n      tag_21\n      swap1\n      tag_15\n      jump\t// in\n    tag_21:\n      dup1\n      iszero\n      tag_22\n      jumpi\n      dup1\n      0x1f\n      lt\n      tag_23\n      jumpi\n      0x0100\n      dup1\n      dup4\n      sload\n      div\n      mul\n      dup4\n      mstore\n      swap2\n      0x20\n      add\n      swap2\n      jump(tag_22)\n    tag_23:\n      dup3\n      add\n      swap2\n      swap1\n      0x00\n      mstore\n      keccak256(0x00, 0x20)\n      swap1\n    tag_24:\n      dup2\n      sload\n      dup2\n      mstore\n      swap1\n      0x01\n      add\n      swap1\n      0x20\n      add\n      dup1\n      dup4\n      gt\n      tag_24\n      jumpi\n      dup3\n      swap1\n      sub\n      0x1f\n      and\n      dup3\n      add\n      swap2\n    tag_22:\n      pop\n      pop\n      pop\n      pop\n      pop\n      swap1\n      pop\n      swap2\n      pop\n      swap2\n      pop\n        /* \"src/state/StateSoccer.sol\":330:434  function get_names() public view returns (string memory, string memory) {... */\n      swap1\n      swap2\n      jump\t// out\n        /* \"src/state/StateSoccer.sol\":438:526  function get_compose() public view returns (address[] memory) {... */\n    tag_10:\n        /* \"src/state/StateSoccer.sol\":482:498  address[] memory */\n      0x60\n        /* \"src/state/StateSoccer.sol\":513:521  composes */\n      0x02\n        /* \"src/state/StateSoccer.sol\":506:521  return composes */\n      dup1\n      sload\n      dup1\n      0x20\n      mul\n      0x20\n      add\n      mload(0x40)\n      swap1\n      dup2\n      add\n      0x40\n      mstore\n      dup1\n      swap3\n      swap2\n      swap1\n      dup2\n      dup2\n      mstore\n      0x20\n      add\n      dup3\n      dup1\n      sload\n      dup1\n      iszero\n      tag_26\n      jumpi\n      0x20\n      mul\n      dup3\n      add\n      swap2\n      swap1\n      0x00\n      mstore\n      keccak256(0x00, 0x20)\n      swap1\n    tag_27:\n      dup2\n      0x00\n      swap1\n      sload\n      swap1\n      0x0100\n      exp\n      swap1\n      div\n      0xffffffffffffffffffffffffffffffffffffffff\n      and\n      0xffffffffffffffffffffffffffffffffffffffff\n      and\n      dup2\n      mstore\n      0x20\n      add\n      swap1\n      0x01\n      add\n      swap1\n      dup1\n      dup4\n      gt\n      tag_27\n      jumpi\n    tag_26:\n      pop\n      pop\n      pop\n      pop\n      pop\n      swap1\n      pop\n        /* \"src/state/StateSoccer.sol\":438:526  function get_compose() public view returns (address[] memory) {... */\n      swap1\n      jump\t// out\n        /* \"#utility.yul\":7:106   */\n    tag_28:\n        /* \"#utility.yul\":59:65   */\n      0x00\n        /* \"#utility.yul\":93:98   */\n      dup2\n        /* \"#utility.yul\":87:99   */\n      mload\n        /* \"#utility.yul\":77:99   */\n      swap1\n      pop\n        /* \"#utility.yul\":7:106   */\n      swap2\n      swap1\n      pop\n      jump\t// out\n        /* \"#utility.yul\":112:281   */\n    tag_29:\n        /* \"#utility.yul\":196:207   */\n      0x00\n        /* \"#utility.yul\":230:236   */\n      dup3\n        /* \"#utility.yul\":225:228   */\n      dup3\n        /* \"#utility.yul\":218:237   */\n      mstore\n        /* \"#utility.yul\":270:274   */\n      0x20\n        /* \"#utility.yul\":265:268   */\n      dup3\n        /* \"#utility.yul\":261:275   */\n      add\n        /* \"#utility.yul\":246:275   */\n      swap1\n      pop\n        /* \"#utility.yul\":112:281   */\n      swap3\n      swap2\n      pop\n      pop\n      jump\t// out\n        /* \"#utility.yul\":287:533   */\n    tag_30:\n        /* \"#utility.yul\":368:369   */\n      0x00\n        /* \"#utility.yul\":378:491   */\n    tag_47:\n        /* \"#utility.yul\":392:398   */\n      dup4\n        /* \"#utility.yul\":389:390   */\n      dup2\n        /* \"#utility.yul\":386:399   */\n      lt\n        /* \"#utility.yul\":378:491   */\n      iszero\n      tag_49\n      jumpi\n        /* \"#utility.yul\":477:478   */\n      dup1\n        /* \"#utility.yul\":472:475   */\n      dup3\n        /* \"#utility.yul\":468:479   */\n      add\n        /* \"#utility.yul\":462:480   */\n      mload\n        /* \"#utility.yul\":458:459   */\n      dup2\n        /* \"#utility.yul\":453:456   */\n      dup5\n        /* \"#utility.yul\":449:460   */\n      add\n        /* \"#utility.yul\":442:481   */\n      mstore\n        /* \"#utility.yul\":414:416   */\n      0x20\n        /* \"#utility.yul\":411:412   */\n      dup2\n        /* \"#utility.yul\":407:417   */\n      add\n        /* \"#utility.yul\":402:417   */\n      swap1\n      pop\n        /* \"#utility.yul\":378:491   */\n      jump(tag_47)\n    tag_49:\n        /* \"#utility.yul\":525:526   */\n      0x00\n        /* \"#utility.yul\":516:522   */\n      dup5\n        /* \"#utility.yul\":511:514   */\n      dup5\n        /* \"#utility.yul\":507:523   */\n      add\n        /* \"#utility.yul\":500:527   */\n      mstore\n        /* \"#utility.yul\":349:533   */\n      pop\n        /* \"#utility.yul\":287:533   */\n      pop\n      pop\n      pop\n      jump\t// out\n        /* \"#utility.yul\":539:641   */\n    tag_31:\n        /* \"#utility.yul\":580:586   */\n      0x00\n        /* \"#utility.yul\":631:633   */\n      0x1f\n        /* \"#utility.yul\":627:634   */\n      not\n        /* \"#utility.yul\":622:624   */\n      0x1f\n        /* \"#utility.yul\":615:620   */\n      dup4\n        /* \"#utility.yul\":611:625   */\n      add\n        /* \"#utility.yul\":607:635   */\n      and\n        /* \"#utility.yul\":597:635   */\n      swap1\n      pop\n        /* \"#utility.yul\":539:641   */\n      swap2\n      swap1\n      pop\n      jump\t// out\n        /* \"#utility.yul\":647:1024   */\n    tag_32:\n        /* \"#utility.yul\":735:738   */\n      0x00\n        /* \"#utility.yul\":763:802   */\n      tag_52\n        /* \"#utility.yul\":796:801   */\n      dup3\n        /* \"#utility.yul\":763:802   */\n      tag_28\n      jump\t// in\n    tag_52:\n        /* \"#utility.yul\":818:889   */\n      tag_53\n        /* \"#utility.yul\":882:888   */\n      dup2\n        /* \"#utility.yul\":877:880   */\n      dup6\n        /* \"#utility.yul\":818:889   */\n      tag_29\n      jump\t// in\n    tag_53:\n        /* \"#utility.yul\":811:889   */\n      swap4\n      pop\n        /* \"#utility.yul\":898:963   */\n      tag_54\n        /* \"#utility.yul\":956:962   */\n      dup2\n        /* \"#utility.yul\":951:954   */\n      dup6\n        /* \"#utility.yul\":944:948   */\n      0x20\n        /* \"#utility.yul\":937:942   */\n      dup7\n        /* \"#utility.yul\":933:949   */\n      add\n        /* \"#utility.yul\":898:963   */\n      tag_30\n      jump\t// in\n    tag_54:\n        /* \"#utility.yul\":988:1017   */\n      tag_55\n        /* \"#utility.yul\":1010:1016   */\n      dup2\n        /* \"#utility.yul\":988:1017   */\n      tag_31\n      jump\t// in\n    tag_55:\n        /* \"#utility.yul\":983:986   */\n      dup5\n        /* \"#utility.yul\":979:1018   */\n      add\n        /* \"#utility.yul\":972:1018   */\n      swap2\n      pop\n        /* \"#utility.yul\":739:1024   */\n      pop\n        /* \"#utility.yul\":647:1024   */\n      swap3\n      swap2\n      pop\n      pop\n      jump\t// out\n        /* \"#utility.yul\":1030:1544   */\n    tag_8:\n        /* \"#utility.yul\":1191:1195   */\n      0x00\n        /* \"#utility.yul\":1229:1231   */\n      0x40\n        /* \"#utility.yul\":1218:1227   */\n      dup3\n        /* \"#utility.yul\":1214:1232   */\n      add\n        /* \"#utility.yul\":1206:1232   */\n      swap1\n      pop\n        /* \"#utility.yul\":1278:1287   */\n      dup2\n        /* \"#utility.yul\":1272:1276   */\n      dup2\n        /* \"#utility.yul\":1268:1288   */\n      sub\n        /* \"#utility.yul\":1264:1265   */\n      0x00\n        /* \"#utility.yul\":1253:1262   */\n      dup4\n        /* \"#utility.yul\":1249:1266   */\n      add\n        /* \"#utility.yul\":1242:1289   */\n      mstore\n        /* \"#utility.yul\":1306:1384   */\n      tag_57\n        /* \"#utility.yul\":1379:1383   */\n      dup2\n        /* \"#utility.yul\":1370:1376   */\n      dup6\n        /* \"#utility.yul\":1306:1384   */\n      tag_32\n      jump\t// in\n    tag_57:\n        /* \"#utility.yul\":1298:1384   */\n      swap1\n      pop\n        /* \"#utility.yul\":1431:1440   */\n      dup2\n        /* \"#utility.yul\":1425:1429   */\n      dup2\n        /* \"#utility.yul\":1421:1441   */\n      sub\n        /* \"#utility.yul\":1416:1418   */\n      0x20\n        /* \"#utility.yul\":1405:1414   */\n      dup4\n        /* \"#utility.yul\":1401:1419   */\n      add\n        /* \"#utility.yul\":1394:1442   */\n      mstore\n        /* \"#utility.yul\":1459:1537   */\n      tag_58\n        /* \"#utility.yul\":1532:1536   */\n      dup2\n        /* \"#utility.yul\":1523:1529   */\n      dup5\n        /* \"#utility.yul\":1459:1537   */\n      tag_32\n      jump\t// in\n    tag_58:\n        /* \"#utility.yul\":1451:1537   */\n      swap1\n      pop\n        /* \"#utility.yul\":1030:1544   */\n      swap4\n      swap3\n      pop\n      pop\n      pop\n      jump\t// out\n        /* \"#utility.yul\":1550:1664   */\n    tag_33:\n        /* \"#utility.yul\":1617:1623   */\n      0x00\n        /* \"#utility.yul\":1651:1656   */\n      dup2\n        /* \"#utility.yul\":1645:1657   */\n      mload\n        /* \"#utility.yul\":1635:1657   */\n      swap1\n      pop\n        /* \"#utility.yul\":1550:1664   */\n      swap2\n      swap1\n      pop\n      jump\t// out\n        /* \"#utility.yul\":1670:1854   */\n    tag_34:\n        /* \"#utility.yul\":1769:1780   */\n      0x00\n        /* \"#utility.yul\":1803:1809   */\n      dup3\n        /* \"#utility.yul\":1798:1801   */\n      dup3\n        /* \"#utility.yul\":1791:1810   */\n      mstore\n        /* \"#utility.yul\":1843:1847   */\n      0x20\n        /* \"#utility.yul\":1838:1841   */\n      dup3\n        /* \"#utility.yul\":1834:1848   */\n      add\n        /* \"#utility.yul\":1819:1848   */\n      swap1\n      pop\n        /* \"#utility.yul\":1670:1854   */\n      swap3\n      swap2\n      pop\n      pop\n      jump\t// out\n        /* \"#utility.yul\":1860:1992   */\n    tag_35:\n        /* \"#utility.yul\":1927:1931   */\n      0x00\n        /* \"#utility.yul\":1950:1953   */\n      dup2\n        /* \"#utility.yul\":1942:1953   */\n      swap1\n      pop\n        /* \"#utility.yul\":1980:1984   */\n      0x20\n        /* \"#utility.yul\":1975:1978   */\n      dup3\n        /* \"#utility.yul\":1971:1985   */\n      add\n        /* \"#utility.yul\":1963:1985   */\n      swap1\n      pop\n        /* \"#utility.yul\":1860:1992   */\n      swap2\n      swap1\n      pop\n      jump\t// out\n        /* \"#utility.yul\":1998:2124   */\n    tag_36:\n        /* \"#utility.yul\":2035:2042   */\n      0x00\n        /* \"#utility.yul\":2075:2117   */\n      0xffffffffffffffffffffffffffffffffffffffff\n        /* \"#utility.yul\":2068:2073   */\n      dup3\n        /* \"#utility.yul\":2064:2118   */\n      and\n        /* \"#utility.yul\":2053:2118   */\n      swap1\n      pop\n        /* \"#utility.yul\":1998:2124   */\n      swap2\n      swap1\n      pop\n      jump\t// out\n        /* \"#utility.yul\":2130:2226   */\n    tag_37:\n        /* \"#utility.yul\":2167:2174   */\n      0x00\n        /* \"#utility.yul\":2196:2220   */\n      tag_64\n        /* \"#utility.yul\":2214:2219   */\n      dup3\n        /* \"#utility.yul\":2196:2220   */\n      tag_36\n      jump\t// in\n    tag_64:\n        /* \"#utility.yul\":2185:2220   */\n      swap1\n      pop\n        /* \"#utility.yul\":2130:2226   */\n      swap2\n      swap1\n      pop\n      jump\t// out\n        /* \"#utility.yul\":2232:2340   */\n    tag_38:\n        /* \"#utility.yul\":2309:2333   */\n      tag_66\n        /* \"#utility.yul\":2327:2332   */\n      dup2\n        /* \"#utility.yul\":2309:2333   */\n      tag_37\n      jump\t// in\n    tag_66:\n        /* \"#utility.yul\":2304:2307   */\n      dup3\n        /* \"#utility.yul\":2297:2334   */\n      mstore\n        /* \"#utility.yul\":2232:2340   */\n      pop\n      pop\n      jump\t// out\n        /* \"#utility.yul\":2346:2525   */\n    tag_39:\n        /* \"#utility.yul\":2415:2425   */\n      0x00\n        /* \"#utility.yul\":2436:2482   */\n      tag_68\n        /* \"#utility.yul\":2478:2481   */\n      dup4\n        /* \"#utility.yul\":2470:2476   */\n      dup4\n        /* \"#utility.yul\":2436:2482   */\n      tag_38\n      jump\t// in\n    tag_68:\n        /* \"#utility.yul\":2514:2518   */\n      0x20\n        /* \"#utility.yul\":2509:2512   */\n      dup4\n        /* \"#utility.yul\":2505:2519   */\n      add\n        /* \"#utility.yul\":2491:2519   */\n      swap1\n      pop\n        /* \"#utility.yul\":2346:2525   */\n      swap3\n      swap2\n      pop\n      pop\n      jump\t// out\n        /* \"#utility.yul\":2531:2644   */\n    tag_40:\n        /* \"#utility.yul\":2601:2605   */\n      0x00\n        /* \"#utility.yul\":2633:2637   */\n      0x20\n        /* \"#utility.yul\":2628:2631   */\n      dup3\n        /* \"#utility.yul\":2624:2638   */\n      add\n        /* \"#utility.yul\":2616:2638   */\n      swap1\n      pop\n        /* \"#utility.yul\":2531:2644   */\n      swap2\n      swap1\n      pop\n      jump\t// out\n        /* \"#utility.yul\":2680:3412   */\n    tag_41:\n        /* \"#utility.yul\":2799:2802   */\n      0x00\n        /* \"#utility.yul\":2828:2882   */\n      tag_71\n        /* \"#utility.yul\":2876:2881   */\n      dup3\n        /* \"#utility.yul\":2828:2882   */\n      tag_33\n      jump\t// in\n    tag_71:\n        /* \"#utility.yul\":2898:2984   */\n      tag_72\n        /* \"#utility.yul\":2977:2983   */\n      dup2\n        /* \"#utility.yul\":2972:2975   */\n      dup6\n        /* \"#utility.yul\":2898:2984   */\n      tag_34\n      jump\t// in\n    tag_72:\n        /* \"#utility.yul\":2891:2984   */\n      swap4\n      pop\n        /* \"#utility.yul\":3008:3064   */\n      tag_73\n        /* \"#utility.yul\":3058:3063   */\n      dup4\n        /* \"#utility.yul\":3008:3064   */\n      tag_35\n      jump\t// in\n    tag_73:\n        /* \"#utility.yul\":3087:3094   */\n      dup1\n        /* \"#utility.yul\":3118:3119   */\n      0x00\n        /* \"#utility.yul\":3103:3387   */\n    tag_74:\n        /* \"#utility.yul\":3128:3134   */\n      dup4\n        /* \"#utility.yul\":3125:3126   */\n      dup2\n        /* \"#utility.yul\":3122:3135   */\n      lt\n        /* \"#utility.yul\":3103:3387   */\n      iszero\n      tag_76\n      jumpi\n        /* \"#utility.yul\":3204:3210   */\n      dup2\n        /* \"#utility.yul\":3198:3211   */\n      mload\n        /* \"#utility.yul\":3231:3294   */\n      tag_77\n        /* \"#utility.yul\":3290:3293   */\n      dup9\n        /* \"#utility.yul\":3275:3288   */\n      dup3\n        /* \"#utility.yul\":3231:3294   */\n      tag_39\n      jump\t// in\n    tag_77:\n        /* \"#utility.yul\":3224:3294   */\n      swap8\n      pop\n        /* \"#utility.yul\":3317:3377   */\n      tag_78\n        /* \"#utility.yul\":3370:3376   */\n      dup4\n        /* \"#utility.yul\":3317:3377   */\n      tag_40\n      jump\t// in\n    tag_78:\n        /* \"#utility.yul\":3307:3377   */\n      swap3\n      pop\n        /* \"#utility.yul\":3163:3387   */\n      pop\n        /* \"#utility.yul\":3150:3151   */\n      0x01\n        /* \"#utility.yul\":3147:3148   */\n      dup2\n        /* \"#utility.yul\":3143:3152   */\n      add\n        /* \"#utility.yul\":3138:3152   */\n      swap1\n      pop\n        /* \"#utility.yul\":3103:3387   */\n      jump(tag_74)\n    tag_76:\n        /* \"#utility.yul\":3107:3121   */\n      pop\n        /* \"#utility.yul\":3403:3406   */\n      dup6\n        /* \"#utility.yul\":3396:3406   */\n      swap4\n      pop\n        /* \"#utility.yul\":2804:3412   */\n      pop\n      pop\n      pop\n        /* \"#utility.yul\":2680:3412   */\n      swap3\n      swap2\n      pop\n      pop\n      jump\t// out\n        /* \"#utility.yul\":3418:3791   */\n    tag_12:\n        /* \"#utility.yul\":3561:3565   */\n      0x00\n        /* \"#utility.yul\":3599:3601   */\n      0x20\n        /* \"#utility.yul\":3588:3597   */\n      dup3\n        /* \"#utility.yul\":3584:3602   */\n      add\n        /* \"#utility.yul\":3576:3602   */\n      swap1\n      pop\n        /* \"#utility.yul\":3648:3657   */\n      dup2\n        /* \"#utility.yul\":3642:3646   */\n      dup2\n        /* \"#utility.yul\":3638:3658   */\n      sub\n        /* \"#utility.yul\":3634:3635   */\n      0x00\n        /* \"#utility.yul\":3623:3632   */\n      dup4\n        /* \"#utility.yul\":3619:3636   */\n      add\n        /* \"#utility.yul\":3612:3659   */\n      mstore\n        /* \"#utility.yul\":3676:3784   */\n      tag_80\n        /* \"#utility.yul\":3779:3783   */\n      dup2\n        /* \"#utility.yul\":3770:3776   */\n      dup5\n        /* \"#utility.yul\":3676:3784   */\n      tag_41\n      jump\t// in\n    tag_80:\n        /* \"#utility.yul\":3668:3784   */\n      swap1\n      pop\n        /* \"#utility.yul\":3418:3791   */\n      swap3\n      swap2\n      pop\n      pop\n      jump\t// out\n        /* \"#utility.yul\":3797:3977   */\n    tag_42:\n        /* \"#utility.yul\":3845:3922   */\n      0x4e487b7100000000000000000000000000000000000000000000000000000000\n        /* \"#utility.yul\":3842:3843   */\n      0x00\n        /* \"#utility.yul\":3835:3923   */\n      mstore\n        /* \"#utility.yul\":3942:3946   */\n      0x22\n        /* \"#utility.yul\":3939:3940   */\n      0x04\n        /* \"#utility.yul\":3932:3947   */\n      mstore\n        /* \"#utility.yul\":3966:3970   */\n      0x24\n        /* \"#utility.yul\":3963:3964   */\n      0x00\n        /* \"#utility.yul\":3956:3971   */\n      revert\n        /* \"#utility.yul\":3983:4303   */\n    tag_15:\n        /* \"#utility.yul\":4027:4033   */\n      0x00\n        /* \"#utility.yul\":4064:4065   */\n      0x02\n        /* \"#utility.yul\":4058:4062   */\n      dup3\n        /* \"#utility.yul\":4054:4066   */\n      div\n        /* \"#utility.yul\":4044:4066   */\n      swap1\n      pop\n        /* \"#utility.yul\":4111:4112   */\n      0x01\n        /* \"#utility.yul\":4105:4109   */\n      dup3\n        /* \"#utility.yul\":4101:4113   */\n      and\n        /* \"#utility.yul\":4132:4150   */\n      dup1\n        /* \"#utility.yul\":4122:4203   */\n      tag_83\n      jumpi\n        /* \"#utility.yul\":4188:4192   */\n      0x7f\n        /* \"#utility.yul\":4180:4186   */\n      dup3\n        /* \"#utility.yul\":4176:4193   */\n      and\n        /* \"#utility.yul\":4166:4193   */\n      swap2\n      pop\n        /* \"#utility.yul\":4122:4203   */\n    tag_83:\n        /* \"#utility.yul\":4250:4252   */\n      0x20\n        /* \"#utility.yul\":4242:4248   */\n      dup3\n        /* \"#utility.yul\":4239:4253   */\n      lt\n        /* \"#utility.yul\":4219:4237   */\n      dup2\n        /* \"#utility.yul\":4216:4254   */\n      sub\n        /* \"#utility.yul\":4213:4297   */\n      tag_84\n      jumpi\n        /* \"#utility.yul\":4269:4287   */\n      tag_85\n      tag_42\n      jump\t// in\n    tag_85:\n        /* \"#utility.yul\":4213:4297   */\n    tag_84:\n        /* \"#utility.yul\":4034:4303   */\n      pop\n        /* \"#utility.yul\":3983:4303   */\n      swap2\n      swap1\n      pop\n      jump\t// out\n\n    auxdata: 0xa2646970667358221220ffa0741c9f51307f75c13805fdab461adf01f71e04840bf71084160ebaa079bc64736f6c63430008180033\n}\n",
				"bytecode": {
					"linkReferences": {},
					"object": "608060405234801562000010575f80fd5b5060405162000c3b38038062000c3b8339818101604052810190620000369190620003e1565b825f9081620000469190620006ce565b508160019081620000589190620006ce565b508060029080519060200190620000719291906200007b565b50505050620007b2565b828054828255905f5260205f20908101928215620000f4579160200282015b82811115620000f3578251825f6101000a81548173ffffffffffffffffffffffffffffffffffffffff021916908373ffffffffffffffffffffffffffffffffffffffff160217905550916020019190600101906200009a565b5b50905062000103919062000107565b5090565b5b8082111562000120575f815f90555060010162000108565b5090565b5f604051905090565b5f80fd5b5f80fd5b5f80fd5b5f80fd5b5f601f19601f8301169050919050565b7f4e487b71000000000000000000000000000000000000000000000000000000005f52604160045260245ffd5b62000185826200013d565b810181811067ffffffffffffffff82111715620001a757620001a66200014d565b5b80604052505050565b5f620001bb62000124565b9050620001c982826200017a565b919050565b5f67ffffffffffffffff821115620001eb57620001ea6200014d565b5b620001f6826200013d565b9050602081019050919050565b5f5b838110156200022257808201518184015260208101905062000205565b5f8484015250505050565b5f620002436200023d84620001ce565b620001b0565b90508281526020810184848401111562000262576200026162000139565b5b6200026f84828562000203565b509392505050565b5f82601f8301126200028e576200028d62000135565b5b8151620002a08482602086016200022d565b91505092915050565b5f67ffffffffffffffff821115620002c657620002c56200014d565b5b602082029050602081019050919050565b5f80fd5b5f73ffffffffffffffffffffffffffffffffffffffff82169050919050565b5f6200030682620002db565b9050919050565b6200031881620002fa565b811462000323575f80fd5b50565b5f8151905062000336816200030d565b92915050565b5f620003526200034c84620002a9565b620001b0565b90508083825260208201905060208402830185811115620003785762000377620002d7565b5b835b81811015620003a5578062000390888262000326565b8452602084019350506020810190506200037a565b5050509392505050565b5f82601f830112620003c657620003c562000135565b5b8151620003d88482602086016200033c565b91505092915050565b5f805f60608486031215620003fb57620003fa6200012d565b5b5f84015167ffffffffffffffff8111156200041b576200041a62000131565b5b620004298682870162000277565b935050602084015167ffffffffffffffff8111156200044d576200044c62000131565b5b6200045b8682870162000277565b925050604084015167ffffffffffffffff8111156200047f576200047e62000131565b5b6200048d86828701620003af565b9150509250925092565b5f81519050919050565b7f4e487b71000000000000000000000000000000000000000000000000000000005f52602260045260245ffd5b5f6002820490506001821680620004e657607f821691505b602082108103620004fc57620004fb620004a1565b5b50919050565b5f819050815f5260205f209050919050565b5f6020601f8301049050919050565b5f82821b905092915050565b5f60088302620005607fffffffffffffffffffffffffffffffffffffffffffffffffffffffffffffffff8262000523565b6200056c868362000523565b95508019841693508086168417925050509392505050565b5f819050919050565b5f819050919050565b5f620005b6620005b0620005aa8462000584565b6200058d565b62000584565b9050919050565b5f819050919050565b620005d18362000596565b620005e9620005e082620005bd565b8484546200052f565b825550505050565b5f90565b620005ff620005f1565b6200060c818484620005c6565b505050565b5b818110156200063357620006275f82620005f5565b60018101905062000612565b5050565b601f82111562000682576200064c8162000502565b620006578462000514565b8101602085101562000667578190505b6200067f620006768562000514565b83018262000611565b50505b505050565b5f82821c905092915050565b5f620006a45f198460080262000687565b1980831691505092915050565b5f620006be838362000693565b9150826002028217905092915050565b620006d98262000497565b67ffffffffffffffff811115620006f557620006f46200014d565b5b620007018254620004ce565b6200070e82828562000637565b5f60209050601f83116001811462000744575f84156200072f578287015190505b6200073b8582620006b1565b865550620007aa565b601f198416620007548662000502565b5f5b828110156200077d5784890151825560018201915060208501945060208101905062000756565b868310156200079d578489015162000799601f89168262000693565b8355505b6001600288020188555050505b505050505050565b61047b80620007c05f395ff3fe608060405234801561000f575f80fd5b5060043610610034575f3560e01c80632402c9821461003857806340d1525414610057575b5f80fd5b610040610075565b60405161004e9291906102ac565b60405180910390f35b61005f610197565b60405161006c91906103c8565b60405180910390f35b6060805f600181805461008790610415565b80601f01602080910402602001604051908101604052809291908181526020018280546100b390610415565b80156100fe5780601f106100d5576101008083540402835291602001916100fe565b820191905f5260205f20905b8154815290600101906020018083116100e157829003601f168201915b5050505050915080805461011190610415565b80601f016020809104026020016040519081016040528092919081815260200182805461013d90610415565b80156101885780601f1061015f57610100808354040283529160200191610188565b820191905f5260205f20905b81548152906001019060200180831161016b57829003601f168201915b50505050509050915091509091565b6060600280548060200260200160405190810160405280929190818152602001828054801561021857602002820191905f5260205f20905b815f9054906101000a900473ffffffffffffffffffffffffffffffffffffffff1673ffffffffffffffffffffffffffffffffffffffff16815260200190600101908083116101cf575b5050505050905090565b5f81519050919050565b5f82825260208201905092915050565b5f5b8381101561025957808201518184015260208101905061023e565b5f8484015250505050565b5f601f19601f8301169050919050565b5f61027e82610222565b610288818561022c565b935061029881856020860161023c565b6102a181610264565b840191505092915050565b5f6040820190508181035f8301526102c48185610274565b905081810360208301526102d88184610274565b90509392505050565b5f81519050919050565b5f82825260208201905092915050565b5f819050602082019050919050565b5f73ffffffffffffffffffffffffffffffffffffffff82169050919050565b5f6103338261030a565b9050919050565b61034381610329565b82525050565b5f610354838361033a565b60208301905092915050565b5f602082019050919050565b5f610376826102e1565b61038081856102eb565b935061038b836102fb565b805f5b838110156103bb5781516103a28882610349565b97506103ad83610360565b92505060018101905061038e565b5085935050505092915050565b5f6020820190508181035f8301526103e0818461036c565b905092915050565b7f4e487b71000000000000000000000000000000000000000000000000000000005f52602260045260245ffd5b5f600282049050600182168061042c57607f821691505b60208210810361043f5761043e6103e8565b5b5091905056fea2646970667358221220ffa0741c9f51307f75c13805fdab461adf01f71e04840bf71084160ebaa079bc64736f6c63430008180033",
					"opcodes": "PUSH1 0x80 PUSH1 0x40 MSTORE CALLVALUE DUP1 ISZERO PUSH3 0x10 JUMPI PUSH0 DUP1 REVERT JUMPDEST POP PUSH1 0x40 MLOAD PUSH3 0xC3B CODESIZE SUB DUP1 PUSH3 0xC3B DUP4 CODECOPY DUP2 DUP2 ADD PUSH1 0x40 MSTORE DUP2 ADD SWAP1 PUSH3 0x36 SWAP2 SWAP1 PUSH3 0x3E1 JUMP JUMPDEST DUP3 PUSH0 SWAP1 DUP2 PUSH3 0x46 SWAP2 SWAP1 PUSH3 0x6CE JUMP JUMPDEST POP DUP2 PUSH1 0x1 SWAP1 DUP2 PUSH3 0x58 SWAP2 SWAP1 PUSH3 0x6CE JUMP JUMPDEST POP DUP1 PUSH1 0x2 SWAP1 DUP1 MLOAD SWAP1 PUSH1 0x20 ADD SWAP1 PUSH3 0x71 SWAP3 SWAP2 SWAP1 PUSH3 0x7B JUMP JUMPDEST POP POP POP POP PUSH3 0x7B2 JUMP JUMPDEST DUP3 DUP1 SLOAD DUP3 DUP3 SSTORE SWAP1 PUSH0 MSTORE PUSH1 0x20 PUSH0 KECCAK256 SWAP1 DUP2 ADD SWAP3 DUP3 ISZERO PUSH3 0xF4 JUMPI SWAP2 PUSH1 0x20 MUL DUP3 ADD JUMPDEST DUP3 DUP2 GT ISZERO PUSH3 0xF3 JUMPI DUP3 MLOAD DUP3 PUSH0 PUSH2 0x100 EXP DUP2 SLOAD DUP2 PUSH20 0xFFFFFFFFFFFFFFFFFFFFFFFFFFFFFFFFFFFFFFFF MUL NOT AND SWAP1 DUP4 PUSH20 0xFFFFFFFFFFFFFFFFFFFFFFFFFFFFFFFFFFFFFFFF AND MUL OR SWAP1 SSTORE POP SWAP2 PUSH1 0x20 ADD SWAP2 SWAP1 PUSH1 0x1 ADD SWAP1 PUSH3 0x9A JUMP JUMPDEST JUMPDEST POP SWAP1 POP PUSH3 0x103 SWAP2 SWAP1 PUSH3 0x107 JUMP JUMPDEST POP SWAP1 JUMP JUMPDEST JUMPDEST DUP1 DUP3 GT ISZERO PUSH3 0x120 JUMPI PUSH0 DUP2 PUSH0 SWAP1 SSTORE POP PUSH1 0x1 ADD PUSH3 0x108 JUMP JUMPDEST POP SWAP1 JUMP JUMPDEST PUSH0 PUSH1 0x40 MLOAD SWAP1 POP SWAP1 JUMP JUMPDEST PUSH0 DUP1 REVERT JUMPDEST PUSH0 DUP1 REVERT JUMPDEST PUSH0 DUP1 REVERT JUMPDEST PUSH0 DUP1 REVERT JUMPDEST PUSH0 PUSH1 0x1F NOT PUSH1 0x1F DUP4 ADD AND SWAP1 POP SWAP2 SWAP1 POP JUMP JUMPDEST PUSH32 0x4E487B7100000000000000000000000000000000000000000000000000000000 PUSH0 MSTORE PUSH1 0x41 PUSH1 0x4 MSTORE PUSH1 0x24 PUSH0 REVERT JUMPDEST PUSH3 0x185 DUP3 PUSH3 0x13D JUMP JUMPDEST DUP2 ADD DUP2 DUP2 LT PUSH8 0xFFFFFFFFFFFFFFFF DUP3 GT OR ISZERO PUSH3 0x1A7 JUMPI PUSH3 0x1A6 PUSH3 0x14D JUMP JUMPDEST JUMPDEST DUP1 PUSH1 0x40 MSTORE POP POP POP JUMP JUMPDEST PUSH0 PUSH3 0x1BB PUSH3 0x124 JUMP JUMPDEST SWAP1 POP PUSH3 0x1C9 DUP3 DUP3 PUSH3 0x17A JUMP JUMPDEST SWAP2 SWAP1 POP JUMP JUMPDEST PUSH0 PUSH8 0xFFFFFFFFFFFFFFFF DUP3 GT ISZERO PUSH3 0x1EB JUMPI PUSH3 0x1EA PUSH3 0x14D JUMP JUMPDEST JUMPDEST PUSH3 0x1F6 DUP3 PUSH3 0x13D JUMP JUMPDEST SWAP1 POP PUSH1 0x20 DUP2 ADD SWAP1 POP SWAP2 SWAP1 POP JUMP JUMPDEST PUSH0 JUMPDEST DUP4 DUP2 LT ISZERO PUSH3 0x222 JUMPI DUP1 DUP3 ADD MLOAD DUP2 DUP5 ADD MSTORE PUSH1 0x20 DUP2 ADD SWAP1 POP PUSH3 0x205 JUMP JUMPDEST PUSH0 DUP5 DUP5 ADD MSTORE POP POP POP POP JUMP JUMPDEST PUSH0 PUSH3 0x243 PUSH3 0x23D DUP5 PUSH3 0x1CE JUMP JUMPDEST PUSH3 0x1B0 JUMP JUMPDEST SWAP1 POP DUP3 DUP2 MSTORE PUSH1 0x20 DUP2 ADD DUP5 DUP5 DUP5 ADD GT ISZERO PUSH3 0x262 JUMPI PUSH3 0x261 PUSH3 0x139 JUMP JUMPDEST JUMPDEST PUSH3 0x26F DUP5 DUP3 DUP6 PUSH3 0x203 JUMP JUMPDEST POP SWAP4 SWAP3 POP POP POP JUMP JUMPDEST PUSH0 DUP3 PUSH1 0x1F DUP4 ADD SLT PUSH3 0x28E JUMPI PUSH3 0x28D PUSH3 0x135 JUMP JUMPDEST JUMPDEST DUP2 MLOAD PUSH3 0x2A0 DUP5 DUP3 PUSH1 0x20 DUP7 ADD PUSH3 0x22D JUMP JUMPDEST SWAP2 POP POP SWAP3 SWAP2 POP POP JUMP JUMPDEST PUSH0 PUSH8 0xFFFFFFFFFFFFFFFF DUP3 GT ISZERO PUSH3 0x2C6 JUMPI PUSH3 0x2C5 PUSH3 0x14D JUMP JUMPDEST JUMPDEST PUSH1 0x20 DUP3 MUL SWAP1 POP PUSH1 0x20 DUP2 ADD SWAP1 POP SWAP2 SWAP1 POP JUMP JUMPDEST PUSH0 DUP1 REVERT JUMPDEST PUSH0 PUSH20 0xFFFFFFFFFFFFFFFFFFFFFFFFFFFFFFFFFFFFFFFF DUP3 AND SWAP1 POP SWAP2 SWAP1 POP JUMP JUMPDEST PUSH0 PUSH3 0x306 DUP3 PUSH3 0x2DB JUMP JUMPDEST SWAP1 POP SWAP2 SWAP1 POP JUMP JUMPDEST PUSH3 0x318 DUP2 PUSH3 0x2FA JUMP JUMPDEST DUP2 EQ PUSH3 0x323 JUMPI PUSH0 DUP1 REVERT JUMPDEST POP JUMP JUMPDEST PUSH0 DUP2 MLOAD SWAP1 POP PUSH3 0x336 DUP2 PUSH3 0x30D JUMP JUMPDEST SWAP3 SWAP2 POP POP JUMP JUMPDEST PUSH0 PUSH3 0x352 PUSH3 0x34C DUP5 PUSH3 0x2A9 JUMP JUMPDEST PUSH3 0x1B0 JUMP JUMPDEST SWAP1 POP DUP1 DUP4 DUP3 MSTORE PUSH1 0x20 DUP3 ADD SWAP1 POP PUSH1 0x20 DUP5 MUL DUP4 ADD DUP6 DUP2 GT ISZERO PUSH3 0x378 JUMPI PUSH3 0x377 PUSH3 0x2D7 JUMP JUMPDEST JUMPDEST DUP4 JUMPDEST DUP2 DUP2 LT ISZERO PUSH3 0x3A5 JUMPI DUP1 PUSH3 0x390 DUP9 DUP3 PUSH3 0x326 JUMP JUMPDEST DUP5 MSTORE PUSH1 0x20 DUP5 ADD SWAP4 POP POP PUSH1 0x20 DUP2 ADD SWAP1 POP PUSH3 0x37A JUMP JUMPDEST POP POP POP SWAP4 SWAP3 POP POP POP JUMP JUMPDEST PUSH0 DUP3 PUSH1 0x1F DUP4 ADD SLT PUSH3 0x3C6 JUMPI PUSH3 0x3C5 PUSH3 0x135 JUMP JUMPDEST JUMPDEST DUP2 MLOAD PUSH3 0x3D8 DUP5 DUP3 PUSH1 0x20 DUP7 ADD PUSH3 0x33C JUMP JUMPDEST SWAP2 POP POP SWAP3 SWAP2 POP POP JUMP JUMPDEST PUSH0 DUP1 PUSH0 PUSH1 0x60 DUP5 DUP7 SUB SLT ISZERO PUSH3 0x3FB JUMPI PUSH3 0x3FA PUSH3 0x12D JUMP JUMPDEST JUMPDEST PUSH0 DUP5 ADD MLOAD PUSH8 0xFFFFFFFFFFFFFFFF DUP2 GT ISZERO PUSH3 0x41B JUMPI PUSH3 0x41A PUSH3 0x131 JUMP JUMPDEST JUMPDEST PUSH3 0x429 DUP7 DUP3 DUP8 ADD PUSH3 0x277 JUMP JUMPDEST SWAP4 POP POP PUSH1 0x20 DUP5 ADD MLOAD PUSH8 0xFFFFFFFFFFFFFFFF DUP2 GT ISZERO PUSH3 0x44D JUMPI PUSH3 0x44C PUSH3 0x131 JUMP JUMPDEST JUMPDEST PUSH3 0x45B DUP7 DUP3 DUP8 ADD PUSH3 0x277 JUMP JUMPDEST SWAP3 POP POP PUSH1 0x40 DUP5 ADD MLOAD PUSH8 0xFFFFFFFFFFFFFFFF DUP2 GT ISZERO PUSH3 0x47F JUMPI PUSH3 0x47E PUSH3 0x131 JUMP JUMPDEST JUMPDEST PUSH3 0x48D DUP7 DUP3 DUP8 ADD PUSH3 0x3AF JUMP JUMPDEST SWAP2 POP POP SWAP3 POP SWAP3 POP SWAP3 JUMP JUMPDEST PUSH0 DUP2 MLOAD SWAP1 POP SWAP2 SWAP1 POP JUMP JUMPDEST PUSH32 0x4E487B7100000000000000000000000000000000000000000000000000000000 PUSH0 MSTORE PUSH1 0x22 PUSH1 0x4 MSTORE PUSH1 0x24 PUSH0 REVERT JUMPDEST PUSH0 PUSH1 0x2 DUP3 DIV SWAP1 POP PUSH1 0x1 DUP3 AND DUP1 PUSH3 0x4E6 JUMPI PUSH1 0x7F DUP3 AND SWAP2 POP JUMPDEST PUSH1 0x20 DUP3 LT DUP2 SUB PUSH3 0x4FC JUMPI PUSH3 0x4FB PUSH3 0x4A1 JUMP JUMPDEST JUMPDEST POP SWAP2 SWAP1 POP JUMP JUMPDEST PUSH0 DUP2 SWAP1 POP DUP2 PUSH0 MSTORE PUSH1 0x20 PUSH0 KECCAK256 SWAP1 POP SWAP2 SWAP1 POP JUMP JUMPDEST PUSH0 PUSH1 0x20 PUSH1 0x1F DUP4 ADD DIV SWAP1 POP SWAP2 SWAP1 POP JUMP JUMPDEST PUSH0 DUP3 DUP3 SHL SWAP1 POP SWAP3 SWAP2 POP POP JUMP JUMPDEST PUSH0 PUSH1 0x8 DUP4 MUL PUSH3 0x560 PUSH32 0xFFFFFFFFFFFFFFFFFFFFFFFFFFFFFFFFFFFFFFFFFFFFFFFFFFFFFFFFFFFFFFFF DUP3 PUSH3 0x523 JUMP JUMPDEST PUSH3 0x56C DUP7 DUP4 PUSH3 0x523 JUMP JUMPDEST SWAP6 POP DUP1 NOT DUP5 AND SWAP4 POP DUP1 DUP7 AND DUP5 OR SWAP3 POP POP POP SWAP4 SWAP3 POP POP POP JUMP JUMPDEST PUSH0 DUP2 SWAP1 POP SWAP2 SWAP1 POP JUMP JUMPDEST PUSH0 DUP2 SWAP1 POP SWAP2 SWAP1 POP JUMP JUMPDEST PUSH0 PUSH3 0x5B6 PUSH3 0x5B0 PUSH3 0x5AA DUP5 PUSH3 0x584 JUMP JUMPDEST PUSH3 0x58D JUMP JUMPDEST PUSH3 0x584 JUMP JUMPDEST SWAP1 POP SWAP2 SWAP1 POP JUMP JUMPDEST PUSH0 DUP2 SWAP1 POP SWAP2 SWAP1 POP JUMP JUMPDEST PUSH3 0x5D1 DUP4 PUSH3 0x596 JUMP JUMPDEST PUSH3 0x5E9 PUSH3 0x5E0 DUP3 PUSH3 0x5BD JUMP JUMPDEST DUP5 DUP5 SLOAD PUSH3 0x52F JUMP JUMPDEST DUP3 SSTORE POP POP POP POP JUMP JUMPDEST PUSH0 SWAP1 JUMP JUMPDEST PUSH3 0x5FF PUSH3 0x5F1 JUMP JUMPDEST PUSH3 0x60C DUP2 DUP5 DUP5 PUSH3 0x5C6 JUMP JUMPDEST POP POP POP JUMP JUMPDEST JUMPDEST DUP2 DUP2 LT ISZERO PUSH3 0x633 JUMPI PUSH3 0x627 PUSH0 DUP3 PUSH3 0x5F5 JUMP JUMPDEST PUSH1 0x1 DUP2 ADD SWAP1 POP PUSH3 0x612 JUMP JUMPDEST POP POP JUMP JUMPDEST PUSH1 0x1F DUP3 GT ISZERO PUSH3 0x682 JUMPI PUSH3 0x64C DUP2 PUSH3 0x502 JUMP JUMPDEST PUSH3 0x657 DUP5 PUSH3 0x514 JUMP JUMPDEST DUP2 ADD PUSH1 0x20 DUP6 LT ISZERO PUSH3 0x667 JUMPI DUP2 SWAP1 POP JUMPDEST PUSH3 0x67F PUSH3 0x676 DUP6 PUSH3 0x514 JUMP JUMPDEST DUP4 ADD DUP3 PUSH3 0x611 JUMP JUMPDEST POP POP JUMPDEST POP POP POP JUMP JUMPDEST PUSH0 DUP3 DUP3 SHR SWAP1 POP SWAP3 SWAP2 POP POP JUMP JUMPDEST PUSH0 PUSH3 0x6A4 PUSH0 NOT DUP5 PUSH1 0x8 MUL PUSH3 0x687 JUMP JUMPDEST NOT DUP1 DUP4 AND SWAP2 POP POP SWAP3 SWAP2 POP POP JUMP JUMPDEST PUSH0 PUSH3 0x6BE DUP4 DUP4 PUSH3 0x693 JUMP JUMPDEST SWAP2 POP DUP3 PUSH1 0x2 MUL DUP3 OR SWAP1 POP SWAP3 SWAP2 POP POP JUMP JUMPDEST PUSH3 0x6D9 DUP3 PUSH3 0x497 JUMP JUMPDEST PUSH8 0xFFFFFFFFFFFFFFFF DUP2 GT ISZERO PUSH3 0x6F5 JUMPI PUSH3 0x6F4 PUSH3 0x14D JUMP JUMPDEST JUMPDEST PUSH3 0x701 DUP3 SLOAD PUSH3 0x4CE JUMP JUMPDEST PUSH3 0x70E DUP3 DUP3 DUP6 PUSH3 0x637 JUMP JUMPDEST PUSH0 PUSH1 0x20 SWAP1 POP PUSH1 0x1F DUP4 GT PUSH1 0x1 DUP2 EQ PUSH3 0x744 JUMPI PUSH0 DUP5 ISZERO PUSH3 0x72F JUMPI DUP3 DUP8 ADD MLOAD SWAP1 POP JUMPDEST PUSH3 0x73B DUP6 DUP3 PUSH3 0x6B1 JUMP JUMPDEST DUP7 SSTORE POP PUSH3 0x7AA JUMP JUMPDEST PUSH1 0x1F NOT DUP5 AND PUSH3 0x754 DUP7 PUSH3 0x502 JUMP JUMPDEST PUSH0 JUMPDEST DUP3 DUP2 LT ISZERO PUSH3 0x77D JUMPI DUP5 DUP10 ADD MLOAD DUP3 SSTORE PUSH1 0x1 DUP3 ADD SWAP2 POP PUSH1 0x20 DUP6 ADD SWAP5 POP PUSH1 0x20 DUP2 ADD SWAP1 POP PUSH3 0x756 JUMP JUMPDEST DUP7 DUP4 LT ISZERO PUSH3 0x79D JUMPI DUP5 DUP10 ADD MLOAD PUSH3 0x799 PUSH1 0x1F DUP10 AND DUP3 PUSH3 0x693 JUMP JUMPDEST DUP4 SSTORE POP JUMPDEST PUSH1 0x1 PUSH1 0x2 DUP9 MUL ADD DUP9 SSTORE POP POP POP JUMPDEST POP POP POP POP POP POP JUMP JUMPDEST PUSH2 0x47B DUP1 PUSH3 0x7C0 PUSH0 CODECOPY PUSH0 RETURN INVALID PUSH1 0x80 PUSH1 0x40 MSTORE CALLVALUE DUP1 ISZERO PUSH2 0xF JUMPI PUSH0 DUP1 REVERT JUMPDEST POP PUSH1 0x4 CALLDATASIZE LT PUSH2 0x34 JUMPI PUSH0 CALLDATALOAD PUSH1 0xE0 SHR DUP1 PUSH4 0x2402C982 EQ PUSH2 0x38 JUMPI DUP1 PUSH4 0x40D15254 EQ PUSH2 0x57 JUMPI JUMPDEST PUSH0 DUP1 REVERT JUMPDEST PUSH2 0x40 PUSH2 0x75 JUMP JUMPDEST PUSH1 0x40 MLOAD PUSH2 0x4E SWAP3 SWAP2 SWAP1 PUSH2 0x2AC JUMP JUMPDEST PUSH1 0x40 MLOAD DUP1 SWAP2 SUB SWAP1 RETURN JUMPDEST PUSH2 0x5F PUSH2 0x197 JUMP JUMPDEST PUSH1 0x40 MLOAD PUSH2 0x6C SWAP2 SWAP1 PUSH2 0x3C8 JUMP JUMPDEST PUSH1 0x40 MLOAD DUP1 SWAP2 SUB SWAP1 RETURN JUMPDEST PUSH1 0x60 DUP1 PUSH0 PUSH1 0x1 DUP2 DUP1 SLOAD PUSH2 0x87 SWAP1 PUSH2 0x415 JUMP JUMPDEST DUP1 PUSH1 0x1F ADD PUSH1 0x20 DUP1 SWAP2 DIV MUL PUSH1 0x20 ADD PUSH1 0x40 MLOAD SWAP1 DUP2 ADD PUSH1 0x40 MSTORE DUP1 SWAP3 SWAP2 SWAP1 DUP2 DUP2 MSTORE PUSH1 0x20 ADD DUP3 DUP1 SLOAD PUSH2 0xB3 SWAP1 PUSH2 0x415 JUMP JUMPDEST DUP1 ISZERO PUSH2 0xFE JUMPI DUP1 PUSH1 0x1F LT PUSH2 0xD5 JUMPI PUSH2 0x100 DUP1 DUP4 SLOAD DIV MUL DUP4 MSTORE SWAP2 PUSH1 0x20 ADD SWAP2 PUSH2 0xFE JUMP JUMPDEST DUP3 ADD SWAP2 SWAP1 PUSH0 MSTORE PUSH1 0x20 PUSH0 KECCAK256 SWAP1 JUMPDEST DUP2 SLOAD DUP2 MSTORE SWAP1 PUSH1 0x1 ADD SWAP1 PUSH1 0x20 ADD DUP1 DUP4 GT PUSH2 0xE1 JUMPI DUP3 SWAP1 SUB PUSH1 0x1F AND DUP3 ADD SWAP2 JUMPDEST POP POP POP POP POP SWAP2 POP DUP1 DUP1 SLOAD PUSH2 0x111 SWAP1 PUSH2 0x415 JUMP JUMPDEST DUP1 PUSH1 0x1F ADD PUSH1 0x20 DUP1 SWAP2 DIV MUL PUSH1 0x20 ADD PUSH1 0x40 MLOAD SWAP1 DUP2 ADD PUSH1 0x40 MSTORE DUP1 SWAP3 SWAP2 SWAP1 DUP2 DUP2 MSTORE PUSH1 0x20 ADD DUP3 DUP1 SLOAD PUSH2 0x13D SWAP1 PUSH2 0x415 JUMP JUMPDEST DUP1 ISZERO PUSH2 0x188 JUMPI DUP1 PUSH1 0x1F LT PUSH2 0x15F JUMPI PUSH2 0x100 DUP1 DUP4 SLOAD DIV MUL DUP4 MSTORE SWAP2 PUSH1 0x20 ADD SWAP2 PUSH2 0x188 JUMP JUMPDEST DUP3 ADD SWAP2 SWAP1 PUSH0 MSTORE PUSH1 0x20 PUSH0 KECCAK256 SWAP1 JUMPDEST DUP2 SLOAD DUP2 MSTORE SWAP1 PUSH1 0x1 ADD SWAP1 PUSH1 0x20 ADD DUP1 DUP4 GT PUSH2 0x16B JUMPI DUP3 SWAP1 SUB PUSH1 0x1F AND DUP3 ADD SWAP2 JUMPDEST POP POP POP POP POP SWAP1 POP SWAP2 POP SWAP2 POP SWAP1 SWAP2 JUMP JUMPDEST PUSH1 0x60 PUSH1 0x2 DUP1 SLOAD DUP1 PUSH1 0x20 MUL PUSH1 0x20 ADD PUSH1 0x40 MLOAD SWAP1 DUP2 ADD PUSH1 0x40 MSTORE DUP1 SWAP3 SWAP2 SWAP1 DUP2 DUP2 MSTORE PUSH1 0x20 ADD DUP3 DUP1 SLOAD DUP1 ISZERO PUSH2 0x218 JUMPI PUSH1 0x20 MUL DUP3 ADD SWAP2 SWAP1 PUSH0 MSTORE PUSH1 0x20 PUSH0 KECCAK256 SWAP1 JUMPDEST DUP2 PUSH0 SWAP1 SLOAD SWAP1 PUSH2 0x100 EXP SWAP1 DIV PUSH20 0xFFFFFFFFFFFFFFFFFFFFFFFFFFFFFFFFFFFFFFFF AND PUSH20 0xFFFFFFFFFFFFFFFFFFFFFFFFFFFFFFFFFFFFFFFF AND DUP2 MSTORE PUSH1 0x20 ADD SWAP1 PUSH1 0x1 ADD SWAP1 DUP1 DUP4 GT PUSH2 0x1CF JUMPI JUMPDEST POP POP POP POP POP SWAP1 POP SWAP1 JUMP JUMPDEST PUSH0 DUP2 MLOAD SWAP1 POP SWAP2 SWAP1 POP JUMP JUMPDEST PUSH0 DUP3 DUP3 MSTORE PUSH1 0x20 DUP3 ADD SWAP1 POP SWAP3 SWAP2 POP POP JUMP JUMPDEST PUSH0 JUMPDEST DUP4 DUP2 LT ISZERO PUSH2 0x259 JUMPI DUP1 DUP3 ADD MLOAD DUP2 DUP5 ADD MSTORE PUSH1 0x20 DUP2 ADD SWAP1 POP PUSH2 0x23E JUMP JUMPDEST PUSH0 DUP5 DUP5 ADD MSTORE POP POP POP POP JUMP JUMPDEST PUSH0 PUSH1 0x1F NOT PUSH1 0x1F DUP4 ADD AND SWAP1 POP SWAP2 SWAP1 POP JUMP JUMPDEST PUSH0 PUSH2 0x27E DUP3 PUSH2 0x222 JUMP JUMPDEST PUSH2 0x288 DUP2 DUP6 PUSH2 0x22C JUMP JUMPDEST SWAP4 POP PUSH2 0x298 DUP2 DUP6 PUSH1 0x20 DUP7 ADD PUSH2 0x23C JUMP JUMPDEST PUSH2 0x2A1 DUP2 PUSH2 0x264 JUMP JUMPDEST DUP5 ADD SWAP2 POP POP SWAP3 SWAP2 POP POP JUMP JUMPDEST PUSH0 PUSH1 0x40 DUP3 ADD SWAP1 POP DUP2 DUP2 SUB PUSH0 DUP4 ADD MSTORE PUSH2 0x2C4 DUP2 DUP6 PUSH2 0x274 JUMP JUMPDEST SWAP1 POP DUP2 DUP2 SUB PUSH1 0x20 DUP4 ADD MSTORE PUSH2 0x2D8 DUP2 DUP5 PUSH2 0x274 JUMP JUMPDEST SWAP1 POP SWAP4 SWAP3 POP POP POP JUMP JUMPDEST PUSH0 DUP2 MLOAD SWAP1 POP SWAP2 SWAP1 POP JUMP JUMPDEST PUSH0 DUP3 DUP3 MSTORE PUSH1 0x20 DUP3 ADD SWAP1 POP SWAP3 SWAP2 POP POP JUMP JUMPDEST PUSH0 DUP2 SWAP1 POP PUSH1 0x20 DUP3 ADD SWAP1 POP SWAP2 SWAP1 POP JUMP JUMPDEST PUSH0 PUSH20 0xFFFFFFFFFFFFFFFFFFFFFFFFFFFFFFFFFFFFFFFF DUP3 AND SWAP1 POP SWAP2 SWAP1 POP JUMP JUMPDEST PUSH0 PUSH2 0x333 DUP3 PUSH2 0x30A JUMP JUMPDEST SWAP1 POP SWAP2 SWAP1 POP JUMP JUMPDEST PUSH2 0x343 DUP2 PUSH2 0x329 JUMP JUMPDEST DUP3 MSTORE POP POP JUMP JUMPDEST PUSH0 PUSH2 0x354 DUP4 DUP4 PUSH2 0x33A JUMP JUMPDEST PUSH1 0x20 DUP4 ADD SWAP1 POP SWAP3 SWAP2 POP POP JUMP JUMPDEST PUSH0 PUSH1 0x20 DUP3 ADD SWAP1 POP SWAP2 SWAP1 POP JUMP JUMPDEST PUSH0 PUSH2 0x376 DUP3 PUSH2 0x2E1 JUMP JUMPDEST PUSH2 0x380 DUP2 DUP6 PUSH2 0x2EB JUMP JUMPDEST SWAP4 POP PUSH2 0x38B DUP4 PUSH2 0x2FB JUMP JUMPDEST DUP1 PUSH0 JUMPDEST DUP4 DUP2 LT ISZERO PUSH2 0x3BB JUMPI DUP2 MLOAD PUSH2 0x3A2 DUP9 DUP3 PUSH2 0x349 JUMP JUMPDEST SWAP8 POP PUSH2 0x3AD DUP4 PUSH2 0x360 JUMP JUMPDEST SWAP3 POP POP PUSH1 0x1 DUP2 ADD SWAP1 POP PUSH2 0x38E JUMP JUMPDEST POP DUP6 SWAP4 POP POP POP POP SWAP3 SWAP2 POP POP JUMP JUMPDEST PUSH0 PUSH1 0x20 DUP3 ADD SWAP1 POP DUP2 DUP2 SUB PUSH0 DUP4 ADD MSTORE PUSH2 0x3E0 DUP2 DUP5 PUSH2 0x36C JUMP JUMPDEST SWAP1 POP SWAP3 SWAP2 POP POP JUMP JUMPDEST PUSH32 0x4E487B7100000000000000000000000000000000000000000000000000000000 PUSH0 MSTORE PUSH1 0x22 PUSH1 0x4 MSTORE PUSH1 0x24 PUSH0 REVERT JUMPDEST PUSH0 PUSH1 0x2 DUP3 DIV SWAP1 POP PUSH1 0x1 DUP3 AND DUP1 PUSH2 0x42C JUMPI PUSH1 0x7F DUP3 AND SWAP2 POP JUMPDEST PUSH1 0x20 DUP3 LT DUP2 SUB PUSH2 0x43F JUMPI PUSH2 0x43E PUSH2 0x3E8 JUMP JUMPDEST JUMPDEST POP SWAP2 SWAP1 POP JUMP INVALID LOG2 PUSH5 0x6970667358 0x22 SLT KECCAK256 SELFDESTRUCT LOG0 PUSH21 0x1C9F51307F75C13805FDAB461ADF01F71E04840BF7 LT DUP5 AND 0xE 0xBA LOG0 PUSH26 0xBC64736F6C634300081800330000000000000000000000000000 "
				},
				"gasEstimates": {
					"creation": {
						"codeDepositCost": "229400",
						"executionCost": "infinite",
						"totalCost": "infinite"
					},
					"external": {
						"get_compose()": "infinite",
						"get_names()": "infinite"
					}
				},
				"methodIdentifiers": {
					"get_compose()": "40d15254",
					"get_names()": "2402c982"
				}
			},
			"storageLayout": {
				"storage": [
					{
						"astId": 3,
						"contract": "src/state/StateSoccer.sol:StateSoccer",
						"label": "team1",
						"offset": 0,
						"slot": "0",
						"type": "t_string_storage"
					},
					{
						"astId": 5,
						"contract": "src/state/StateSoccer.sol:StateSoccer",
						"label": "team2",
						"offset": 0,
						"slot": "1",
						"type": "t_string_storage"
					},
					{
						"astId": 8,
						"contract": "src/state/StateSoccer.sol:StateSoccer",
						"label": "composes",
						"offset": 0,
						"slot": "2",
						"type": "t_array(t_address)dyn_storage"
					}
				],
				"types": {
					"t_address": {
						"encoding": "inplace",
						"label": "address",
						"numberOfBytes": "20"
					},
					"t_array(t_address)dyn_storage": {
						"base": "t_address",
						"encoding": "dynamic_array",
						"label": "address[]",
						"numberOfBytes": "32"
					},
					"t_string_storage": {
						"encoding": "bytes",
						"label": "string",
						"numberOfBytes": "32"
					}
				}
			},
			"userdoc": {
				"kind": "user",
				"methods": {},
				"version": 1
			}
		}
	}
}